{
  "contractName": "Driver",
  "abi": [
    {
      "inputs": [
        {
          "internalType": "string",
          "name": "_name",
          "type": "string"
        },
        {
          "internalType": "uint256",
          "name": "NID",
          "type": "uint256"
        },
        {
          "internalType": "uint256",
          "name": "_licenseNo",
          "type": "uint256"
        },
        {
          "internalType": "uint256",
          "name": "issue_date",
          "type": "uint256"
        },
        {
          "internalType": "uint256",
          "name": "exp_date",
          "type": "uint256"
        }
      ],
      "stateMutability": "nonpayable",
      "type": "constructor"
    },
    {
      "inputs": [
        {
          "internalType": "string",
          "name": "_name",
          "type": "string"
        }
      ],
      "name": "changeName",
      "outputs": [],
      "stateMutability": "nonpayable",
      "type": "function"
    },
    {
      "inputs": [
        {
          "internalType": "uint16",
          "name": "_score",
          "type": "uint16"
        }
      ],
      "name": "updateScore",
      "outputs": [],
      "stateMutability": "nonpayable",
      "type": "function"
    },
    {
      "inputs": [],
      "name": "getName",
      "outputs": [
        {
          "internalType": "string",
          "name": "",
          "type": "string"
        }
      ],
      "stateMutability": "view",
      "type": "function"
    }
  ],
  "bytecode": "0x60e06040523480156200001157600080fd5b5060405162000d6138038062000d61833981810160405281019062000037919062000241565b8360a08181525050846000908162000050919062000529565b5082608081815250508160c0818152505080600181905550505050505062000610565b6000604051905090565b600080fd5b600080fd5b600080fd5b600080fd5b6000601f19601f8301169050919050565b7f4e487b7100000000000000000000000000000000000000000000000000000000600052604160045260246000fd5b620000dc8262000091565b810181811067ffffffffffffffff82111715620000fe57620000fd620000a2565b5b80604052505050565b60006200011362000073565b9050620001218282620000d1565b919050565b600067ffffffffffffffff821115620001445762000143620000a2565b5b6200014f8262000091565b9050602081019050919050565b60005b838110156200017c5780820151818401526020810190506200015f565b60008484015250505050565b60006200019f620001998462000126565b62000107565b905082815260208101848484011115620001be57620001bd6200008c565b5b620001cb8482856200015c565b509392505050565b600082601f830112620001eb57620001ea62000087565b5b8151620001fd84826020860162000188565b91505092915050565b6000819050919050565b6200021b8162000206565b81146200022757600080fd5b50565b6000815190506200023b8162000210565b92915050565b600080600080600060a0868803121562000260576200025f6200007d565b5b600086015167ffffffffffffffff81111562000281576200028062000082565b5b6200028f88828901620001d3565b9550506020620002a2888289016200022a565b9450506040620002b5888289016200022a565b9350506060620002c8888289016200022a565b9250506080620002db888289016200022a565b9150509295509295909350565b600081519050919050565b7f4e487b7100000000000000000000000000000000000000000000000000000000600052602260045260246000fd5b600060028204905060018216806200033b57607f821691505b602082108103620003515762000350620002f3565b5b50919050565b60008190508160005260206000209050919050565b60006020601f8301049050919050565b600082821b905092915050565b600060088302620003bb7fffffffffffffffffffffffffffffffffffffffffffffffffffffffffffffffff826200037c565b620003c786836200037c565b95508019841693508086168417925050509392505050565b6000819050919050565b60006200040a62000404620003fe8462000206565b620003df565b62000206565b9050919050565b6000819050919050565b6200042683620003e9565b6200043e620004358262000411565b84845462000389565b825550505050565b600090565b6200045562000446565b620004628184846200041b565b505050565b5b818110156200048a576200047e6000826200044b565b60018101905062000468565b5050565b601f821115620004d957620004a38162000357565b620004ae846200036c565b81016020851015620004be578190505b620004d6620004cd856200036c565b83018262000467565b50505b505050565b600082821c905092915050565b6000620004fe60001984600802620004de565b1980831691505092915050565b6000620005198383620004eb565b9150826002028217905092915050565b6200053482620002e8565b67ffffffffffffffff81111562000550576200054f620000a2565b5b6200055c825462000322565b620005698282856200048e565b600060209050601f831160018114620005a157600084156200058c578287015190505b6200059885826200050b565b86555062000608565b601f198416620005b18662000357565b60005b82811015620005db57848901518255600182019150602085019450602081019050620005b4565b86831015620005fb5784890151620005f7601f891682620004eb565b8355505b6001600288020188555050505b505050505050565b60805160a05160c05161072a6200063760003960005050600050506000505061072a6000f3fe608060405234801561001057600080fd5b50600436106100415760003560e01c806317d7de7c1461004657806317fd2967146100645780635353a2d814610080575b600080fd5b61004e61009c565b60405161005b91906101f1565b60405180910390f35b61007e60048036038101906100799190610261565b61012e565b005b61009a600480360381019061009591906103c3565b61014e565b005b6060600080546100ab9061043b565b80601f01602080910402602001604051908101604052809291908181526020018280546100d79061043b565b80156101245780601f106100f957610100808354040283529160200191610124565b820191906000526020600020905b81548152906001019060200180831161010757829003601f168201915b5050505050905090565b80600260006101000a81548161ffff021916908361ffff16021790555050565b806000908161015d9190610622565b5050565b600081519050919050565b600082825260208201905092915050565b60005b8381101561019b578082015181840152602081019050610180565b60008484015250505050565b6000601f19601f8301169050919050565b60006101c382610161565b6101cd818561016c565b93506101dd81856020860161017d565b6101e6816101a7565b840191505092915050565b6000602082019050818103600083015261020b81846101b8565b905092915050565b6000604051905090565b600080fd5b600080fd5b600061ffff82169050919050565b61023e81610227565b811461024957600080fd5b50565b60008135905061025b81610235565b92915050565b6000602082840312156102775761027661021d565b5b60006102858482850161024c565b91505092915050565b600080fd5b600080fd5b7f4e487b7100000000000000000000000000000000000000000000000000000000600052604160045260246000fd5b6102d0826101a7565b810181811067ffffffffffffffff821117156102ef576102ee610298565b5b80604052505050565b6000610302610213565b905061030e82826102c7565b919050565b600067ffffffffffffffff82111561032e5761032d610298565b5b610337826101a7565b9050602081019050919050565b82818337600083830152505050565b600061036661036184610313565b6102f8565b90508281526020810184848401111561038257610381610293565b5b61038d848285610344565b509392505050565b600082601f8301126103aa576103a961028e565b5b81356103ba848260208601610353565b91505092915050565b6000602082840312156103d9576103d861021d565b5b600082013567ffffffffffffffff8111156103f7576103f6610222565b5b61040384828501610395565b91505092915050565b7f4e487b7100000000000000000000000000000000000000000000000000000000600052602260045260246000fd5b6000600282049050600182168061045357607f821691505b6020821081036104665761046561040c565b5b50919050565b60008190508160005260206000209050919050565b60006020601f8301049050919050565b600082821b905092915050565b6000600883026104ce7fffffffffffffffffffffffffffffffffffffffffffffffffffffffffffffffff82610491565b6104d88683610491565b95508019841693508086168417925050509392505050565b6000819050919050565b6000819050919050565b600061051f61051a610515846104f0565b6104fa565b6104f0565b9050919050565b6000819050919050565b61053983610504565b61054d61054582610526565b84845461049e565b825550505050565b600090565b610562610555565b61056d818484610530565b505050565b5b818110156105915761058660008261055a565b600181019050610573565b5050565b601f8211156105d6576105a78161046c565b6105b084610481565b810160208510156105bf578190505b6105d36105cb85610481565b830182610572565b50505b505050565b600082821c905092915050565b60006105f9600019846008026105db565b1980831691505092915050565b600061061283836105e8565b9150826002028217905092915050565b61062b82610161565b67ffffffffffffffff81111561064457610643610298565b5b61064e825461043b565b610659828285610595565b600060209050601f83116001811461068c576000841561067a578287015190505b6106848582610606565b8655506106ec565b601f19841661069a8661046c565b60005b828110156106c25784890151825560018201915060208501945060208101905061069d565b868310156106df57848901516106db601f8916826105e8565b8355505b6001600288020188555050505b50505050505056fea26469706673582212208bed83330820ea26be53c218d77050140d1f02702cf93b8e1afabbd167fe743b64736f6c63430008110033",
  "immutableReferences": {},
  "source": "// SPDX-License-Identifier: MIT\npragma solidity 0.8.17;\n\ncontract Driver {\n\n    string private name;\n    uint256 private immutable licenseNo;\n    uint256 private immutable i_NID;\n    uint256 private immutable i_lic_issue_date;\n    uint256 private i_lic_exp_date;\n    uint16 private score;\n\n    constructor(\n        string memory _name,\n        uint256 NID,\n        uint256 _licenseNo,\n        uint256 issue_date,\n        uint256 exp_date\n    ) {\n        i_NID = NID;\n        name = _name;\n        licenseNo = _licenseNo;\n        i_lic_issue_date = issue_date;\n        i_lic_exp_date = exp_date;\n    }\n\n    function changeName(string memory _name) external {\n        name = _name;\n    }\n\n    function updateScore(uint16 _score) external {\n        score = _score;\n    }\n\n    function getName() external view returns(string memory) {\n        return name;\n    }\n}\n",
  "sourcePath": "C:\\Users\\samin\\Documents\\Projects\\AWT\\TraffiChain\\contracts\\Driver.sol",
  "compiler": {
    "name": "solc",
    "version": "0.8.17+commit.8df45f5f.Emscripten.clang"
  },
  "schemaVersion": "3.4.10",
  "updatedAt": "2022-11-02T05:56:43.487Z",
  "devdoc": {
    "kind": "dev",
    "methods": {},
    "version": 1
  },
  "userdoc": {
    "kind": "user",
    "methods": {},
    "version": 1
  }
}