{
  "contractName": "Driver",
  "abi": [
    {
      "inputs": [
        {
          "internalType": "string",
          "name": "_name",
          "type": "string"
        },
        {
          "internalType": "uint256",
          "name": "NID",
          "type": "uint256"
        },
        {
          "internalType": "uint256",
          "name": "_licenseNo",
          "type": "uint256"
        },
        {
          "internalType": "uint256",
          "name": "issue_date",
          "type": "uint256"
        },
        {
          "internalType": "uint256",
          "name": "exp_date",
          "type": "uint256"
        }
      ],
      "stateMutability": "nonpayable",
      "type": "constructor"
    },
    {
      "inputs": [
        {
          "internalType": "string",
          "name": "_name",
          "type": "string"
        }
      ],
      "name": "changeName",
      "outputs": [],
      "stateMutability": "nonpayable",
      "type": "function"
    },
    {
      "inputs": [
        {
          "internalType": "uint16",
          "name": "_score",
          "type": "uint16"
        }
      ],
      "name": "updateScore",
      "outputs": [],
      "stateMutability": "nonpayable",
      "type": "function"
    },
    {
      "inputs": [
        {
          "internalType": "uint256",
          "name": "_lic_exp_date",
          "type": "uint256"
        }
      ],
      "name": "updateExpDate",
      "outputs": [],
      "stateMutability": "nonpayable",
      "type": "function"
    },
    {
      "inputs": [],
      "name": "getName",
      "outputs": [
        {
          "internalType": "string",
          "name": "",
          "type": "string"
        }
      ],
      "stateMutability": "view",
      "type": "function"
    },
    {
      "inputs": [],
      "name": "getNID",
      "outputs": [
        {
          "internalType": "uint256",
          "name": "",
          "type": "uint256"
        }
      ],
      "stateMutability": "view",
      "type": "function"
    },
    {
      "inputs": [],
      "name": "getLicNo",
      "outputs": [
        {
          "internalType": "uint256",
          "name": "",
          "type": "uint256"
        }
      ],
      "stateMutability": "view",
      "type": "function"
    },
    {
      "inputs": [],
      "name": "getLicIssueDate",
      "outputs": [
        {
          "internalType": "uint256",
          "name": "",
          "type": "uint256"
        }
      ],
      "stateMutability": "view",
      "type": "function"
    },
    {
      "inputs": [],
      "name": "getLicExpDate",
      "outputs": [
        {
          "internalType": "uint256",
          "name": "",
          "type": "uint256"
        }
      ],
      "stateMutability": "view",
      "type": "function"
    },
    {
      "inputs": [],
      "name": "getScore",
      "outputs": [
        {
          "internalType": "uint16",
          "name": "",
          "type": "uint16"
        }
      ],
      "stateMutability": "view",
      "type": "function"
    }
  ],
  "bytecode": "0x60e06040523480156200001157600080fd5b5060405162000fbf38038062000fbf833981810160405281019062000037919062000241565b8360a08181525050846000908162000050919062000529565b5082608081815250508160c0818152505080600181905550505050505062000610565b6000604051905090565b600080fd5b600080fd5b600080fd5b600080fd5b6000601f19601f8301169050919050565b7f4e487b7100000000000000000000000000000000000000000000000000000000600052604160045260246000fd5b620000dc8262000091565b810181811067ffffffffffffffff82111715620000fe57620000fd620000a2565b5b80604052505050565b60006200011362000073565b9050620001218282620000d1565b919050565b600067ffffffffffffffff821115620001445762000143620000a2565b5b6200014f8262000091565b9050602081019050919050565b60005b838110156200017c5780820151818401526020810190506200015f565b60008484015250505050565b60006200019f620001998462000126565b62000107565b905082815260208101848484011115620001be57620001bd6200008c565b5b620001cb8482856200015c565b509392505050565b600082601f830112620001eb57620001ea62000087565b5b8151620001fd84826020860162000188565b91505092915050565b6000819050919050565b6200021b8162000206565b81146200022757600080fd5b50565b6000815190506200023b8162000210565b92915050565b600080600080600060a0868803121562000260576200025f6200007d565b5b600086015167ffffffffffffffff81111562000281576200028062000082565b5b6200028f88828901620001d3565b9550506020620002a2888289016200022a565b9450506040620002b5888289016200022a565b9350506060620002c8888289016200022a565b9250506080620002db888289016200022a565b9150509295509295909350565b600081519050919050565b7f4e487b7100000000000000000000000000000000000000000000000000000000600052602260045260246000fd5b600060028204905060018216806200033b57607f821691505b602082108103620003515762000350620002f3565b5b50919050565b60008190508160005260206000209050919050565b60006020601f8301049050919050565b600082821b905092915050565b600060088302620003bb7fffffffffffffffffffffffffffffffffffffffffffffffffffffffffffffffff826200037c565b620003c786836200037c565b95508019841693508086168417925050509392505050565b6000819050919050565b60006200040a62000404620003fe8462000206565b620003df565b62000206565b9050919050565b6000819050919050565b6200042683620003e9565b6200043e620004358262000411565b84845462000389565b825550505050565b600090565b6200045562000446565b620004628184846200041b565b505050565b5b818110156200048a576200047e6000826200044b565b60018101905062000468565b5050565b601f821115620004d957620004a38162000357565b620004ae846200036c565b81016020851015620004be578190505b620004d6620004cd856200036c565b83018262000467565b50505b505050565b600082821c905092915050565b6000620004fe60001984600802620004de565b1980831691505092915050565b6000620005198383620004eb565b9150826002028217905092915050565b6200053482620002e8565b67ffffffffffffffff81111562000550576200054f620000a2565b5b6200055c825462000322565b620005698282856200048e565b600060209050601f831160018114620005a157600084156200058c578287015190505b6200059885826200050b565b86555062000608565b601f198416620005b18662000357565b60005b82811015620005db57848901518255600182019150602085019450602081019050620005b4565b86831015620005fb5784890151620005f7601f891682620004eb565b8355505b6001600288020188555050505b505050505050565b60805160a05160c05161097f6200064060003960006102db015260006102b301526000610256015261097f6000f3fe608060405234801561001057600080fd5b50600436106100935760003560e01c80638c64b1f2116100665780638c64b1f21461010c578063afd820671461012a578063d8c4661c14610148578063e90bf00f14610166578063f92973c21461018457610093565b806317d7de7c1461009857806317fd2967146100b65780631f810d0e146100d25780635353a2d8146100f0575b600080fd5b6100a06101a0565b6040516100ad9190610399565b60405180910390f35b6100d060048036038101906100cb9190610409565b610232565b005b6100da610252565b6040516100e7919061044f565b60405180910390f35b61010a6004803603810190610105919061059f565b61027a565b005b61011461028d565b604051610121919061044f565b60405180910390f35b610132610297565b60405161013f91906105f7565b60405180910390f35b6101506102af565b60405161015d919061044f565b60405180910390f35b61016e6102d7565b60405161017b919061044f565b60405180910390f35b61019e6004803603810190610199919061063e565b6102ff565b005b6060600080546101af9061069a565b80601f01602080910402602001604051908101604052809291908181526020018280546101db9061069a565b80156102285780601f106101fd57610100808354040283529160200191610228565b820191906000526020600020905b81548152906001019060200180831161020b57829003601f168201915b5050505050905090565b80600260006101000a81548161ffff021916908361ffff16021790555050565b60007f0000000000000000000000000000000000000000000000000000000000000000905090565b80600090816102899190610877565b5050565b6000600154905090565b6000600260009054906101000a900461ffff16905090565b60007f0000000000000000000000000000000000000000000000000000000000000000905090565b60007f0000000000000000000000000000000000000000000000000000000000000000905090565b8060018190555050565b600081519050919050565b600082825260208201905092915050565b60005b83811015610343578082015181840152602081019050610328565b60008484015250505050565b6000601f19601f8301169050919050565b600061036b82610309565b6103758185610314565b9350610385818560208601610325565b61038e8161034f565b840191505092915050565b600060208201905081810360008301526103b38184610360565b905092915050565b6000604051905090565b600080fd5b600080fd5b600061ffff82169050919050565b6103e6816103cf565b81146103f157600080fd5b50565b600081359050610403816103dd565b92915050565b60006020828403121561041f5761041e6103c5565b5b600061042d848285016103f4565b91505092915050565b6000819050919050565b61044981610436565b82525050565b60006020820190506104646000830184610440565b92915050565b600080fd5b600080fd5b7f4e487b7100000000000000000000000000000000000000000000000000000000600052604160045260246000fd5b6104ac8261034f565b810181811067ffffffffffffffff821117156104cb576104ca610474565b5b80604052505050565b60006104de6103bb565b90506104ea82826104a3565b919050565b600067ffffffffffffffff82111561050a57610509610474565b5b6105138261034f565b9050602081019050919050565b82818337600083830152505050565b600061054261053d846104ef565b6104d4565b90508281526020810184848401111561055e5761055d61046f565b5b610569848285610520565b509392505050565b600082601f8301126105865761058561046a565b5b813561059684826020860161052f565b91505092915050565b6000602082840312156105b5576105b46103c5565b5b600082013567ffffffffffffffff8111156105d3576105d26103ca565b5b6105df84828501610571565b91505092915050565b6105f1816103cf565b82525050565b600060208201905061060c60008301846105e8565b92915050565b61061b81610436565b811461062657600080fd5b50565b60008135905061063881610612565b92915050565b600060208284031215610654576106536103c5565b5b600061066284828501610629565b91505092915050565b7f4e487b7100000000000000000000000000000000000000000000000000000000600052602260045260246000fd5b600060028204905060018216806106b257607f821691505b6020821081036106c5576106c461066b565b5b50919050565b60008190508160005260206000209050919050565b60006020601f8301049050919050565b600082821b905092915050565b60006008830261072d7fffffffffffffffffffffffffffffffffffffffffffffffffffffffffffffffff826106f0565b61073786836106f0565b95508019841693508086168417925050509392505050565b6000819050919050565b600061077461076f61076a84610436565b61074f565b610436565b9050919050565b6000819050919050565b61078e83610759565b6107a261079a8261077b565b8484546106fd565b825550505050565b600090565b6107b76107aa565b6107c2818484610785565b505050565b5b818110156107e6576107db6000826107af565b6001810190506107c8565b5050565b601f82111561082b576107fc816106cb565b610805846106e0565b81016020851015610814578190505b610828610820856106e0565b8301826107c7565b50505b505050565b600082821c905092915050565b600061084e60001984600802610830565b1980831691505092915050565b6000610867838361083d565b9150826002028217905092915050565b61088082610309565b67ffffffffffffffff81111561089957610898610474565b5b6108a3825461069a565b6108ae8282856107ea565b600060209050601f8311600181146108e157600084156108cf578287015190505b6108d9858261085b565b865550610941565b601f1984166108ef866106cb565b60005b82811015610917578489015182556001820191506020850194506020810190506108f2565b868310156109345784890151610930601f89168261083d565b8355505b6001600288020188555050505b50505050505056fea264697066735822122067bd04281173b61b39a57624e94700086dfbd10bebd48b85eb7df9fa2aed34c764736f6c63430008110033",
  "immutableReferences": {
    "682": [
      {
        "length": 32,
        "start": 598
      }
    ],
    "684": [
      {
        "length": 32,
        "start": 691
      }
    ],
    "686": [
      {
        "length": 32,
        "start": 731
      }
    ]
  },
  "source": "// SPDX-License-Identifier: MIT\npragma solidity 0.8.17;\n\n// TODO: Implement access control\n\ncontract Driver {\n\n    string private name;\n    uint256 private immutable i_licenseNo;\n    uint256 private immutable i_NID;\n    uint256 private immutable i_lic_issue_date;\n    uint256 private lic_exp_date;\n    uint16 private score;\n\n    constructor(\n        string memory _name,\n        uint256 NID,\n        uint256 _licenseNo,\n        uint256 issue_date,\n        uint256 exp_date\n    ) {\n        i_NID = NID;\n        name = _name;\n        i_licenseNo = _licenseNo;\n        i_lic_issue_date = issue_date;\n        lic_exp_date = exp_date;\n    }\n\n    function changeName(string memory _name) external {\n        name = _name;\n    }\n\n    function updateScore(uint16 _score) external {\n        score = _score;\n    }\n\n    function updateExpDate(uint256 _lic_exp_date) external {\n        lic_exp_date = _lic_exp_date;\n    }\n\n    function getName() external view returns(string memory) {\n        return name;\n    }\n\n    function getNID() external view returns(uint256) {\n        return i_NID;\n    }\n\n    function getLicNo() external view returns(uint256) {\n        return i_licenseNo;\n    }\n\n    function getLicIssueDate() external view returns(uint256) {\n        return i_lic_issue_date;\n    }\n\n    function getLicExpDate() external view returns(uint256) {\n        return lic_exp_date;\n    }\n\n    function getScore() external view returns(uint16) {\n        return score;\n    }\n}\n",
  "sourcePath": "C:\\Users\\samin\\Documents\\Projects\\AWT\\TraffiChain\\contracts\\Driver.sol",
  "compiler": {
    "name": "solc",
    "version": "0.8.17+commit.8df45f5f.Emscripten.clang"
  },
  "schemaVersion": "3.4.10",
  "updatedAt": "2022-11-04T14:12:01.218Z",
  "devdoc": {
    "kind": "dev",
    "methods": {},
    "version": 1
  },
  "userdoc": {
    "kind": "user",
    "methods": {},
    "version": 1
  }
}