{
  "contractName": "Driver",
  "abi": [
    {
      "inputs": [
        {
          "internalType": "string",
          "name": "_name",
          "type": "string"
        },
        {
          "internalType": "uint256",
          "name": "NID",
          "type": "uint256"
        },
        {
          "internalType": "uint256",
          "name": "_licenseNo",
          "type": "uint256"
        },
        {
          "internalType": "uint256",
          "name": "issue_date",
          "type": "uint256"
        },
        {
          "internalType": "uint256",
          "name": "exp_date",
          "type": "uint256"
        }
      ],
      "stateMutability": "nonpayable",
      "type": "constructor"
    },
    {
      "inputs": [
        {
          "internalType": "string",
          "name": "_name",
          "type": "string"
        }
      ],
      "name": "changeName",
      "outputs": [],
      "stateMutability": "nonpayable",
      "type": "function"
    },
    {
      "inputs": [
        {
          "internalType": "uint16",
          "name": "_score",
          "type": "uint16"
        }
      ],
      "name": "updateScore",
      "outputs": [],
      "stateMutability": "nonpayable",
      "type": "function"
    },
    {
      "inputs": [
        {
          "internalType": "uint256",
          "name": "_lic_exp_date",
          "type": "uint256"
        }
      ],
      "name": "updateExpDate",
      "outputs": [],
      "stateMutability": "nonpayable",
      "type": "function"
    },
    {
      "inputs": [],
      "name": "getName",
      "outputs": [
        {
          "internalType": "string",
          "name": "",
          "type": "string"
        }
      ],
      "stateMutability": "view",
      "type": "function"
    },
    {
      "inputs": [],
      "name": "getNID",
      "outputs": [
        {
          "internalType": "uint256",
          "name": "",
          "type": "uint256"
        }
      ],
      "stateMutability": "view",
      "type": "function"
    },
    {
      "inputs": [],
      "name": "getLicNo",
      "outputs": [
        {
          "internalType": "uint256",
          "name": "",
          "type": "uint256"
        }
      ],
      "stateMutability": "view",
      "type": "function"
    },
    {
      "inputs": [],
      "name": "getLicIssueDate",
      "outputs": [
        {
          "internalType": "uint256",
          "name": "",
          "type": "uint256"
        }
      ],
      "stateMutability": "view",
      "type": "function"
    },
    {
      "inputs": [],
      "name": "getLicExpDate",
      "outputs": [
        {
          "internalType": "uint256",
          "name": "",
          "type": "uint256"
        }
      ],
      "stateMutability": "view",
      "type": "function"
    },
    {
      "inputs": [],
      "name": "getScore",
      "outputs": [
        {
          "internalType": "uint16",
          "name": "",
          "type": "uint16"
        }
      ],
      "stateMutability": "view",
      "type": "function"
    },
    {
      "inputs": [],
      "name": "getAllInfo",
      "outputs": [
        {
          "internalType": "string",
          "name": "",
          "type": "string"
        },
        {
          "internalType": "uint256",
          "name": "",
          "type": "uint256"
        },
        {
          "internalType": "uint256",
          "name": "",
          "type": "uint256"
        },
        {
          "internalType": "uint256",
          "name": "",
          "type": "uint256"
        },
        {
          "internalType": "uint256",
          "name": "",
          "type": "uint256"
        },
        {
          "internalType": "uint16",
          "name": "",
          "type": "uint16"
        }
      ],
      "stateMutability": "view",
      "type": "function"
    }
  ],
  "bytecode": "0x60e06040523480156200001157600080fd5b506040516200118c3803806200118c833981810160405281019062000037919062000241565b8360a08181525050846000908162000050919062000529565b5082608081815250508160c0818152505080600181905550505050505062000610565b6000604051905090565b600080fd5b600080fd5b600080fd5b600080fd5b6000601f19601f8301169050919050565b7f4e487b7100000000000000000000000000000000000000000000000000000000600052604160045260246000fd5b620000dc8262000091565b810181811067ffffffffffffffff82111715620000fe57620000fd620000a2565b5b80604052505050565b60006200011362000073565b9050620001218282620000d1565b919050565b600067ffffffffffffffff821115620001445762000143620000a2565b5b6200014f8262000091565b9050602081019050919050565b60005b838110156200017c5780820151818401526020810190506200015f565b60008484015250505050565b60006200019f620001998462000126565b62000107565b905082815260208101848484011115620001be57620001bd6200008c565b5b620001cb8482856200015c565b509392505050565b600082601f830112620001eb57620001ea62000087565b5b8151620001fd84826020860162000188565b91505092915050565b6000819050919050565b6200021b8162000206565b81146200022757600080fd5b50565b6000815190506200023b8162000210565b92915050565b600080600080600060a0868803121562000260576200025f6200007d565b5b600086015167ffffffffffffffff81111562000281576200028062000082565b5b6200028f88828901620001d3565b9550506020620002a2888289016200022a565b9450506040620002b5888289016200022a565b9350506060620002c8888289016200022a565b9250506080620002db888289016200022a565b9150509295509295909350565b600081519050919050565b7f4e487b7100000000000000000000000000000000000000000000000000000000600052602260045260246000fd5b600060028204905060018216806200033b57607f821691505b602082108103620003515762000350620002f3565b5b50919050565b60008190508160005260206000209050919050565b60006020601f8301049050919050565b600082821b905092915050565b600060088302620003bb7fffffffffffffffffffffffffffffffffffffffffffffffffffffffffffffffff826200037c565b620003c786836200037c565b95508019841693508086168417925050509392505050565b6000819050919050565b60006200040a62000404620003fe8462000206565b620003df565b62000206565b9050919050565b6000819050919050565b6200042683620003e9565b6200043e620004358262000411565b84845462000389565b825550505050565b600090565b6200045562000446565b620004628184846200041b565b505050565b5b818110156200048a576200047e6000826200044b565b60018101905062000468565b5050565b601f821115620004d957620004a38162000357565b620004ae846200036c565b81016020851015620004be578190505b620004d6620004cd856200036c565b83018262000467565b50505b505050565b600082821c905092915050565b6000620004fe60001984600802620004de565b1980831691505092915050565b6000620005198383620004eb565b9150826002028217905092915050565b6200053482620002e8565b67ffffffffffffffff81111562000550576200054f620000a2565b5b6200055c825462000322565b620005698282856200048e565b600060209050601f831160018114620005a157600084156200058c578287015190505b6200059885826200050b565b86555062000608565b601f198416620005b18662000357565b60005b82811015620005db57848901518255600182019150602085019450602081019050620005b4565b86831015620005fb5784890151620005f7601f891682620004eb565b8355505b6001600288020188555050505b505050505050565b60805160a05160c051610b37620006556000396000818161032c015261042b0152600081816102ea0152610403015260008181610284015261030b0152610b376000f3fe608060405234801561001057600080fd5b506004361061009e5760003560e01c8063afd8206711610066578063afd8206714610135578063b18e15bd14610153578063d8c4661c14610176578063e90bf00f14610194578063f92973c2146101b25761009e565b806317d7de7c146100a357806317fd2967146100c15780631f810d0e146100dd5780635353a2d8146100fb5780638c64b1f214610117575b600080fd5b6100ab6101ce565b6040516100b891906104e9565b60405180910390f35b6100db60048036038101906100d69190610559565b610260565b005b6100e5610280565b6040516100f2919061059f565b60405180910390f35b610115600480360381019061011091906106ef565b6102a8565b005b61011f6102bb565b60405161012c919061059f565b60405180910390f35b61013d6102c5565b60405161014a9190610747565b60405180910390f35b61015b6102dd565b60405161016d96959493929190610762565b60405180910390f35b61017e6103ff565b60405161018b919061059f565b60405180910390f35b61019c610427565b6040516101a9919061059f565b60405180910390f35b6101cc60048036038101906101c791906107f6565b61044f565b005b6060600080546101dd90610852565b80601f016020809104026020016040519081016040528092919081815260200182805461020990610852565b80156102565780601f1061022b57610100808354040283529160200191610256565b820191906000526020600020905b81548152906001019060200180831161023957829003601f168201915b5050505050905090565b80600260006101000a81548161ffff021916908361ffff16021790555050565b60007f0000000000000000000000000000000000000000000000000000000000000000905090565b80600090816102b79190610a2f565b5050565b6000600154905090565b6000600260009054906101000a900461ffff16905090565b60606000806000806000807f00000000000000000000000000000000000000000000000000000000000000007f00000000000000000000000000000000000000000000000000000000000000007f0000000000000000000000000000000000000000000000000000000000000000600154600260009054906101000a900461ffff1685805461036b90610852565b80601f016020809104026020016040519081016040528092919081815260200182805461039790610852565b80156103e45780601f106103b9576101008083540402835291602001916103e4565b820191906000526020600020905b8154815290600101906020018083116103c757829003601f168201915b50505050509550955095509550955095509550909192939495565b60007f0000000000000000000000000000000000000000000000000000000000000000905090565b60007f0000000000000000000000000000000000000000000000000000000000000000905090565b8060018190555050565b600081519050919050565b600082825260208201905092915050565b60005b83811015610493578082015181840152602081019050610478565b60008484015250505050565b6000601f19601f8301169050919050565b60006104bb82610459565b6104c58185610464565b93506104d5818560208601610475565b6104de8161049f565b840191505092915050565b6000602082019050818103600083015261050381846104b0565b905092915050565b6000604051905090565b600080fd5b600080fd5b600061ffff82169050919050565b6105368161051f565b811461054157600080fd5b50565b6000813590506105538161052d565b92915050565b60006020828403121561056f5761056e610515565b5b600061057d84828501610544565b91505092915050565b6000819050919050565b61059981610586565b82525050565b60006020820190506105b46000830184610590565b92915050565b600080fd5b600080fd5b7f4e487b7100000000000000000000000000000000000000000000000000000000600052604160045260246000fd5b6105fc8261049f565b810181811067ffffffffffffffff8211171561061b5761061a6105c4565b5b80604052505050565b600061062e61050b565b905061063a82826105f3565b919050565b600067ffffffffffffffff82111561065a576106596105c4565b5b6106638261049f565b9050602081019050919050565b82818337600083830152505050565b600061069261068d8461063f565b610624565b9050828152602081018484840111156106ae576106ad6105bf565b5b6106b9848285610670565b509392505050565b600082601f8301126106d6576106d56105ba565b5b81356106e684826020860161067f565b91505092915050565b60006020828403121561070557610704610515565b5b600082013567ffffffffffffffff8111156107235761072261051a565b5b61072f848285016106c1565b91505092915050565b6107418161051f565b82525050565b600060208201905061075c6000830184610738565b92915050565b600060c082019050818103600083015261077c81896104b0565b905061078b6020830188610590565b6107986040830187610590565b6107a56060830186610590565b6107b26080830185610590565b6107bf60a0830184610738565b979650505050505050565b6107d381610586565b81146107de57600080fd5b50565b6000813590506107f0816107ca565b92915050565b60006020828403121561080c5761080b610515565b5b600061081a848285016107e1565b91505092915050565b7f4e487b7100000000000000000000000000000000000000000000000000000000600052602260045260246000fd5b6000600282049050600182168061086a57607f821691505b60208210810361087d5761087c610823565b5b50919050565b60008190508160005260206000209050919050565b60006020601f8301049050919050565b600082821b905092915050565b6000600883026108e57fffffffffffffffffffffffffffffffffffffffffffffffffffffffffffffffff826108a8565b6108ef86836108a8565b95508019841693508086168417925050509392505050565b6000819050919050565b600061092c61092761092284610586565b610907565b610586565b9050919050565b6000819050919050565b61094683610911565b61095a61095282610933565b8484546108b5565b825550505050565b600090565b61096f610962565b61097a81848461093d565b505050565b5b8181101561099e57610993600082610967565b600181019050610980565b5050565b601f8211156109e3576109b481610883565b6109bd84610898565b810160208510156109cc578190505b6109e06109d885610898565b83018261097f565b50505b505050565b600082821c905092915050565b6000610a06600019846008026109e8565b1980831691505092915050565b6000610a1f83836109f5565b9150826002028217905092915050565b610a3882610459565b67ffffffffffffffff811115610a5157610a506105c4565b5b610a5b8254610852565b610a668282856109a2565b600060209050601f831160018114610a995760008415610a87578287015190505b610a918582610a13565b865550610af9565b601f198416610aa786610883565b60005b82811015610acf57848901518255600182019150602085019450602081019050610aaa565b86831015610aec5784890151610ae8601f8916826109f5565b8355505b6001600288020188555050505b50505050505056fea2646970667358221220ee21ad9613442649cc538caa5b969e0ce81c0dc44e42e5a167f56244a3c4fe4f64736f6c63430008110033",
  "immutableReferences": {
    "682": [
      {
        "length": 32,
        "start": 644
      },
      {
        "length": 32,
        "start": 779
      }
    ],
    "684": [
      {
        "length": 32,
        "start": 746
      },
      {
        "length": 32,
        "start": 1027
      }
    ],
    "686": [
      {
        "length": 32,
        "start": 812
      },
      {
        "length": 32,
        "start": 1067
      }
    ]
  },
  "source": "// SPDX-License-Identifier: MIT\npragma solidity 0.8.17;\n\n// TODO: Implement access control\n\ncontract Driver {\n\n    string private name;\n    uint256 private immutable i_licenseNo;\n    uint256 private immutable i_NID;\n    uint256 private immutable i_lic_issue_date;\n    uint256 private lic_exp_date;\n    uint16 private score;\n\n    constructor(\n        string memory _name,\n        uint256 NID,\n        uint256 _licenseNo,\n        uint256 issue_date,\n        uint256 exp_date\n    ) {\n        i_NID = NID;\n        name = _name;\n        i_licenseNo = _licenseNo;\n        i_lic_issue_date = issue_date;\n        lic_exp_date = exp_date;\n    }\n\n    function changeName(string memory _name) external {\n        name = _name;\n    }\n\n    function updateScore(uint16 _score) external {\n        score = _score;\n    }\n\n    function updateExpDate(uint256 _lic_exp_date) external {\n        lic_exp_date = _lic_exp_date;\n    }\n\n    function getName() external view returns(string memory) {\n        return name;\n    }\n\n    function getNID() external view returns(uint256) {\n        return i_NID;\n    }\n\n    function getLicNo() external view returns(uint256) {\n        return i_licenseNo;\n    }\n\n    function getLicIssueDate() external view returns(uint256) {\n        return i_lic_issue_date;\n    }\n\n    function getLicExpDate() external view returns(uint256) {\n        return lic_exp_date;\n    }\n\n    function getScore() external view returns(uint16) {\n        return score;\n    }\n\n    function getAllInfo() external view returns(\n        string memory,\n        uint256,\n        uint256,\n        uint256,\n        uint256,\n        uint16\n    ) {\n        return (\n            name,\n            i_NID,\n            i_licenseNo,\n            i_lic_issue_date,\n            lic_exp_date,\n            score\n        );\n    }\n}\n",
  "sourcePath": "C:\\Users\\samin\\Documents\\Projects\\AWT\\TraffiChain\\contracts\\Driver.sol",
  "compiler": {
    "name": "solc",
    "version": "0.8.17+commit.8df45f5f.Emscripten.clang"
  },
  "schemaVersion": "3.4.10",
  "updatedAt": "2022-11-28T05:49:11.847Z",
  "devdoc": {
    "kind": "dev",
    "methods": {},
    "version": 1
  },
  "userdoc": {
    "kind": "user",
    "methods": {},
    "version": 1
  }
}