{
  "contractName": "DriverFactory",
  "abi": [
    {
      "inputs": [
        {
          "internalType": "address",
          "name": "driverWallet",
          "type": "address"
        },
        {
          "internalType": "string",
          "name": "name",
          "type": "string"
        },
        {
          "internalType": "uint256",
          "name": "nid",
          "type": "uint256"
        },
        {
          "internalType": "uint256",
          "name": "licenseNo",
          "type": "uint256"
        },
        {
          "internalType": "uint256",
          "name": "issue_date",
          "type": "uint256"
        },
        {
          "internalType": "uint256",
          "name": "exp_date",
          "type": "uint256"
        }
      ],
      "name": "createNewDriverProfile",
      "outputs": [],
      "stateMutability": "nonpayable",
      "type": "function"
    },
    {
      "inputs": [
        {
          "internalType": "address",
          "name": "driverWallet",
          "type": "address"
        }
      ],
      "name": "getDriverProfile",
      "outputs": [
        {
          "internalType": "address",
          "name": "",
          "type": "address"
        }
      ],
      "stateMutability": "view",
      "type": "function",
      "constant": true
    },
    {
      "inputs": [],
      "name": "getAddress",
      "outputs": [
        {
          "internalType": "address",
          "name": "",
          "type": "address"
        }
      ],
      "stateMutability": "view",
      "type": "function",
      "constant": true
    }
  ],
  "bytecode": "0x608060405234801561001057600080fd5b50611630806100206000396000f3fe60806040523480156200001157600080fd5b5060043610620000465760003560e01c806338cc4831146200004b578063722c7310146200006d578063d10a309614620000a3575b600080fd5b62000055620000c3565b60405162000064919062000251565b60405180910390f35b6200008b6004803603810190620000859190620002b3565b620000cb565b6040516200009a919062000251565b60405180910390f35b620000c16004803603810190620000bb919062000482565b62000133565b005b600030905090565b60008060008373ffffffffffffffffffffffffffffffffffffffff1673ffffffffffffffffffffffffffffffffffffffff16815260200190815260200160002060009054906101000a900473ffffffffffffffffffffffffffffffffffffffff169050919050565b600085858585856040516200014890620001fe565b62000158959493929190620005d7565b604051809103906000f08015801562000175573d6000803e3d6000fd5b509050806000808973ffffffffffffffffffffffffffffffffffffffff1673ffffffffffffffffffffffffffffffffffffffff16815260200190815260200160002060006101000a81548173ffffffffffffffffffffffffffffffffffffffff021916908373ffffffffffffffffffffffffffffffffffffffff16021790555050505050505050565b610fbf806200063c83390190565b600073ffffffffffffffffffffffffffffffffffffffff82169050919050565b600062000239826200020c565b9050919050565b6200024b816200022c565b82525050565b600060208201905062000268600083018462000240565b92915050565b6000604051905090565b600080fd5b600080fd5b6200028d816200022c565b81146200029957600080fd5b50565b600081359050620002ad8162000282565b92915050565b600060208284031215620002cc57620002cb62000278565b5b6000620002dc848285016200029c565b91505092915050565b600080fd5b600080fd5b6000601f19601f8301169050919050565b7f4e487b7100000000000000000000000000000000000000000000000000000000600052604160045260246000fd5b6200033a82620002ef565b810181811067ffffffffffffffff821117156200035c576200035b62000300565b5b80604052505050565b6000620003716200026e565b90506200037f82826200032f565b919050565b600067ffffffffffffffff821115620003a257620003a162000300565b5b620003ad82620002ef565b9050602081019050919050565b82818337600083830152505050565b6000620003e0620003da8462000384565b62000365565b905082815260208101848484011115620003ff57620003fe620002ea565b5b6200040c848285620003ba565b509392505050565b600082601f8301126200042c576200042b620002e5565b5b81356200043e848260208601620003c9565b91505092915050565b6000819050919050565b6200045c8162000447565b81146200046857600080fd5b50565b6000813590506200047c8162000451565b92915050565b60008060008060008060c08789031215620004a257620004a162000278565b5b6000620004b289828a016200029c565b965050602087013567ffffffffffffffff811115620004d657620004d56200027d565b5b620004e489828a0162000414565b9550506040620004f789828a016200046b565b94505060606200050a89828a016200046b565b93505060806200051d89828a016200046b565b92505060a06200053089828a016200046b565b9150509295509295509295565b600081519050919050565b600082825260208201905092915050565b60005b83811015620005795780820151818401526020810190506200055c565b60008484015250505050565b600062000592826200053d565b6200059e818562000548565b9350620005b081856020860162000559565b620005bb81620002ef565b840191505092915050565b620005d18162000447565b82525050565b600060a0820190508181036000830152620005f3818862000585565b9050620006046020830187620005c6565b620006136040830186620005c6565b620006226060830185620005c6565b620006316080830184620005c6565b969550505050505056fe60e06040523480156200001157600080fd5b5060405162000fbf38038062000fbf833981810160405281019062000037919062000241565b8360a08181525050846000908162000050919062000529565b5082608081815250508160c0818152505080600181905550505050505062000610565b6000604051905090565b600080fd5b600080fd5b600080fd5b600080fd5b6000601f19601f8301169050919050565b7f4e487b7100000000000000000000000000000000000000000000000000000000600052604160045260246000fd5b620000dc8262000091565b810181811067ffffffffffffffff82111715620000fe57620000fd620000a2565b5b80604052505050565b60006200011362000073565b9050620001218282620000d1565b919050565b600067ffffffffffffffff821115620001445762000143620000a2565b5b6200014f8262000091565b9050602081019050919050565b60005b838110156200017c5780820151818401526020810190506200015f565b60008484015250505050565b60006200019f620001998462000126565b62000107565b905082815260208101848484011115620001be57620001bd6200008c565b5b620001cb8482856200015c565b509392505050565b600082601f830112620001eb57620001ea62000087565b5b8151620001fd84826020860162000188565b91505092915050565b6000819050919050565b6200021b8162000206565b81146200022757600080fd5b50565b6000815190506200023b8162000210565b92915050565b600080600080600060a0868803121562000260576200025f6200007d565b5b600086015167ffffffffffffffff81111562000281576200028062000082565b5b6200028f88828901620001d3565b9550506020620002a2888289016200022a565b9450506040620002b5888289016200022a565b9350506060620002c8888289016200022a565b9250506080620002db888289016200022a565b9150509295509295909350565b600081519050919050565b7f4e487b7100000000000000000000000000000000000000000000000000000000600052602260045260246000fd5b600060028204905060018216806200033b57607f821691505b602082108103620003515762000350620002f3565b5b50919050565b60008190508160005260206000209050919050565b60006020601f8301049050919050565b600082821b905092915050565b600060088302620003bb7fffffffffffffffffffffffffffffffffffffffffffffffffffffffffffffffff826200037c565b620003c786836200037c565b95508019841693508086168417925050509392505050565b6000819050919050565b60006200040a62000404620003fe8462000206565b620003df565b62000206565b9050919050565b6000819050919050565b6200042683620003e9565b6200043e620004358262000411565b84845462000389565b825550505050565b600090565b6200045562000446565b620004628184846200041b565b505050565b5b818110156200048a576200047e6000826200044b565b60018101905062000468565b5050565b601f821115620004d957620004a38162000357565b620004ae846200036c565b81016020851015620004be578190505b620004d6620004cd856200036c565b83018262000467565b50505b505050565b600082821c905092915050565b6000620004fe60001984600802620004de565b1980831691505092915050565b6000620005198383620004eb565b9150826002028217905092915050565b6200053482620002e8565b67ffffffffffffffff81111562000550576200054f620000a2565b5b6200055c825462000322565b620005698282856200048e565b600060209050601f831160018114620005a157600084156200058c578287015190505b6200059885826200050b565b86555062000608565b601f198416620005b18662000357565b60005b82811015620005db57848901518255600182019150602085019450602081019050620005b4565b86831015620005fb5784890151620005f7601f891682620004eb565b8355505b6001600288020188555050505b505050505050565b60805160a05160c05161097f6200064060003960006102db015260006102b301526000610256015261097f6000f3fe608060405234801561001057600080fd5b50600436106100935760003560e01c80638c64b1f2116100665780638c64b1f21461010c578063afd820671461012a578063d8c4661c14610148578063e90bf00f14610166578063f92973c21461018457610093565b806317d7de7c1461009857806317fd2967146100b65780631f810d0e146100d25780635353a2d8146100f0575b600080fd5b6100a06101a0565b6040516100ad9190610399565b60405180910390f35b6100d060048036038101906100cb9190610409565b610232565b005b6100da610252565b6040516100e7919061044f565b60405180910390f35b61010a6004803603810190610105919061059f565b61027a565b005b61011461028d565b604051610121919061044f565b60405180910390f35b610132610297565b60405161013f91906105f7565b60405180910390f35b6101506102af565b60405161015d919061044f565b60405180910390f35b61016e6102d7565b60405161017b919061044f565b60405180910390f35b61019e6004803603810190610199919061063e565b6102ff565b005b6060600080546101af9061069a565b80601f01602080910402602001604051908101604052809291908181526020018280546101db9061069a565b80156102285780601f106101fd57610100808354040283529160200191610228565b820191906000526020600020905b81548152906001019060200180831161020b57829003601f168201915b5050505050905090565b80600260006101000a81548161ffff021916908361ffff16021790555050565b60007f0000000000000000000000000000000000000000000000000000000000000000905090565b80600090816102899190610877565b5050565b6000600154905090565b6000600260009054906101000a900461ffff16905090565b60007f0000000000000000000000000000000000000000000000000000000000000000905090565b60007f0000000000000000000000000000000000000000000000000000000000000000905090565b8060018190555050565b600081519050919050565b600082825260208201905092915050565b60005b83811015610343578082015181840152602081019050610328565b60008484015250505050565b6000601f19601f8301169050919050565b600061036b82610309565b6103758185610314565b9350610385818560208601610325565b61038e8161034f565b840191505092915050565b600060208201905081810360008301526103b38184610360565b905092915050565b6000604051905090565b600080fd5b600080fd5b600061ffff82169050919050565b6103e6816103cf565b81146103f157600080fd5b50565b600081359050610403816103dd565b92915050565b60006020828403121561041f5761041e6103c5565b5b600061042d848285016103f4565b91505092915050565b6000819050919050565b61044981610436565b82525050565b60006020820190506104646000830184610440565b92915050565b600080fd5b600080fd5b7f4e487b7100000000000000000000000000000000000000000000000000000000600052604160045260246000fd5b6104ac8261034f565b810181811067ffffffffffffffff821117156104cb576104ca610474565b5b80604052505050565b60006104de6103bb565b90506104ea82826104a3565b919050565b600067ffffffffffffffff82111561050a57610509610474565b5b6105138261034f565b9050602081019050919050565b82818337600083830152505050565b600061054261053d846104ef565b6104d4565b90508281526020810184848401111561055e5761055d61046f565b5b610569848285610520565b509392505050565b600082601f8301126105865761058561046a565b5b813561059684826020860161052f565b91505092915050565b6000602082840312156105b5576105b46103c5565b5b600082013567ffffffffffffffff8111156105d3576105d26103ca565b5b6105df84828501610571565b91505092915050565b6105f1816103cf565b82525050565b600060208201905061060c60008301846105e8565b92915050565b61061b81610436565b811461062657600080fd5b50565b60008135905061063881610612565b92915050565b600060208284031215610654576106536103c5565b5b600061066284828501610629565b91505092915050565b7f4e487b7100000000000000000000000000000000000000000000000000000000600052602260045260246000fd5b600060028204905060018216806106b257607f821691505b6020821081036106c5576106c461066b565b5b50919050565b60008190508160005260206000209050919050565b60006020601f8301049050919050565b600082821b905092915050565b60006008830261072d7fffffffffffffffffffffffffffffffffffffffffffffffffffffffffffffffff826106f0565b61073786836106f0565b95508019841693508086168417925050509392505050565b6000819050919050565b600061077461076f61076a84610436565b61074f565b610436565b9050919050565b6000819050919050565b61078e83610759565b6107a261079a8261077b565b8484546106fd565b825550505050565b600090565b6107b76107aa565b6107c2818484610785565b505050565b5b818110156107e6576107db6000826107af565b6001810190506107c8565b5050565b601f82111561082b576107fc816106cb565b610805846106e0565b81016020851015610814578190505b610828610820856106e0565b8301826107c7565b50505b505050565b600082821c905092915050565b600061084e60001984600802610830565b1980831691505092915050565b6000610867838361083d565b9150826002028217905092915050565b61088082610309565b67ffffffffffffffff81111561089957610898610474565b5b6108a3825461069a565b6108ae8282856107ea565b600060209050601f8311600181146108e157600084156108cf578287015190505b6108d9858261085b565b865550610941565b601f1984166108ef866106cb565b60005b82811015610917578489015182556001820191506020850194506020810190506108f2565b868310156109345784890151610930601f89168261083d565b8355505b6001600288020188555050505b50505050505056fea264697066735822122067bd04281173b61b39a57624e94700086dfbd10bebd48b85eb7df9fa2aed34c764736f6c63430008110033a2646970667358221220d3589272d69d8448454f9d3f6c059c4b4df5be6b791fd039ebe85f83fb4b246c64736f6c63430008110033",
  "immutableReferences": {},
  "source": "// SPDX-License-Identifier: MIT\npragma solidity 0.8.17;\n\nimport \"./Driver.sol\";\n\ncontract DriverFactory {\n\n    mapping(address => address) private driverWalletToProfile;\n\n    function createNewDriverProfile(\n        address driverWallet,\n        string memory name,\n        uint256 nid,\n        uint256 licenseNo,\n        uint256 issue_date,\n        uint256 exp_date\n    ) external\n    {\n        Driver driver = new Driver(\n            name,\n            nid,\n            licenseNo,\n            issue_date,\n            exp_date\n        );\n\n        driverWalletToProfile[driverWallet] = address(driver);\n    }\n\n    function getDriverProfile(address driverWallet) external view returns(address) {\n        return driverWalletToProfile[driverWallet];\n    }\n\n    function getAddress() external view returns(address) {\n        return address(this);\n    }\n}\n",
  "sourcePath": "C:\\Users\\samin\\Documents\\Projects\\AWT\\TraffiChain\\contracts\\DriverFactory.sol",
  "compiler": {
    "name": "solc",
    "version": "0.8.17+commit.8df45f5f.Emscripten.clang"
  },
  "schemaVersion": "3.4.10",
  "updatedAt": "2022-11-04T14:12:13.582Z",
  "networkType": "ethereum",
  "devdoc": {
    "kind": "dev",
    "methods": {},
    "version": 1
  },
  "userdoc": {
    "kind": "user",
    "methods": {},
    "version": 1
  }
}