{
  "contractName": "Infractions",
  "abi": [
    {
      "inputs": [
        {
          "internalType": "uint16",
          "name": "infraction",
          "type": "uint16"
        },
        {
          "internalType": "uint256",
          "name": "fine",
          "type": "uint256"
        },
        {
          "internalType": "string",
          "name": "description",
          "type": "string"
        }
      ],
      "name": "addInfraction",
      "outputs": [],
      "stateMutability": "nonpayable",
      "type": "function"
    },
    {
      "inputs": [
        {
          "internalType": "uint16",
          "name": "infraction",
          "type": "uint16"
        }
      ],
      "name": "getInfractionFine",
      "outputs": [
        {
          "internalType": "uint256",
          "name": "",
          "type": "uint256"
        }
      ],
      "stateMutability": "view",
      "type": "function",
      "constant": true
    },
    {
      "inputs": [
        {
          "internalType": "uint16",
          "name": "infraction",
          "type": "uint16"
        }
      ],
      "name": "getInfractionDescription",
      "outputs": [
        {
          "internalType": "string",
          "name": "",
          "type": "string"
        }
      ],
      "stateMutability": "view",
      "type": "function",
      "constant": true
    },
    {
      "inputs": [
        {
          "internalType": "uint16[]",
          "name": "infractionList",
          "type": "uint16[]"
        }
      ],
      "name": "calculateTotalFine",
      "outputs": [
        {
          "internalType": "uint256",
          "name": "",
          "type": "uint256"
        }
      ],
      "stateMutability": "view",
      "type": "function",
      "constant": true
    }
  ],
  "bytecode": "0x608060405234801561001057600080fd5b50610abd806100206000396000f3fe608060405234801561001057600080fd5b506004361061004c5760003560e01c80630de637a5146100515780635af5f529146100815780635cbcd4c1146100b1578063ad97bbef146100e1575b600080fd5b61006b600480360381019061006691906102db565b6100fd565b6040516100789190610398565b60405180910390f35b61009b600480360381019061009691906102db565b6101aa565b6040516100a891906103d3565b60405180910390f35b6100cb60048036038101906100c69190610536565b6101ce565b6040516100d891906103d3565b60405180910390f35b6100fb60048036038101906100f69190610660565b610240565b005b6060600160008361ffff1661ffff1681526020019081526020016000208054610125906106fe565b80601f0160208091040260200160405190810160405280929190818152602001828054610151906106fe565b801561019e5780601f106101735761010080835404028352916020019161019e565b820191906000526020600020905b81548152906001019060200180831161018157829003601f168201915b50505050509050919050565b60008060008361ffff1661ffff168152602001908152602001600020549050919050565b6000806000905060005b8351811015610236576000808583815181106101f7576101f661072f565b5b602002602001015161ffff1661ffff1681526020019081526020016000205482610221919061078d565b9150808061022e906107c1565b9150506101d8565b5080915050919050565b816000808561ffff1661ffff1681526020019081526020016000208190555080600160008561ffff1661ffff168152602001908152602001600020908161028791906109b5565b50505050565b6000604051905090565b600080fd5b600080fd5b600061ffff82169050919050565b6102b8816102a1565b81146102c357600080fd5b50565b6000813590506102d5816102af565b92915050565b6000602082840312156102f1576102f0610297565b5b60006102ff848285016102c6565b91505092915050565b600081519050919050565b600082825260208201905092915050565b60005b83811015610342578082015181840152602081019050610327565b60008484015250505050565b6000601f19601f8301169050919050565b600061036a82610308565b6103748185610313565b9350610384818560208601610324565b61038d8161034e565b840191505092915050565b600060208201905081810360008301526103b2818461035f565b905092915050565b6000819050919050565b6103cd816103ba565b82525050565b60006020820190506103e860008301846103c4565b92915050565b600080fd5b7f4e487b7100000000000000000000000000000000000000000000000000000000600052604160045260246000fd5b61042b8261034e565b810181811067ffffffffffffffff8211171561044a576104496103f3565b5b80604052505050565b600061045d61028d565b90506104698282610422565b919050565b600067ffffffffffffffff821115610489576104886103f3565b5b602082029050602081019050919050565b600080fd5b60006104b26104ad8461046e565b610453565b905080838252602082019050602084028301858111156104d5576104d461049a565b5b835b818110156104fe57806104ea88826102c6565b8452602084019350506020810190506104d7565b5050509392505050565b600082601f83011261051d5761051c6103ee565b5b813561052d84826020860161049f565b91505092915050565b60006020828403121561054c5761054b610297565b5b600082013567ffffffffffffffff81111561056a5761056961029c565b5b61057684828501610508565b91505092915050565b610588816103ba565b811461059357600080fd5b50565b6000813590506105a58161057f565b92915050565b600080fd5b600067ffffffffffffffff8211156105cb576105ca6103f3565b5b6105d48261034e565b9050602081019050919050565b82818337600083830152505050565b60006106036105fe846105b0565b610453565b90508281526020810184848401111561061f5761061e6105ab565b5b61062a8482856105e1565b509392505050565b600082601f830112610647576106466103ee565b5b81356106578482602086016105f0565b91505092915050565b60008060006060848603121561067957610678610297565b5b6000610687868287016102c6565b935050602061069886828701610596565b925050604084013567ffffffffffffffff8111156106b9576106b861029c565b5b6106c586828701610632565b9150509250925092565b7f4e487b7100000000000000000000000000000000000000000000000000000000600052602260045260246000fd5b6000600282049050600182168061071657607f821691505b602082108103610729576107286106cf565b5b50919050565b7f4e487b7100000000000000000000000000000000000000000000000000000000600052603260045260246000fd5b7f4e487b7100000000000000000000000000000000000000000000000000000000600052601160045260246000fd5b6000610798826103ba565b91506107a3836103ba565b92508282019050808211156107bb576107ba61075e565b5b92915050565b60006107cc826103ba565b91507fffffffffffffffffffffffffffffffffffffffffffffffffffffffffffffffff82036107fe576107fd61075e565b5b600182019050919050565b60008190508160005260206000209050919050565b60006020601f8301049050919050565b600082821b905092915050565b60006008830261086b7fffffffffffffffffffffffffffffffffffffffffffffffffffffffffffffffff8261082e565b610875868361082e565b95508019841693508086168417925050509392505050565b6000819050919050565b60006108b26108ad6108a8846103ba565b61088d565b6103ba565b9050919050565b6000819050919050565b6108cc83610897565b6108e06108d8826108b9565b84845461083b565b825550505050565b600090565b6108f56108e8565b6109008184846108c3565b505050565b5b81811015610924576109196000826108ed565b600181019050610906565b5050565b601f8211156109695761093a81610809565b6109438461081e565b81016020851015610952578190505b61096661095e8561081e565b830182610905565b50505b505050565b600082821c905092915050565b600061098c6000198460080261096e565b1980831691505092915050565b60006109a5838361097b565b9150826002028217905092915050565b6109be82610308565b67ffffffffffffffff8111156109d7576109d66103f3565b5b6109e182546106fe565b6109ec828285610928565b600060209050601f831160018114610a1f5760008415610a0d578287015190505b610a178582610999565b865550610a7f565b601f198416610a2d86610809565b60005b82811015610a5557848901518255600182019150602085019450602081019050610a30565b86831015610a725784890151610a6e601f89168261097b565b8355505b6001600288020188555050505b50505050505056fea26469706673582212209ad536f3485d4eafc3f38c097abfe6871445f44fa267f943fb44de075bd763ff64736f6c63430008110033",
  "immutableReferences": {},
  "source": "// SPDX-License-Identifier: MIT\npragma solidity 0.8.17;\n\n// errors\n// error Ticket__inactive();\n// error Ticket__NoJudgeAssigned();\n\n// TODO: Implement access control and errors\n\n/// @title Infractions\n/// @author Samin Yaser\n/// @notice Infraction database\ncontract Infractions {\n\n    mapping (uint16 => uint256) private infractionToFine;\n    mapping (uint16 => string) private infractionToDescription;\n\n    function addInfraction(uint16 infraction, uint256 fine, string memory description) external {\n        infractionToFine[infraction] = fine;\n        infractionToDescription[infraction] = description;\n    }\n\n    function getInfractionFine(uint16 infraction) external view returns(uint256) {\n        return infractionToFine[infraction];\n    }\n\n    function getInfractionDescription(uint16 infraction) external view returns(string memory) {\n        return infractionToDescription[infraction];\n    }\n\n    function calculateTotalFine(uint16[] memory infractionList) external view returns(uint256) {\n        uint256 totalFine = 0;\n        for (uint256 i = 0; i < infractionList.length; i++) {\n            totalFine += infractionToFine[infractionList[i]];\n        }\n        return totalFine;\n    }\n}\n",
  "sourcePath": "C:\\Users\\samin\\Documents\\Projects\\AWT\\TraffiChain\\contracts\\Infractions.sol",
  "compiler": {
    "name": "solc",
    "version": "0.8.17+commit.8df45f5f.Emscripten.clang"
  },
  "schemaVersion": "3.4.10",
  "updatedAt": "2022-11-04T13:23:29.288Z",
  "networkType": "ethereum",
  "devdoc": {
    "author": "Samin Yaser",
    "kind": "dev",
    "methods": {},
    "title": "Infractions",
    "version": 1
  },
  "userdoc": {
    "kind": "user",
    "methods": {},
    "notice": "Infraction database",
    "version": 1
  }
}