{
  "contractName": "Infractions",
  "abi": [
    {
      "inputs": [
        {
          "internalType": "uint16",
          "name": "infraction",
          "type": "uint16"
        },
        {
          "internalType": "uint256",
          "name": "fine",
          "type": "uint256"
        },
        {
          "internalType": "string",
          "name": "description",
          "type": "string"
        }
      ],
      "name": "addInfraction",
      "outputs": [],
      "stateMutability": "nonpayable",
      "type": "function"
    },
    {
      "inputs": [
        {
          "internalType": "uint16",
          "name": "infraction",
          "type": "uint16"
        }
      ],
      "name": "getInfractionFine",
      "outputs": [
        {
          "internalType": "uint256",
          "name": "",
          "type": "uint256"
        }
      ],
      "stateMutability": "view",
      "type": "function",
      "constant": true
    },
    {
      "inputs": [
        {
          "internalType": "uint16",
          "name": "infraction",
          "type": "uint16"
        }
      ],
      "name": "getInfractionDescription",
      "outputs": [
        {
          "internalType": "string",
          "name": "",
          "type": "string"
        }
      ],
      "stateMutability": "view",
      "type": "function",
      "constant": true
    },
    {
      "inputs": [
        {
          "internalType": "uint16[]",
          "name": "infractionList",
          "type": "uint16[]"
        }
      ],
      "name": "calculateTotalFine",
      "outputs": [
        {
          "internalType": "uint256",
          "name": "",
          "type": "uint256"
        }
      ],
      "stateMutability": "view",
      "type": "function",
      "constant": true
    }
  ],
  "bytecode": "0x608060405234801561001057600080fd5b50610ac3806100206000396000f3fe608060405234801561001057600080fd5b506004361061004c5760003560e01c80630de637a5146100515780635af5f529146100815780635cbcd4c1146100b1578063ad97bbef146100e1575b600080fd5b61006b600480360381019061006691906102e1565b6100fd565b604051610078919061039e565b60405180910390f35b61009b600480360381019061009691906102e1565b6101aa565b6040516100a891906103d9565b60405180910390f35b6100cb60048036038101906100c6919061053c565b6101ce565b6040516100d891906103d9565b60405180910390f35b6100fb60048036038101906100f69190610666565b610246565b005b6060600160008361ffff1661ffff168152602001908152602001600020805461012590610704565b80601f016020809104026020016040519081016040528092919081815260200182805461015190610704565b801561019e5780601f106101735761010080835404028352916020019161019e565b820191906000526020600020905b81548152906001019060200180831161018157829003601f168201915b50505050509050919050565b60008060008361ffff1661ffff168152602001908152602001600020549050919050565b6000806000905060008351905060005b8181101561023b576000808683815181106101fc576101fb610735565b5b602002602001015161ffff1661ffff16815260200190815260200160002054836102269190610793565b92508080610233906107c7565b9150506101de565b508192505050919050565b816000808561ffff1661ffff1681526020019081526020016000208190555080600160008561ffff1661ffff168152602001908152602001600020908161028d91906109bb565b50505050565b6000604051905090565b600080fd5b600080fd5b600061ffff82169050919050565b6102be816102a7565b81146102c957600080fd5b50565b6000813590506102db816102b5565b92915050565b6000602082840312156102f7576102f661029d565b5b6000610305848285016102cc565b91505092915050565b600081519050919050565b600082825260208201905092915050565b60005b8381101561034857808201518184015260208101905061032d565b60008484015250505050565b6000601f19601f8301169050919050565b60006103708261030e565b61037a8185610319565b935061038a81856020860161032a565b61039381610354565b840191505092915050565b600060208201905081810360008301526103b88184610365565b905092915050565b6000819050919050565b6103d3816103c0565b82525050565b60006020820190506103ee60008301846103ca565b92915050565b600080fd5b7f4e487b7100000000000000000000000000000000000000000000000000000000600052604160045260246000fd5b61043182610354565b810181811067ffffffffffffffff821117156104505761044f6103f9565b5b80604052505050565b6000610463610293565b905061046f8282610428565b919050565b600067ffffffffffffffff82111561048f5761048e6103f9565b5b602082029050602081019050919050565b600080fd5b60006104b86104b384610474565b610459565b905080838252602082019050602084028301858111156104db576104da6104a0565b5b835b8181101561050457806104f088826102cc565b8452602084019350506020810190506104dd565b5050509392505050565b600082601f830112610523576105226103f4565b5b81356105338482602086016104a5565b91505092915050565b6000602082840312156105525761055161029d565b5b600082013567ffffffffffffffff8111156105705761056f6102a2565b5b61057c8482850161050e565b91505092915050565b61058e816103c0565b811461059957600080fd5b50565b6000813590506105ab81610585565b92915050565b600080fd5b600067ffffffffffffffff8211156105d1576105d06103f9565b5b6105da82610354565b9050602081019050919050565b82818337600083830152505050565b6000610609610604846105b6565b610459565b905082815260208101848484011115610625576106246105b1565b5b6106308482856105e7565b509392505050565b600082601f83011261064d5761064c6103f4565b5b813561065d8482602086016105f6565b91505092915050565b60008060006060848603121561067f5761067e61029d565b5b600061068d868287016102cc565b935050602061069e8682870161059c565b925050604084013567ffffffffffffffff8111156106bf576106be6102a2565b5b6106cb86828701610638565b9150509250925092565b7f4e487b7100000000000000000000000000000000000000000000000000000000600052602260045260246000fd5b6000600282049050600182168061071c57607f821691505b60208210810361072f5761072e6106d5565b5b50919050565b7f4e487b7100000000000000000000000000000000000000000000000000000000600052603260045260246000fd5b7f4e487b7100000000000000000000000000000000000000000000000000000000600052601160045260246000fd5b600061079e826103c0565b91506107a9836103c0565b92508282019050808211156107c1576107c0610764565b5b92915050565b60006107d2826103c0565b91507fffffffffffffffffffffffffffffffffffffffffffffffffffffffffffffffff820361080457610803610764565b5b600182019050919050565b60008190508160005260206000209050919050565b60006020601f8301049050919050565b600082821b905092915050565b6000600883026108717fffffffffffffffffffffffffffffffffffffffffffffffffffffffffffffffff82610834565b61087b8683610834565b95508019841693508086168417925050509392505050565b6000819050919050565b60006108b86108b36108ae846103c0565b610893565b6103c0565b9050919050565b6000819050919050565b6108d28361089d565b6108e66108de826108bf565b848454610841565b825550505050565b600090565b6108fb6108ee565b6109068184846108c9565b505050565b5b8181101561092a5761091f6000826108f3565b60018101905061090c565b5050565b601f82111561096f576109408161080f565b61094984610824565b81016020851015610958578190505b61096c61096485610824565b83018261090b565b50505b505050565b600082821c905092915050565b600061099260001984600802610974565b1980831691505092915050565b60006109ab8383610981565b9150826002028217905092915050565b6109c48261030e565b67ffffffffffffffff8111156109dd576109dc6103f9565b5b6109e78254610704565b6109f282828561092e565b600060209050601f831160018114610a255760008415610a13578287015190505b610a1d858261099f565b865550610a85565b601f198416610a338661080f565b60005b82811015610a5b57848901518255600182019150602085019450602081019050610a36565b86831015610a785784890151610a74601f891682610981565b8355505b6001600288020188555050505b50505050505056fea2646970667358221220dc2075543ad8015d3d863288513acf1642da37176b7cfdb6b2ad05cf91127c6564736f6c63430008110033",
  "immutableReferences": {},
  "source": "// SPDX-License-Identifier: MIT\npragma solidity 0.8.17;\n\n// errors\n// error Ticket__inactive();\n// error Ticket__NoJudgeAssigned();\n\n// TODO: Implement access control and errors\n\n/// @title Infractions\n/// @author Samin Yaser\n/// @notice Infraction database\ncontract Infractions {\n\n    mapping (uint16 => uint256) private infractionToFine;\n    mapping (uint16 => string) private infractionToDescription;\n\n    function addInfraction(uint16 infraction, uint256 fine, string memory description) external {\n        infractionToFine[infraction] = fine;\n        infractionToDescription[infraction] = description;\n    }\n\n    function getInfractionFine(uint16 infraction) external view returns(uint256) {\n        return infractionToFine[infraction];\n    }\n\n    function getInfractionDescription(uint16 infraction) external view returns(string memory) {\n        return infractionToDescription[infraction];\n    }\n\n    function calculateTotalFine(uint16[] memory infractionList) external view returns(uint256) {\n        uint256 totalFine = 0;\n        uint256 len = infractionList.length;\n        for (uint256 i = 0; i < len; i++) {\n            totalFine += infractionToFine[infractionList[i]];\n        }\n        return totalFine;\n    }\n}\n",
  "sourcePath": "C:\\Users\\samin\\Documents\\Projects\\AWT\\TraffiChain\\contracts\\Infractions.sol",
  "compiler": {
    "name": "solc",
    "version": "0.8.17+commit.8df45f5f.Emscripten.clang"
  },
  "schemaVersion": "3.4.10",
  "updatedAt": "2022-11-28T05:49:24.181Z",
  "networkType": "ethereum",
  "devdoc": {
    "author": "Samin Yaser",
    "kind": "dev",
    "methods": {},
    "title": "Infractions",
    "version": 1
  },
  "userdoc": {
    "kind": "user",
    "methods": {},
    "notice": "Infraction database",
    "version": 1
  }
}