{
  "contractName": "JudgeFactory",
  "abi": [
    {
      "inputs": [],
      "stateMutability": "nonpayable",
      "type": "constructor"
    },
    {
      "inputs": [
        {
          "internalType": "string",
          "name": "name",
          "type": "string"
        },
        {
          "internalType": "address",
          "name": "_address",
          "type": "address"
        }
      ],
      "name": "createNewJudge",
      "outputs": [],
      "stateMutability": "nonpayable",
      "type": "function"
    },
    {
      "inputs": [],
      "name": "getNextJudge",
      "outputs": [
        {
          "internalType": "address",
          "name": "",
          "type": "address"
        }
      ],
      "stateMutability": "view",
      "type": "function",
      "constant": true
    },
    {
      "inputs": [
        {
          "internalType": "address",
          "name": "ticket",
          "type": "address"
        },
        {
          "internalType": "address",
          "name": "judge",
          "type": "address"
        }
      ],
      "name": "assignJudgeToTicket",
      "outputs": [],
      "stateMutability": "nonpayable",
      "type": "function"
    },
    {
      "inputs": [
        {
          "internalType": "address",
          "name": "judge",
          "type": "address"
        }
      ],
      "name": "isValidJudge",
      "outputs": [
        {
          "internalType": "bool",
          "name": "",
          "type": "bool"
        }
      ],
      "stateMutability": "view",
      "type": "function",
      "constant": true
    },
    {
      "inputs": [
        {
          "internalType": "address",
          "name": "judge",
          "type": "address"
        },
        {
          "internalType": "address",
          "name": "ticket",
          "type": "address"
        }
      ],
      "name": "removeJudgeFromTicket",
      "outputs": [],
      "stateMutability": "nonpayable",
      "type": "function"
    },
    {
      "inputs": [
        {
          "internalType": "address",
          "name": "judgeWallet",
          "type": "address"
        }
      ],
      "name": "getJudgeProfile",
      "outputs": [
        {
          "internalType": "address",
          "name": "",
          "type": "address"
        }
      ],
      "stateMutability": "view",
      "type": "function",
      "constant": true
    },
    {
      "inputs": [
        {
          "internalType": "address",
          "name": "judgeWallet",
          "type": "address"
        }
      ],
      "name": "getJudgeTickets",
      "outputs": [
        {
          "internalType": "address[]",
          "name": "",
          "type": "address[]"
        }
      ],
      "stateMutability": "view",
      "type": "function",
      "constant": true
    },
    {
      "inputs": [
        {
          "internalType": "address",
          "name": "judgeWallet",
          "type": "address"
        }
      ],
      "name": "getActiveTickets",
      "outputs": [
        {
          "internalType": "address[]",
          "name": "",
          "type": "address[]"
        }
      ],
      "stateMutability": "view",
      "type": "function",
      "constant": true
    }
  ],
  "bytecode": "0x608060405234801561001057600080fd5b506000600381905550611886806100286000396000f3fe60806040523480156200001157600080fd5b5060043610620000945760003560e01c8063881d1dc21162000063578063881d1dc21462000145578063b84296dd1462000167578063ce2c5d79146200019d578063f272e23614620001d35762000094565b80630ca20a9f146200009957806314fa96c814620000cf578063750502ba14620001055780638558fe441462000125575b600080fd5b620000b76004803603810190620000b1919062000ca8565b620001f3565b604051620000c6919062000ceb565b60405180910390f35b620000ed6004803603810190620000e7919062000ca8565b6200025b565b604051620000fc919062000dd6565b60405180910390f35b6200012360048036038101906200011d919062000f5c565b620004bd565b005b6200014360048036038101906200013d919062000fc2565b620005df565b005b6200014f620008b6565b6040516200015e919062000ceb565b60405180910390f35b6200018560048036038101906200017f919062000ca8565b62000901565b60405162000194919062001026565b60405180910390f35b620001bb6004803603810190620001b5919062000ca8565b62000998565b604051620001ca919062000dd6565b60405180910390f35b620001f16004803603810190620001eb919062000fc2565b62000a67565b005b60008060008373ffffffffffffffffffffffffffffffffffffffff1673ffffffffffffffffffffffffffffffffffffffff16815260200190815260200160002060009054906101000a900473ffffffffffffffffffffffffffffffffffffffff169050919050565b60606000600160008473ffffffffffffffffffffffffffffffffffffffff1673ffffffffffffffffffffffffffffffffffffffff1681526020019081526020016000208054806020026020016040519081016040528092919081815260200182805480156200032057602002820191906000526020600020905b8160009054906101000a900473ffffffffffffffffffffffffffffffffffffffff1673ffffffffffffffffffffffffffffffffffffffff1681526020019060010190808311620002d5575b505050505090506000815167ffffffffffffffff81111562000347576200034662000e15565b5b604051908082528060200260200182016040528015620003765781602001602082028036833780820191505090505b5090506000805b8351811015620004b1578381815181106200039d576200039c62001043565b5b602002602001015173ffffffffffffffffffffffffffffffffffffffff166309a483436040518163ffffffff1660e01b8152600401602060405180830381865afa158015620003f0573d6000803e3d6000fd5b505050506040513d601f19601f82011682018060405250810190620004169190620010a3565b156200049b5783818151811062000432576200043162001043565b5b602002602001015183838151811062000450576200044f62001043565b5b602002602001019073ffffffffffffffffffffffffffffffffffffffff16908173ffffffffffffffffffffffffffffffffffffffff1681525050818062000497906200110e565b9250505b8080620004a8906200110e565b9150506200037d565b50819350505050919050565b600082604051620004ce9062000c21565b620004da9190620011e4565b604051809103906000f080158015620004f7573d6000803e3d6000fd5b509050806000808473ffffffffffffffffffffffffffffffffffffffff1673ffffffffffffffffffffffffffffffffffffffff16815260200190815260200160002060006101000a81548173ffffffffffffffffffffffffffffffffffffffff021916908373ffffffffffffffffffffffffffffffffffffffff1602179055506002829080600181540180825580915050600190039060005260206000200160009091909190916101000a81548173ffffffffffffffffffffffffffffffffffffffff021916908373ffffffffffffffffffffffffffffffffffffffff160217905550505050565b6000600160008473ffffffffffffffffffffffffffffffffffffffff1673ffffffffffffffffffffffffffffffffffffffff16815260200190815260200160002080549050905060005b81811015620008b0578273ffffffffffffffffffffffffffffffffffffffff16600160008673ffffffffffffffffffffffffffffffffffffffff1673ffffffffffffffffffffffffffffffffffffffff16815260200190815260200160002082815481106200069d576200069c62001043565b5b9060005260206000200160009054906101000a900473ffffffffffffffffffffffffffffffffffffffff1673ffffffffffffffffffffffffffffffffffffffff16036200089a57600160008573ffffffffffffffffffffffffffffffffffffffff1673ffffffffffffffffffffffffffffffffffffffff16815260200190815260200160002060018362000732919062001208565b8154811062000746576200074562001043565b5b9060005260206000200160009054906101000a900473ffffffffffffffffffffffffffffffffffffffff16600160008673ffffffffffffffffffffffffffffffffffffffff1673ffffffffffffffffffffffffffffffffffffffff1681526020019081526020016000208281548110620007c557620007c462001043565b5b9060005260206000200160006101000a81548173ffffffffffffffffffffffffffffffffffffffff021916908373ffffffffffffffffffffffffffffffffffffffff160217905550600160008573ffffffffffffffffffffffffffffffffffffffff1673ffffffffffffffffffffffffffffffffffffffff1681526020019081526020016000208054806200085f576200085e62001243565b5b6001900381819060005260206000200160006101000a81549073ffffffffffffffffffffffffffffffffffffffff02191690559055620008b0565b8080620008a7906200110e565b91505062000629565b50505050565b6000600260035481548110620008d157620008d062001043565b5b9060005260206000200160009054906101000a900473ffffffffffffffffffffffffffffffffffffffff16905090565b60008073ffffffffffffffffffffffffffffffffffffffff166000808473ffffffffffffffffffffffffffffffffffffffff1673ffffffffffffffffffffffffffffffffffffffff16815260200190815260200160002060009054906101000a900473ffffffffffffffffffffffffffffffffffffffff1673ffffffffffffffffffffffffffffffffffffffff1614159050919050565b6060600160008373ffffffffffffffffffffffffffffffffffffffff1673ffffffffffffffffffffffffffffffffffffffff16815260200190815260200160002080548060200260200160405190810160405280929190818152602001828054801562000a5b57602002820191906000526020600020905b8160009054906101000a900473ffffffffffffffffffffffffffffffffffffffff1673ffffffffffffffffffffffffffffffffffffffff168152602001906001019080831162000a10575b50505050509050919050565b600073ffffffffffffffffffffffffffffffffffffffff166000808373ffffffffffffffffffffffffffffffffffffffff1673ffffffffffffffffffffffffffffffffffffffff16815260200190815260200160002060009054906101000a900473ffffffffffffffffffffffffffffffffffffffff1673ffffffffffffffffffffffffffffffffffffffff160362000b37576040517f08c379a000000000000000000000000000000000000000000000000000000000815260040162000b2e90620012e8565b60405180910390fd5b600160008273ffffffffffffffffffffffffffffffffffffffff1673ffffffffffffffffffffffffffffffffffffffff168152602001908152602001600020829080600181540180825580915050600190039060005260206000200160009091909190916101000a81548173ffffffffffffffffffffffffffffffffffffffff021916908373ffffffffffffffffffffffffffffffffffffffff160217905550600160028054905062000beb919062001208565b6003540362000c0257600060038190555062000c1d565b6003600081548092919062000c17906200110e565b91905055505b5050565b610546806200130b83390190565b6000604051905090565b600080fd5b600080fd5b600073ffffffffffffffffffffffffffffffffffffffff82169050919050565b600062000c708262000c43565b9050919050565b62000c828162000c63565b811462000c8e57600080fd5b50565b60008135905062000ca28162000c77565b92915050565b60006020828403121562000cc15762000cc062000c39565b5b600062000cd18482850162000c91565b91505092915050565b62000ce58162000c63565b82525050565b600060208201905062000d02600083018462000cda565b92915050565b600081519050919050565b600082825260208201905092915050565b6000819050602082019050919050565b62000d3f8162000c63565b82525050565b600062000d53838362000d34565b60208301905092915050565b6000602082019050919050565b600062000d798262000d08565b62000d85818562000d13565b935062000d928362000d24565b8060005b8381101562000dc957815162000dad888262000d45565b975062000dba8362000d5f565b92505060018101905062000d96565b5085935050505092915050565b6000602082019050818103600083015262000df2818462000d6c565b905092915050565b600080fd5b600080fd5b6000601f19601f8301169050919050565b7f4e487b7100000000000000000000000000000000000000000000000000000000600052604160045260246000fd5b62000e4f8262000e04565b810181811067ffffffffffffffff8211171562000e715762000e7062000e15565b5b80604052505050565b600062000e8662000c2f565b905062000e94828262000e44565b919050565b600067ffffffffffffffff82111562000eb75762000eb662000e15565b5b62000ec28262000e04565b9050602081019050919050565b82818337600083830152505050565b600062000ef562000eef8462000e99565b62000e7a565b90508281526020810184848401111562000f145762000f1362000dff565b5b62000f2184828562000ecf565b509392505050565b600082601f83011262000f415762000f4062000dfa565b5b813562000f5384826020860162000ede565b91505092915050565b6000806040838503121562000f765762000f7562000c39565b5b600083013567ffffffffffffffff81111562000f975762000f9662000c3e565b5b62000fa58582860162000f29565b925050602062000fb88582860162000c91565b9150509250929050565b6000806040838503121562000fdc5762000fdb62000c39565b5b600062000fec8582860162000c91565b925050602062000fff8582860162000c91565b9150509250929050565b60008115159050919050565b620010208162001009565b82525050565b60006020820190506200103d600083018462001015565b92915050565b7f4e487b7100000000000000000000000000000000000000000000000000000000600052603260045260246000fd5b6200107d8162001009565b81146200108957600080fd5b50565b6000815190506200109d8162001072565b92915050565b600060208284031215620010bc57620010bb62000c39565b5b6000620010cc848285016200108c565b91505092915050565b7f4e487b7100000000000000000000000000000000000000000000000000000000600052601160045260246000fd5b6000819050919050565b60006200111b8262001104565b91507fffffffffffffffffffffffffffffffffffffffffffffffffffffffffffffffff820362001150576200114f620010d5565b5b600182019050919050565b600081519050919050565b600082825260208201905092915050565b60005b83811015620011975780820151818401526020810190506200117a565b60008484015250505050565b6000620011b0826200115b565b620011bc818562001166565b9350620011ce81856020860162001177565b620011d98162000e04565b840191505092915050565b60006020820190508181036000830152620012008184620011a3565b905092915050565b6000620012158262001104565b9150620012228362001104565b92508282039050818111156200123d576200123c620010d5565b5b92915050565b7f4e487b7100000000000000000000000000000000000000000000000000000000600052603160045260246000fd5b7f4a75646765466163746f72793a204a7564676520646f6573206e6f742065786960008201527f7374000000000000000000000000000000000000000000000000000000000000602082015250565b6000620012d060228362001166565b9150620012dd8262001272565b604082019050919050565b600060208201905081810360008301526200130381620012c1565b905091905056fe608060405234801561001057600080fd5b50604051610546380380610546833981810160405281019061003291906101bd565b80600090816100419190610427565b50506104f9565b6000604051905090565b600080fd5b600080fd5b600080fd5b600080fd5b6000601f19601f8301169050919050565b7f4e487b7100000000000000000000000000000000000000000000000000000000600052604160045260246000fd5b6100af82610066565b810181811067ffffffffffffffff821117156100ce576100cd610077565b5b80604052505050565b60006100e1610048565b90506100ed82826100a6565b919050565b600067ffffffffffffffff82111561010d5761010c610077565b5b61011682610066565b9050602081019050919050565b60005b83811015610141578082015181840152602081019050610126565b60008484015250505050565b600061016061015b846100f2565b6100d7565b90508281526020810184848401111561017c5761017b610061565b5b610187848285610123565b509392505050565b600082601f8301126101a4576101a361005c565b5b81516101b484826020860161014d565b91505092915050565b6000602082840312156101d3576101d2610052565b5b600082015167ffffffffffffffff8111156101f1576101f0610057565b5b6101fd8482850161018f565b91505092915050565b600081519050919050565b7f4e487b7100000000000000000000000000000000000000000000000000000000600052602260045260246000fd5b6000600282049050600182168061025857607f821691505b60208210810361026b5761026a610211565b5b50919050565b60008190508160005260206000209050919050565b60006020601f8301049050919050565b600082821b905092915050565b6000600883026102d37fffffffffffffffffffffffffffffffffffffffffffffffffffffffffffffffff82610296565b6102dd8683610296565b95508019841693508086168417925050509392505050565b6000819050919050565b6000819050919050565b600061032461031f61031a846102f5565b6102ff565b6102f5565b9050919050565b6000819050919050565b61033e83610309565b61035261034a8261032b565b8484546102a3565b825550505050565b600090565b61036761035a565b610372818484610335565b505050565b5b818110156103965761038b60008261035f565b600181019050610378565b5050565b601f8211156103db576103ac81610271565b6103b584610286565b810160208510156103c4578190505b6103d86103d085610286565b830182610377565b50505b505050565b600082821c905092915050565b60006103fe600019846008026103e0565b1980831691505092915050565b600061041783836103ed565b9150826002028217905092915050565b61043082610206565b67ffffffffffffffff81111561044957610448610077565b5b6104538254610240565b61045e82828561039a565b600060209050601f831160018114610491576000841561047f578287015190505b610489858261040b565b8655506104f1565b601f19841661049f86610271565b60005b828110156104c7578489015182556001820191506020850194506020810190506104a2565b868310156104e457848901516104e0601f8916826103ed565b8355505b6001600288020188555050505b505050505050565b603f806105076000396000f3fe6080604052600080fdfea264697066735822122031846e87d0e16c4128efaa2fd042c897596398dd7ab02515c18d76951d18006d64736f6c63430008110033a2646970667358221220811a3d3944ee1ea529ff11b8d1e8440c845095f142cee04cd34c1494fb2cfbe264736f6c63430008110033",
  "immutableReferences": {},
  "source": "// SPDX-License-Identifier: MIT\npragma solidity 0.8.17;\n\nimport \"./Judge.sol\";\nimport \"./Ticket.sol\";\n\ncontract JudgeFactory {\n\n    mapping (address => address) private judgeWalletToProfile;\n    mapping (address => address[]) private JudgeToTickets;\n    address[] private roundRobin;\n    uint256 private nextIndex;\n\n    constructor() {\n        nextIndex = 0;\n    }\n\n    function createNewJudge(\n        string memory name,\n        address _address\n    ) external\n    {\n        Judge judge = new Judge(name);\n\n        judgeWalletToProfile[_address] = address(judge);\n\n        roundRobin.push(_address);\n    }\n\n    function getNextJudge() external view returns(address) {\n        return roundRobin[nextIndex];\n    }\n\n    function assignJudgeToTicket(\n        address ticket,\n        address judge\n    ) external\n    {\n\n        // TODO: Can be optimized with revert\n        require(judgeWalletToProfile[judge] != address(0), \"JudgeFactory: Judge does not exist\");\n\n        JudgeToTickets[judge].push(ticket);\n\n        if(nextIndex == roundRobin.length - 1) {\n            nextIndex = 0;\n        } else {\n            nextIndex++;\n        }\n    }\n\n    function isValidJudge(address judge) external view returns(bool) {\n        return judgeWalletToProfile[judge] != address(0);\n    }\n\n    function removeJudgeFromTicket(\n        address judge,\n        address ticket\n    ) external\n    {\n        uint256 judgeTicketLength = JudgeToTickets[judge].length;\n\n        for (uint256 i = 0; i < judgeTicketLength; i++) {\n            if (JudgeToTickets[judge][i] == ticket) {\n                JudgeToTickets[judge][i] = JudgeToTickets[judge][judgeTicketLength - 1];\n                JudgeToTickets[judge].pop();\n                break;\n            }\n        }\n    }\n\n    function getJudgeProfile(address judgeWallet) external view returns(address) {\n        return judgeWalletToProfile[judgeWallet];\n    }\n\n    function getJudgeTickets(address judgeWallet) external view returns(address[] memory) {\n        return JudgeToTickets[judgeWallet];\n    }\n\n    function getActiveTickets(address judgeWallet) external view returns(address[] memory) {\n        address[] memory tickets = JudgeToTickets[judgeWallet];\n        address[] memory activeTickets = new address[](tickets.length);\n        uint256 activeTicketsLength = 0;\n\n        for (uint256 i = 0; i < tickets.length; i++) {\n            if (Ticket(tickets[i]).isTicketActive()) {\n                activeTickets[activeTicketsLength] = tickets[i];\n                activeTicketsLength++;\n            }\n        }\n\n        return activeTickets;\n    }\n\n}\n",
  "sourcePath": "C:\\Users\\samin\\Documents\\Projects\\AWT\\TraffiChain\\contracts\\JudgeFactory.sol",
  "compiler": {
    "name": "solc",
    "version": "0.8.17+commit.8df45f5f.Emscripten.clang"
  },
  "schemaVersion": "3.4.10",
  "updatedAt": "2022-11-05T06:15:00.012Z",
  "networkType": "ethereum",
  "devdoc": {
    "kind": "dev",
    "methods": {},
    "version": 1
  },
  "userdoc": {
    "kind": "user",
    "methods": {},
    "version": 1
  }
}