{
  "contractName": "JudgeFactory",
  "abi": [
    {
      "inputs": [],
      "stateMutability": "nonpayable",
      "type": "constructor"
    },
    {
      "inputs": [
        {
          "internalType": "string",
          "name": "name",
          "type": "string"
        },
        {
          "internalType": "address",
          "name": "_address",
          "type": "address"
        }
      ],
      "name": "createNewJudge",
      "outputs": [],
      "stateMutability": "nonpayable",
      "type": "function"
    },
    {
      "inputs": [],
      "name": "getNextJudge",
      "outputs": [
        {
          "internalType": "address",
          "name": "",
          "type": "address"
        }
      ],
      "stateMutability": "view",
      "type": "function",
      "constant": true
    },
    {
      "inputs": [
        {
          "internalType": "address",
          "name": "ticket",
          "type": "address"
        },
        {
          "internalType": "address",
          "name": "judge",
          "type": "address"
        }
      ],
      "name": "assignJudgeToTicket",
      "outputs": [],
      "stateMutability": "nonpayable",
      "type": "function"
    },
    {
      "inputs": [
        {
          "internalType": "address",
          "name": "judge",
          "type": "address"
        }
      ],
      "name": "isValidJudge",
      "outputs": [
        {
          "internalType": "bool",
          "name": "",
          "type": "bool"
        }
      ],
      "stateMutability": "view",
      "type": "function",
      "constant": true
    },
    {
      "inputs": [
        {
          "internalType": "address",
          "name": "judge",
          "type": "address"
        },
        {
          "internalType": "address",
          "name": "ticket",
          "type": "address"
        }
      ],
      "name": "removeJudgeFromTicket",
      "outputs": [],
      "stateMutability": "nonpayable",
      "type": "function"
    },
    {
      "inputs": [
        {
          "internalType": "address",
          "name": "judgeWallet",
          "type": "address"
        }
      ],
      "name": "getJudgeProfile",
      "outputs": [
        {
          "internalType": "address",
          "name": "",
          "type": "address"
        }
      ],
      "stateMutability": "view",
      "type": "function",
      "constant": true
    },
    {
      "inputs": [
        {
          "internalType": "address",
          "name": "judgeWallet",
          "type": "address"
        }
      ],
      "name": "getJudgeTickets",
      "outputs": [
        {
          "internalType": "address[]",
          "name": "",
          "type": "address[]"
        }
      ],
      "stateMutability": "view",
      "type": "function",
      "constant": true
    },
    {
      "inputs": [
        {
          "internalType": "address",
          "name": "judge",
          "type": "address"
        }
      ],
      "name": "getAllTickets",
      "outputs": [
        {
          "internalType": "address[]",
          "name": "",
          "type": "address[]"
        }
      ],
      "stateMutability": "view",
      "type": "function",
      "constant": true
    },
    {
      "inputs": [
        {
          "internalType": "address",
          "name": "judgeWallet",
          "type": "address"
        }
      ],
      "name": "getActiveTickets",
      "outputs": [
        {
          "internalType": "address[]",
          "name": "",
          "type": "address[]"
        }
      ],
      "stateMutability": "view",
      "type": "function",
      "constant": true
    }
  ],
  "bytecode": "0x608060405234801561001057600080fd5b506000600381905550611a50806100286000396000f3fe60806040523480156200001157600080fd5b5060043610620000a05760003560e01c8063881d1dc2116200006f578063881d1dc2146200015157806391d18b811462000173578063b84296dd14620001a9578063ce2c5d7914620001df578063f272e236146200021557620000a0565b80630ca20a9f14620000a557806314fa96c814620000db578063750502ba14620001115780638558fe441462000131575b600080fd5b620000c36004803603810190620000bd919062000e72565b62000235565b604051620000d2919062000eb5565b60405180910390f35b620000f96004803603810190620000f3919062000e72565b6200029d565b60405162000108919062000fa0565b60405180910390f35b6200012f600480360381019062000129919062001126565b620005b8565b005b6200014f60048036038101906200014991906200118c565b620006da565b005b6200015b620009b1565b6040516200016a919062000eb5565b60405180910390f35b6200019160048036038101906200018b919062000e72565b620009fc565b604051620001a0919062000fa0565b60405180910390f35b620001c76004803603810190620001c1919062000e72565b62000acb565b604051620001d69190620011f0565b60405180910390f35b620001fd6004803603810190620001f7919062000e72565b62000b62565b6040516200020c919062000fa0565b60405180910390f35b6200023360048036038101906200022d91906200118c565b62000c31565b005b60008060008373ffffffffffffffffffffffffffffffffffffffff1673ffffffffffffffffffffffffffffffffffffffff16815260200190815260200160002060009054906101000a900473ffffffffffffffffffffffffffffffffffffffff169050919050565b60606000600160008473ffffffffffffffffffffffffffffffffffffffff1673ffffffffffffffffffffffffffffffffffffffff1681526020019081526020016000208054806020026020016040519081016040528092919081815260200182805480156200036257602002820191906000526020600020905b8160009054906101000a900473ffffffffffffffffffffffffffffffffffffffff1673ffffffffffffffffffffffffffffffffffffffff168152602001906001019080831162000317575b505050505090506000805b825181101562000433578281815181106200038d576200038c6200120d565b5b602002602001015173ffffffffffffffffffffffffffffffffffffffff166309a483436040518163ffffffff1660e01b8152600401602060405180830381865afa158015620003e0573d6000803e3d6000fd5b505050506040513d601f19601f820116820180604052508101906200040691906200126d565b156200041d5781806200041990620012d8565b9250505b80806200042a90620012d8565b9150506200036d565b5060008167ffffffffffffffff81111562000453576200045262000fdf565b5b604051908082528060200260200182016040528015620004825781602001602082028036833780820191505090505b50905060005b8351811015620005ac57838181518110620004a857620004a76200120d565b5b602002602001015173ffffffffffffffffffffffffffffffffffffffff166309a483436040518163ffffffff1660e01b8152600401602060405180830381865afa158015620004fb573d6000803e3d6000fd5b505050506040513d601f19601f820116820180604052508101906200052191906200126d565b1562000596578381815181106200053d576200053c6200120d565b5b60200260200101518282815181106200055b576200055a6200120d565b5b602002602001019073ffffffffffffffffffffffffffffffffffffffff16908173ffffffffffffffffffffffffffffffffffffffff16815250505b8080620005a390620012d8565b91505062000488565b50809350505050919050565b600082604051620005c99062000deb565b620005d59190620013ae565b604051809103906000f080158015620005f2573d6000803e3d6000fd5b509050806000808473ffffffffffffffffffffffffffffffffffffffff1673ffffffffffffffffffffffffffffffffffffffff16815260200190815260200160002060006101000a81548173ffffffffffffffffffffffffffffffffffffffff021916908373ffffffffffffffffffffffffffffffffffffffff1602179055506002829080600181540180825580915050600190039060005260206000200160009091909190916101000a81548173ffffffffffffffffffffffffffffffffffffffff021916908373ffffffffffffffffffffffffffffffffffffffff160217905550505050565b6000600160008473ffffffffffffffffffffffffffffffffffffffff1673ffffffffffffffffffffffffffffffffffffffff16815260200190815260200160002080549050905060005b81811015620009ab578273ffffffffffffffffffffffffffffffffffffffff16600160008673ffffffffffffffffffffffffffffffffffffffff1673ffffffffffffffffffffffffffffffffffffffff16815260200190815260200160002082815481106200079857620007976200120d565b5b9060005260206000200160009054906101000a900473ffffffffffffffffffffffffffffffffffffffff1673ffffffffffffffffffffffffffffffffffffffff16036200099557600160008573ffffffffffffffffffffffffffffffffffffffff1673ffffffffffffffffffffffffffffffffffffffff1681526020019081526020016000206001836200082d9190620013d2565b815481106200084157620008406200120d565b5b9060005260206000200160009054906101000a900473ffffffffffffffffffffffffffffffffffffffff16600160008673ffffffffffffffffffffffffffffffffffffffff1673ffffffffffffffffffffffffffffffffffffffff1681526020019081526020016000208281548110620008c057620008bf6200120d565b5b9060005260206000200160006101000a81548173ffffffffffffffffffffffffffffffffffffffff021916908373ffffffffffffffffffffffffffffffffffffffff160217905550600160008573ffffffffffffffffffffffffffffffffffffffff1673ffffffffffffffffffffffffffffffffffffffff1681526020019081526020016000208054806200095a57620009596200140d565b5b6001900381819060005260206000200160006101000a81549073ffffffffffffffffffffffffffffffffffffffff02191690559055620009ab565b8080620009a290620012d8565b91505062000724565b50505050565b6000600260035481548110620009cc57620009cb6200120d565b5b9060005260206000200160009054906101000a900473ffffffffffffffffffffffffffffffffffffffff16905090565b6060600160008373ffffffffffffffffffffffffffffffffffffffff1673ffffffffffffffffffffffffffffffffffffffff16815260200190815260200160002080548060200260200160405190810160405280929190818152602001828054801562000abf57602002820191906000526020600020905b8160009054906101000a900473ffffffffffffffffffffffffffffffffffffffff1673ffffffffffffffffffffffffffffffffffffffff168152602001906001019080831162000a74575b50505050509050919050565b60008073ffffffffffffffffffffffffffffffffffffffff166000808473ffffffffffffffffffffffffffffffffffffffff1673ffffffffffffffffffffffffffffffffffffffff16815260200190815260200160002060009054906101000a900473ffffffffffffffffffffffffffffffffffffffff1673ffffffffffffffffffffffffffffffffffffffff1614159050919050565b6060600160008373ffffffffffffffffffffffffffffffffffffffff1673ffffffffffffffffffffffffffffffffffffffff16815260200190815260200160002080548060200260200160405190810160405280929190818152602001828054801562000c2557602002820191906000526020600020905b8160009054906101000a900473ffffffffffffffffffffffffffffffffffffffff1673ffffffffffffffffffffffffffffffffffffffff168152602001906001019080831162000bda575b50505050509050919050565b600073ffffffffffffffffffffffffffffffffffffffff166000808373ffffffffffffffffffffffffffffffffffffffff1673ffffffffffffffffffffffffffffffffffffffff16815260200190815260200160002060009054906101000a900473ffffffffffffffffffffffffffffffffffffffff1673ffffffffffffffffffffffffffffffffffffffff160362000d01576040517f08c379a000000000000000000000000000000000000000000000000000000000815260040162000cf890620014b2565b60405180910390fd5b600160008273ffffffffffffffffffffffffffffffffffffffff1673ffffffffffffffffffffffffffffffffffffffff168152602001908152602001600020829080600181540180825580915050600190039060005260206000200160009091909190916101000a81548173ffffffffffffffffffffffffffffffffffffffff021916908373ffffffffffffffffffffffffffffffffffffffff160217905550600160028054905062000db59190620013d2565b6003540362000dcc57600060038190555062000de7565b6003600081548092919062000de190620012d8565b91905055505b5050565b61054680620014d583390190565b6000604051905090565b600080fd5b600080fd5b600073ffffffffffffffffffffffffffffffffffffffff82169050919050565b600062000e3a8262000e0d565b9050919050565b62000e4c8162000e2d565b811462000e5857600080fd5b50565b60008135905062000e6c8162000e41565b92915050565b60006020828403121562000e8b5762000e8a62000e03565b5b600062000e9b8482850162000e5b565b91505092915050565b62000eaf8162000e2d565b82525050565b600060208201905062000ecc600083018462000ea4565b92915050565b600081519050919050565b600082825260208201905092915050565b6000819050602082019050919050565b62000f098162000e2d565b82525050565b600062000f1d838362000efe565b60208301905092915050565b6000602082019050919050565b600062000f438262000ed2565b62000f4f818562000edd565b935062000f5c8362000eee565b8060005b8381101562000f9357815162000f77888262000f0f565b975062000f848362000f29565b92505060018101905062000f60565b5085935050505092915050565b6000602082019050818103600083015262000fbc818462000f36565b905092915050565b600080fd5b600080fd5b6000601f19601f8301169050919050565b7f4e487b7100000000000000000000000000000000000000000000000000000000600052604160045260246000fd5b620010198262000fce565b810181811067ffffffffffffffff821117156200103b576200103a62000fdf565b5b80604052505050565b60006200105062000df9565b90506200105e82826200100e565b919050565b600067ffffffffffffffff82111562001081576200108062000fdf565b5b6200108c8262000fce565b9050602081019050919050565b82818337600083830152505050565b6000620010bf620010b98462001063565b62001044565b905082815260208101848484011115620010de57620010dd62000fc9565b5b620010eb84828562001099565b509392505050565b600082601f8301126200110b576200110a62000fc4565b5b81356200111d848260208601620010a8565b91505092915050565b6000806040838503121562001140576200113f62000e03565b5b600083013567ffffffffffffffff81111562001161576200116062000e08565b5b6200116f85828601620010f3565b9250506020620011828582860162000e5b565b9150509250929050565b60008060408385031215620011a657620011a562000e03565b5b6000620011b68582860162000e5b565b9250506020620011c98582860162000e5b565b9150509250929050565b60008115159050919050565b620011ea81620011d3565b82525050565b6000602082019050620012076000830184620011df565b92915050565b7f4e487b7100000000000000000000000000000000000000000000000000000000600052603260045260246000fd5b6200124781620011d3565b81146200125357600080fd5b50565b60008151905062001267816200123c565b92915050565b60006020828403121562001286576200128562000e03565b5b6000620012968482850162001256565b91505092915050565b7f4e487b7100000000000000000000000000000000000000000000000000000000600052601160045260246000fd5b6000819050919050565b6000620012e582620012ce565b91507fffffffffffffffffffffffffffffffffffffffffffffffffffffffffffffffff82036200131a57620013196200129f565b5b600182019050919050565b600081519050919050565b600082825260208201905092915050565b60005b838110156200136157808201518184015260208101905062001344565b60008484015250505050565b60006200137a8262001325565b62001386818562001330565b93506200139881856020860162001341565b620013a38162000fce565b840191505092915050565b60006020820190508181036000830152620013ca81846200136d565b905092915050565b6000620013df82620012ce565b9150620013ec83620012ce565b92508282039050818111156200140757620014066200129f565b5b92915050565b7f4e487b7100000000000000000000000000000000000000000000000000000000600052603160045260246000fd5b7f4a75646765466163746f72793a204a7564676520646f6573206e6f742065786960008201527f7374000000000000000000000000000000000000000000000000000000000000602082015250565b60006200149a60228362001330565b9150620014a7826200143c565b604082019050919050565b60006020820190508181036000830152620014cd816200148b565b905091905056fe608060405234801561001057600080fd5b50604051610546380380610546833981810160405281019061003291906101bd565b80600090816100419190610427565b50506104f9565b6000604051905090565b600080fd5b600080fd5b600080fd5b600080fd5b6000601f19601f8301169050919050565b7f4e487b7100000000000000000000000000000000000000000000000000000000600052604160045260246000fd5b6100af82610066565b810181811067ffffffffffffffff821117156100ce576100cd610077565b5b80604052505050565b60006100e1610048565b90506100ed82826100a6565b919050565b600067ffffffffffffffff82111561010d5761010c610077565b5b61011682610066565b9050602081019050919050565b60005b83811015610141578082015181840152602081019050610126565b60008484015250505050565b600061016061015b846100f2565b6100d7565b90508281526020810184848401111561017c5761017b610061565b5b610187848285610123565b509392505050565b600082601f8301126101a4576101a361005c565b5b81516101b484826020860161014d565b91505092915050565b6000602082840312156101d3576101d2610052565b5b600082015167ffffffffffffffff8111156101f1576101f0610057565b5b6101fd8482850161018f565b91505092915050565b600081519050919050565b7f4e487b7100000000000000000000000000000000000000000000000000000000600052602260045260246000fd5b6000600282049050600182168061025857607f821691505b60208210810361026b5761026a610211565b5b50919050565b60008190508160005260206000209050919050565b60006020601f8301049050919050565b600082821b905092915050565b6000600883026102d37fffffffffffffffffffffffffffffffffffffffffffffffffffffffffffffffff82610296565b6102dd8683610296565b95508019841693508086168417925050509392505050565b6000819050919050565b6000819050919050565b600061032461031f61031a846102f5565b6102ff565b6102f5565b9050919050565b6000819050919050565b61033e83610309565b61035261034a8261032b565b8484546102a3565b825550505050565b600090565b61036761035a565b610372818484610335565b505050565b5b818110156103965761038b60008261035f565b600181019050610378565b5050565b601f8211156103db576103ac81610271565b6103b584610286565b810160208510156103c4578190505b6103d86103d085610286565b830182610377565b50505b505050565b600082821c905092915050565b60006103fe600019846008026103e0565b1980831691505092915050565b600061041783836103ed565b9150826002028217905092915050565b61043082610206565b67ffffffffffffffff81111561044957610448610077565b5b6104538254610240565b61045e82828561039a565b600060209050601f831160018114610491576000841561047f578287015190505b610489858261040b565b8655506104f1565b601f19841661049f86610271565b60005b828110156104c7578489015182556001820191506020850194506020810190506104a2565b868310156104e457848901516104e0601f8916826103ed565b8355505b6001600288020188555050505b505050505050565b603f806105076000396000f3fe6080604052600080fdfea264697066735822122031846e87d0e16c4128efaa2fd042c897596398dd7ab02515c18d76951d18006d64736f6c63430008110033a26469706673582212208475889fe4be130c51200d080b723a6279d583af315b54b577dab8ebea3db2e164736f6c63430008110033",
  "immutableReferences": {},
  "source": "// SPDX-License-Identifier: MIT\npragma solidity 0.8.17;\n\nimport \"./Judge.sol\";\nimport \"./Ticket.sol\";\n\ncontract JudgeFactory {\n\n    mapping (address => address) private judgeWalletToProfile;\n    mapping (address => address[]) private JudgeToTickets;\n    address[] private roundRobin;\n    uint256 private nextIndex;\n\n    constructor() {\n        nextIndex = 0;\n    }\n\n    function createNewJudge(\n        string memory name,\n        address _address\n    ) external\n    {\n        Judge judge = new Judge(name);\n\n        judgeWalletToProfile[_address] = address(judge);\n\n        roundRobin.push(_address);\n    }\n\n    function getNextJudge() external view returns(address) {\n        return roundRobin[nextIndex];\n    }\n\n    function assignJudgeToTicket(\n        address ticket,\n        address judge\n    ) external\n    {\n\n        // TODO: Can be optimized with revert\n        require(judgeWalletToProfile[judge] != address(0), \"JudgeFactory: Judge does not exist\");\n\n        JudgeToTickets[judge].push(ticket);\n\n        if(nextIndex == roundRobin.length - 1) {\n            nextIndex = 0;\n        } else {\n            nextIndex++;\n        }\n    }\n\n    function isValidJudge(address judge) external view returns(bool) {\n        return judgeWalletToProfile[judge] != address(0);\n    }\n\n    function removeJudgeFromTicket(\n        address judge,\n        address ticket\n    ) external\n    {\n        uint256 judgeTicketLength = JudgeToTickets[judge].length;\n\n        for (uint256 i = 0; i < judgeTicketLength; i++) {\n            if (JudgeToTickets[judge][i] == ticket) {\n                JudgeToTickets[judge][i] = JudgeToTickets[judge][judgeTicketLength - 1];\n                JudgeToTickets[judge].pop();\n                break;\n            }\n        }\n    }\n\n    function getJudgeProfile(address judgeWallet) external view returns(address) {\n        return judgeWalletToProfile[judgeWallet];\n    }\n\n    function getJudgeTickets(address judgeWallet) external view returns(address[] memory) {\n        return JudgeToTickets[judgeWallet];\n    }\n\n    function getAllTickets(address judge) external view returns(address[] memory) {\n        return JudgeToTickets[judge];\n    }\n\n    function getActiveTickets(address judgeWallet) external view returns(address[] memory) {\n        address[] memory tickets = JudgeToTickets[judgeWallet];\n\n        uint256 activeTicketsLength = 0;\n\n        for (uint256 i = 0; i < tickets.length; i++) {\n            if (Ticket(tickets[i]).isTicketActive()) {\n                activeTicketsLength++;\n            }\n        }\n\n        address[] memory activeTickets = new address[](activeTicketsLength);\n\n        for (uint256 i = 0; i < tickets.length; i++) {\n            if (Ticket(tickets[i]).isTicketActive()) {\n                activeTickets[i] = tickets[i];\n            }\n        }\n\n        return activeTickets;\n    }\n\n}\n",
  "sourcePath": "C:\\Users\\samin\\Documents\\Projects\\AWT\\TraffiChain\\contracts\\JudgeFactory.sol",
  "compiler": {
    "name": "solc",
    "version": "0.8.17+commit.8df45f5f.Emscripten.clang"
  },
  "schemaVersion": "3.4.10",
  "updatedAt": "2022-11-28T05:49:29.955Z",
  "networkType": "ethereum",
  "devdoc": {
    "kind": "dev",
    "methods": {},
    "version": 1
  },
  "userdoc": {
    "kind": "user",
    "methods": {},
    "version": 1
  }
}