{
  "contractName": "Police",
  "abi": [
    {
      "inputs": [
        {
          "internalType": "string",
          "name": "name_",
          "type": "string"
        },
        {
          "internalType": "string",
          "name": "station_",
          "type": "string"
        },
        {
          "internalType": "string",
          "name": "rank_",
          "type": "string"
        },
        {
          "internalType": "uint256",
          "name": "badgeNumber_",
          "type": "uint256"
        }
      ],
      "stateMutability": "nonpayable",
      "type": "constructor"
    },
    {
      "inputs": [
        {
          "internalType": "uint16",
          "name": "score_",
          "type": "uint16"
        }
      ],
      "name": "updateScore",
      "outputs": [],
      "stateMutability": "nonpayable",
      "type": "function"
    },
    {
      "inputs": [
        {
          "internalType": "string",
          "name": "name_",
          "type": "string"
        }
      ],
      "name": "changeName",
      "outputs": [],
      "stateMutability": "nonpayable",
      "type": "function"
    },
    {
      "inputs": [
        {
          "internalType": "string",
          "name": "station_",
          "type": "string"
        }
      ],
      "name": "changeStation",
      "outputs": [],
      "stateMutability": "nonpayable",
      "type": "function"
    },
    {
      "inputs": [
        {
          "internalType": "string",
          "name": "rank_",
          "type": "string"
        }
      ],
      "name": "changeRank",
      "outputs": [],
      "stateMutability": "nonpayable",
      "type": "function"
    },
    {
      "inputs": [
        {
          "internalType": "uint256",
          "name": "badgeNumber_",
          "type": "uint256"
        }
      ],
      "name": "changeBadgeNumber",
      "outputs": [],
      "stateMutability": "nonpayable",
      "type": "function"
    },
    {
      "inputs": [],
      "name": "getName",
      "outputs": [
        {
          "internalType": "string",
          "name": "",
          "type": "string"
        }
      ],
      "stateMutability": "view",
      "type": "function"
    },
    {
      "inputs": [],
      "name": "getStation",
      "outputs": [
        {
          "internalType": "string",
          "name": "",
          "type": "string"
        }
      ],
      "stateMutability": "view",
      "type": "function"
    },
    {
      "inputs": [],
      "name": "getRank",
      "outputs": [
        {
          "internalType": "string",
          "name": "",
          "type": "string"
        }
      ],
      "stateMutability": "view",
      "type": "function"
    },
    {
      "inputs": [],
      "name": "getBadgeNumber",
      "outputs": [
        {
          "internalType": "uint256",
          "name": "",
          "type": "uint256"
        }
      ],
      "stateMutability": "view",
      "type": "function"
    },
    {
      "inputs": [],
      "name": "getScore",
      "outputs": [
        {
          "internalType": "uint16",
          "name": "",
          "type": "uint16"
        }
      ],
      "stateMutability": "view",
      "type": "function"
    }
  ],
  "bytecode": "0x60806040523480156200001157600080fd5b50604051620010c9380380620010c983398181016040528101906200003791906200024c565b83600090816200004891906200055c565b5082600190816200005a91906200055c565b5081600290816200006c91906200055c565b50806003819055505050505062000643565b6000604051905090565b600080fd5b600080fd5b600080fd5b600080fd5b6000601f19601f8301169050919050565b7f4e487b7100000000000000000000000000000000000000000000000000000000600052604160045260246000fd5b620000e7826200009c565b810181811067ffffffffffffffff82111715620001095762000108620000ad565b5b80604052505050565b60006200011e6200007e565b90506200012c8282620000dc565b919050565b600067ffffffffffffffff8211156200014f576200014e620000ad565b5b6200015a826200009c565b9050602081019050919050565b60005b83811015620001875780820151818401526020810190506200016a565b60008484015250505050565b6000620001aa620001a48462000131565b62000112565b905082815260208101848484011115620001c957620001c862000097565b5b620001d684828562000167565b509392505050565b600082601f830112620001f657620001f562000092565b5b81516200020884826020860162000193565b91505092915050565b6000819050919050565b620002268162000211565b81146200023257600080fd5b50565b60008151905062000246816200021b565b92915050565b6000806000806080858703121562000269576200026862000088565b5b600085015167ffffffffffffffff8111156200028a57620002896200008d565b5b6200029887828801620001de565b945050602085015167ffffffffffffffff811115620002bc57620002bb6200008d565b5b620002ca87828801620001de565b935050604085015167ffffffffffffffff811115620002ee57620002ed6200008d565b5b620002fc87828801620001de565b92505060606200030f8782880162000235565b91505092959194509250565b600081519050919050565b7f4e487b7100000000000000000000000000000000000000000000000000000000600052602260045260246000fd5b600060028204905060018216806200036e57607f821691505b60208210810362000384576200038362000326565b5b50919050565b60008190508160005260206000209050919050565b60006020601f8301049050919050565b600082821b905092915050565b600060088302620003ee7fffffffffffffffffffffffffffffffffffffffffffffffffffffffffffffffff82620003af565b620003fa8683620003af565b95508019841693508086168417925050509392505050565b6000819050919050565b60006200043d62000437620004318462000211565b62000412565b62000211565b9050919050565b6000819050919050565b62000459836200041c565b62000471620004688262000444565b848454620003bc565b825550505050565b600090565b6200048862000479565b620004958184846200044e565b505050565b5b81811015620004bd57620004b16000826200047e565b6001810190506200049b565b5050565b601f8211156200050c57620004d6816200038a565b620004e1846200039f565b81016020851015620004f1578190505b6200050962000500856200039f565b8301826200049a565b50505b505050565b600082821c905092915050565b6000620005316000198460080262000511565b1980831691505092915050565b60006200054c83836200051e565b9150826002028217905092915050565b62000567826200031b565b67ffffffffffffffff811115620005835762000582620000ad565b5b6200058f825462000355565b6200059c828285620004c1565b600060209050601f831160018114620005d45760008415620005bf578287015190505b620005cb85826200053e565b8655506200063b565b601f198416620005e4866200038a565b60005b828110156200060e57848901518255600182019150602085019450602081019050620005e7565b868310156200062e57848901516200062a601f8916826200051e565b8355505b6001600288020188555050505b505050505050565b610a7680620006536000396000f3fe608060405234801561001057600080fd5b506004361061009e5760003560e01c80637c8013ea116100665780637c8013ea146101335780639469ae0414610151578063afd820671461016d578063ba005a8b1461018b578063d303e7b2146101a75761009e565b806317d7de7c146100a357806317fd2967146100c15780631f89362d146100dd578063497b7f80146100fb5780635353a2d814610117575b600080fd5b6100ab6101c5565b6040516100b89190610490565b60405180910390f35b6100db60048036038101906100d69190610500565b610257565b005b6100e5610277565b6040516100f29190610546565b60405180910390f35b61011560048036038101906101109190610696565b610281565b005b610131600480360381019061012c9190610696565b610294565b005b61013b6102a7565b6040516101489190610490565b60405180910390f35b61016b6004803603810190610166919061070b565b610339565b005b610175610343565b6040516101829190610747565b60405180910390f35b6101a560048036038101906101a09190610696565b61035b565b005b6101af61036e565b6040516101bc9190610490565b60405180910390f35b6060600080546101d490610791565b80601f016020809104026020016040519081016040528092919081815260200182805461020090610791565b801561024d5780601f106102225761010080835404028352916020019161024d565b820191906000526020600020905b81548152906001019060200180831161023057829003601f168201915b5050505050905090565b80600460006101000a81548161ffff021916908361ffff16021790555050565b6000600354905090565b8060029081610290919061096e565b5050565b80600090816102a3919061096e565b5050565b6060600180546102b690610791565b80601f01602080910402602001604051908101604052809291908181526020018280546102e290610791565b801561032f5780601f106103045761010080835404028352916020019161032f565b820191906000526020600020905b81548152906001019060200180831161031257829003601f168201915b5050505050905090565b8060038190555050565b6000600460009054906101000a900461ffff16905090565b806001908161036a919061096e565b5050565b60606002805461037d90610791565b80601f01602080910402602001604051908101604052809291908181526020018280546103a990610791565b80156103f65780601f106103cb576101008083540402835291602001916103f6565b820191906000526020600020905b8154815290600101906020018083116103d957829003601f168201915b5050505050905090565b600081519050919050565b600082825260208201905092915050565b60005b8381101561043a57808201518184015260208101905061041f565b60008484015250505050565b6000601f19601f8301169050919050565b600061046282610400565b61046c818561040b565b935061047c81856020860161041c565b61048581610446565b840191505092915050565b600060208201905081810360008301526104aa8184610457565b905092915050565b6000604051905090565b600080fd5b600080fd5b600061ffff82169050919050565b6104dd816104c6565b81146104e857600080fd5b50565b6000813590506104fa816104d4565b92915050565b600060208284031215610516576105156104bc565b5b6000610524848285016104eb565b91505092915050565b6000819050919050565b6105408161052d565b82525050565b600060208201905061055b6000830184610537565b92915050565b600080fd5b600080fd5b7f4e487b7100000000000000000000000000000000000000000000000000000000600052604160045260246000fd5b6105a382610446565b810181811067ffffffffffffffff821117156105c2576105c161056b565b5b80604052505050565b60006105d56104b2565b90506105e1828261059a565b919050565b600067ffffffffffffffff8211156106015761060061056b565b5b61060a82610446565b9050602081019050919050565b82818337600083830152505050565b6000610639610634846105e6565b6105cb565b90508281526020810184848401111561065557610654610566565b5b610660848285610617565b509392505050565b600082601f83011261067d5761067c610561565b5b813561068d848260208601610626565b91505092915050565b6000602082840312156106ac576106ab6104bc565b5b600082013567ffffffffffffffff8111156106ca576106c96104c1565b5b6106d684828501610668565b91505092915050565b6106e88161052d565b81146106f357600080fd5b50565b600081359050610705816106df565b92915050565b600060208284031215610721576107206104bc565b5b600061072f848285016106f6565b91505092915050565b610741816104c6565b82525050565b600060208201905061075c6000830184610738565b92915050565b7f4e487b7100000000000000000000000000000000000000000000000000000000600052602260045260246000fd5b600060028204905060018216806107a957607f821691505b6020821081036107bc576107bb610762565b5b50919050565b60008190508160005260206000209050919050565b60006020601f8301049050919050565b600082821b905092915050565b6000600883026108247fffffffffffffffffffffffffffffffffffffffffffffffffffffffffffffffff826107e7565b61082e86836107e7565b95508019841693508086168417925050509392505050565b6000819050919050565b600061086b6108666108618461052d565b610846565b61052d565b9050919050565b6000819050919050565b61088583610850565b61089961089182610872565b8484546107f4565b825550505050565b600090565b6108ae6108a1565b6108b981848461087c565b505050565b5b818110156108dd576108d26000826108a6565b6001810190506108bf565b5050565b601f821115610922576108f3816107c2565b6108fc846107d7565b8101602085101561090b578190505b61091f610917856107d7565b8301826108be565b50505b505050565b600082821c905092915050565b600061094560001984600802610927565b1980831691505092915050565b600061095e8383610934565b9150826002028217905092915050565b61097782610400565b67ffffffffffffffff8111156109905761098f61056b565b5b61099a8254610791565b6109a58282856108e1565b600060209050601f8311600181146109d857600084156109c6578287015190505b6109d08582610952565b865550610a38565b601f1984166109e6866107c2565b60005b82811015610a0e578489015182556001820191506020850194506020810190506109e9565b86831015610a2b5784890151610a27601f891682610934565b8355505b6001600288020188555050505b50505050505056fea2646970667358221220e7d5dc4d44a12764801d89e3bdf6a1059213b9cedb737bb08009aea129d40ded64736f6c63430008110033",
  "immutableReferences": {},
  "source": "// SPDX-License-Identifier: MIT\npragma solidity 0.8.17;\n\n// TODO: Implement access control\n\n// errors\n// error Ticket__inactive();\n// error Ticket__NoJudgeAssigned();\n\n\n/// @title Police\n/// @author Samin Yaser\n/// @notice Profile of a police officer\ncontract Police {\n\n    string private name;\n    string private station;\n    string private rank;\n    uint256 private badgeNumber;\n    uint16 private score;\n\n    constructor(\n        string memory name_,\n        string memory station_,\n        string memory rank_,\n        uint256 badgeNumber_\n    ) {\n        name = name_;\n        station = station_;\n        rank = rank_;\n        badgeNumber = badgeNumber_;\n    }\n\n    function updateScore(uint16 score_) external {\n        score = score_;\n    }\n\n    function changeName(string memory name_) external {\n        name = name_;\n    }\n\n    function changeStation(string memory station_) external {\n        station = station_;\n    }\n\n    function changeRank(string memory rank_) external {\n        rank = rank_;\n    }\n\n    function changeBadgeNumber(uint256 badgeNumber_) external {\n        badgeNumber = badgeNumber_;\n    }\n\n    function getName() external view returns(string memory) {\n        return name;\n    }\n\n    function getStation() external view returns(string memory) {\n        return station;\n    }\n\n    function getRank() external view returns(string memory) {\n        return rank;\n    }\n\n    function getBadgeNumber() external view returns(uint256) {\n        return badgeNumber;\n    }\n\n    function getScore() external view returns(uint16) {\n        return score;\n    }\n\n}\n",
  "sourcePath": "C:\\Users\\samin\\Documents\\Projects\\AWT\\TraffiChain\\contracts\\Police.sol",
  "compiler": {
    "name": "solc",
    "version": "0.8.17+commit.8df45f5f.Emscripten.clang"
  },
  "schemaVersion": "3.4.10",
  "updatedAt": "2022-11-28T05:49:12.037Z",
  "devdoc": {
    "author": "Samin Yaser",
    "kind": "dev",
    "methods": {},
    "title": "Police",
    "version": 1
  },
  "userdoc": {
    "kind": "user",
    "methods": {},
    "notice": "Profile of a police officer",
    "version": 1
  }
}