{
  "contractName": "PoliceFactory",
  "abi": [
    {
      "inputs": [
        {
          "internalType": "address",
          "name": "_address",
          "type": "address"
        },
        {
          "internalType": "string",
          "name": "name_",
          "type": "string"
        },
        {
          "internalType": "string",
          "name": "station_",
          "type": "string"
        },
        {
          "internalType": "string",
          "name": "rank_",
          "type": "string"
        },
        {
          "internalType": "uint256",
          "name": "badgeNumber_",
          "type": "uint256"
        }
      ],
      "name": "createNewPolice",
      "outputs": [],
      "stateMutability": "nonpayable",
      "type": "function"
    },
    {
      "inputs": [
        {
          "internalType": "address",
          "name": "ticket",
          "type": "address"
        }
      ],
      "name": "addTicket",
      "outputs": [],
      "stateMutability": "nonpayable",
      "type": "function"
    },
    {
      "inputs": [
        {
          "internalType": "address",
          "name": "police",
          "type": "address"
        }
      ],
      "name": "getPoliceProfile",
      "outputs": [
        {
          "internalType": "address",
          "name": "",
          "type": "address"
        }
      ],
      "stateMutability": "view",
      "type": "function",
      "constant": true
    },
    {
      "inputs": [
        {
          "internalType": "address",
          "name": "police",
          "type": "address"
        }
      ],
      "name": "getAllTickets",
      "outputs": [
        {
          "internalType": "address[]",
          "name": "",
          "type": "address[]"
        }
      ],
      "stateMutability": "view",
      "type": "function",
      "constant": true
    },
    {
      "inputs": [
        {
          "internalType": "address",
          "name": "police",
          "type": "address"
        }
      ],
      "name": "getActiveTickets",
      "outputs": [
        {
          "internalType": "address[]",
          "name": "",
          "type": "address[]"
        }
      ],
      "stateMutability": "view",
      "type": "function",
      "constant": true
    }
  ],
  "bytecode": "0x608060405234801561001057600080fd5b50611e72806100206000396000f3fe60806040523480156200001157600080fd5b50600436106200005e5760003560e01c806314fa96c81462000063578063698930a614620000995780637237a4b614620000cf57806377ce853414620000ef57806391d18b81146200010f575b600080fd5b6200008160048036038101906200007b919062000789565b62000145565b60405162000090919062000889565b60405180910390f35b620000b76004803603810190620000b1919062000789565b62000460565b604051620000c69190620008be565b60405180910390f35b620000ed6004803603810190620000e7919062000789565b620004c8565b005b6200010d600480360381019062000107919062000a78565b6200056b565b005b6200012d600480360381019062000127919062000789565b62000633565b6040516200013c919062000889565b60405180910390f35b60606000600160008473ffffffffffffffffffffffffffffffffffffffff1673ffffffffffffffffffffffffffffffffffffffff1681526020019081526020016000208054806020026020016040519081016040528092919081815260200182805480156200020a57602002820191906000526020600020905b8160009054906101000a900473ffffffffffffffffffffffffffffffffffffffff1673ffffffffffffffffffffffffffffffffffffffff1681526020019060010190808311620001bf575b505050505090506000805b8251811015620002db5782818151811062000235576200023462000b5d565b5b602002602001015173ffffffffffffffffffffffffffffffffffffffff166309a483436040518163ffffffff1660e01b8152600401602060405180830381865afa15801562000288573d6000803e3d6000fd5b505050506040513d601f19601f82011682018060405250810190620002ae919062000bc9565b15620002c5578180620002c19062000c2a565b9250505b8080620002d29062000c2a565b91505062000215565b5060008167ffffffffffffffff811115620002fb57620002fa620008f6565b5b6040519080825280602002602001820160405280156200032a5781602001602082028036833780820191505090505b50905060005b8351811015620004545783818151811062000350576200034f62000b5d565b5b602002602001015173ffffffffffffffffffffffffffffffffffffffff166309a483436040518163ffffffff1660e01b8152600401602060405180830381865afa158015620003a3573d6000803e3d6000fd5b505050506040513d601f19601f82011682018060405250810190620003c9919062000bc9565b156200043e57838181518110620003e557620003e462000b5d565b5b602002602001015182828151811062000403576200040262000b5d565b5b602002602001019073ffffffffffffffffffffffffffffffffffffffff16908173ffffffffffffffffffffffffffffffffffffffff16815250505b80806200044b9062000c2a565b91505062000330565b50809350505050919050565b60008060008373ffffffffffffffffffffffffffffffffffffffff1673ffffffffffffffffffffffffffffffffffffffff16815260200190815260200160002060009054906101000a900473ffffffffffffffffffffffffffffffffffffffff169050919050565b600160003373ffffffffffffffffffffffffffffffffffffffff1673ffffffffffffffffffffffffffffffffffffffff168152602001908152602001600020819080600181540180825580915050600190039060005260206000200160009091909190916101000a81548173ffffffffffffffffffffffffffffffffffffffff021916908373ffffffffffffffffffffffffffffffffffffffff16021790555050565b6000848484846040516200057f9062000702565b6200058e949392919062000d11565b604051809103906000f080158015620005ab573d6000803e3d6000fd5b509050806000808873ffffffffffffffffffffffffffffffffffffffff1673ffffffffffffffffffffffffffffffffffffffff16815260200190815260200160002060006101000a81548173ffffffffffffffffffffffffffffffffffffffff021916908373ffffffffffffffffffffffffffffffffffffffff160217905550505050505050565b6060600160008373ffffffffffffffffffffffffffffffffffffffff1673ffffffffffffffffffffffffffffffffffffffff168152602001908152602001600020805480602002602001604051908101604052809291908181526020018280548015620006f657602002820191906000526020600020905b8160009054906101000a900473ffffffffffffffffffffffffffffffffffffffff1673ffffffffffffffffffffffffffffffffffffffff1681526020019060010190808311620006ab575b50505050509050919050565b6110c98062000d7483390190565b6000604051905090565b600080fd5b600080fd5b600073ffffffffffffffffffffffffffffffffffffffff82169050919050565b6000620007518262000724565b9050919050565b620007638162000744565b81146200076f57600080fd5b50565b600081359050620007838162000758565b92915050565b600060208284031215620007a257620007a16200071a565b5b6000620007b28482850162000772565b91505092915050565b600081519050919050565b600082825260208201905092915050565b6000819050602082019050919050565b620007f28162000744565b82525050565b6000620008068383620007e7565b60208301905092915050565b6000602082019050919050565b60006200082c82620007bb565b620008388185620007c6565b93506200084583620007d7565b8060005b838110156200087c578151620008608882620007f8565b97506200086d8362000812565b92505060018101905062000849565b5085935050505092915050565b60006020820190508181036000830152620008a581846200081f565b905092915050565b620008b88162000744565b82525050565b6000602082019050620008d56000830184620008ad565b92915050565b600080fd5b600080fd5b6000601f19601f8301169050919050565b7f4e487b7100000000000000000000000000000000000000000000000000000000600052604160045260246000fd5b6200093082620008e5565b810181811067ffffffffffffffff82111715620009525762000951620008f6565b5b80604052505050565b60006200096762000710565b905062000975828262000925565b919050565b600067ffffffffffffffff821115620009985762000997620008f6565b5b620009a382620008e5565b9050602081019050919050565b82818337600083830152505050565b6000620009d6620009d0846200097a565b6200095b565b905082815260208101848484011115620009f557620009f4620008e0565b5b62000a02848285620009b0565b509392505050565b600082601f83011262000a225762000a21620008db565b5b813562000a34848260208601620009bf565b91505092915050565b6000819050919050565b62000a528162000a3d565b811462000a5e57600080fd5b50565b60008135905062000a728162000a47565b92915050565b600080600080600060a0868803121562000a975762000a966200071a565b5b600062000aa78882890162000772565b955050602086013567ffffffffffffffff81111562000acb5762000aca6200071f565b5b62000ad98882890162000a0a565b945050604086013567ffffffffffffffff81111562000afd5762000afc6200071f565b5b62000b0b8882890162000a0a565b935050606086013567ffffffffffffffff81111562000b2f5762000b2e6200071f565b5b62000b3d8882890162000a0a565b925050608062000b508882890162000a61565b9150509295509295909350565b7f4e487b7100000000000000000000000000000000000000000000000000000000600052603260045260246000fd5b60008115159050919050565b62000ba38162000b8c565b811462000baf57600080fd5b50565b60008151905062000bc38162000b98565b92915050565b60006020828403121562000be25762000be16200071a565b5b600062000bf28482850162000bb2565b91505092915050565b7f4e487b7100000000000000000000000000000000000000000000000000000000600052601160045260246000fd5b600062000c378262000a3d565b91507fffffffffffffffffffffffffffffffffffffffffffffffffffffffffffffffff820362000c6c5762000c6b62000bfb565b5b600182019050919050565b600081519050919050565b600082825260208201905092915050565b60005b8381101562000cb357808201518184015260208101905062000c96565b60008484015250505050565b600062000ccc8262000c77565b62000cd8818562000c82565b935062000cea81856020860162000c93565b62000cf581620008e5565b840191505092915050565b62000d0b8162000a3d565b82525050565b6000608082019050818103600083015262000d2d818762000cbf565b9050818103602083015262000d43818662000cbf565b9050818103604083015262000d59818562000cbf565b905062000d6a606083018462000d00565b9594505050505056fe60806040523480156200001157600080fd5b50604051620010c9380380620010c983398181016040528101906200003791906200024c565b83600090816200004891906200055c565b5082600190816200005a91906200055c565b5081600290816200006c91906200055c565b50806003819055505050505062000643565b6000604051905090565b600080fd5b600080fd5b600080fd5b600080fd5b6000601f19601f8301169050919050565b7f4e487b7100000000000000000000000000000000000000000000000000000000600052604160045260246000fd5b620000e7826200009c565b810181811067ffffffffffffffff82111715620001095762000108620000ad565b5b80604052505050565b60006200011e6200007e565b90506200012c8282620000dc565b919050565b600067ffffffffffffffff8211156200014f576200014e620000ad565b5b6200015a826200009c565b9050602081019050919050565b60005b83811015620001875780820151818401526020810190506200016a565b60008484015250505050565b6000620001aa620001a48462000131565b62000112565b905082815260208101848484011115620001c957620001c862000097565b5b620001d684828562000167565b509392505050565b600082601f830112620001f657620001f562000092565b5b81516200020884826020860162000193565b91505092915050565b6000819050919050565b620002268162000211565b81146200023257600080fd5b50565b60008151905062000246816200021b565b92915050565b6000806000806080858703121562000269576200026862000088565b5b600085015167ffffffffffffffff8111156200028a57620002896200008d565b5b6200029887828801620001de565b945050602085015167ffffffffffffffff811115620002bc57620002bb6200008d565b5b620002ca87828801620001de565b935050604085015167ffffffffffffffff811115620002ee57620002ed6200008d565b5b620002fc87828801620001de565b92505060606200030f8782880162000235565b91505092959194509250565b600081519050919050565b7f4e487b7100000000000000000000000000000000000000000000000000000000600052602260045260246000fd5b600060028204905060018216806200036e57607f821691505b60208210810362000384576200038362000326565b5b50919050565b60008190508160005260206000209050919050565b60006020601f8301049050919050565b600082821b905092915050565b600060088302620003ee7fffffffffffffffffffffffffffffffffffffffffffffffffffffffffffffffff82620003af565b620003fa8683620003af565b95508019841693508086168417925050509392505050565b6000819050919050565b60006200043d62000437620004318462000211565b62000412565b62000211565b9050919050565b6000819050919050565b62000459836200041c565b62000471620004688262000444565b848454620003bc565b825550505050565b600090565b6200048862000479565b620004958184846200044e565b505050565b5b81811015620004bd57620004b16000826200047e565b6001810190506200049b565b5050565b601f8211156200050c57620004d6816200038a565b620004e1846200039f565b81016020851015620004f1578190505b6200050962000500856200039f565b8301826200049a565b50505b505050565b600082821c905092915050565b6000620005316000198460080262000511565b1980831691505092915050565b60006200054c83836200051e565b9150826002028217905092915050565b62000567826200031b565b67ffffffffffffffff811115620005835762000582620000ad565b5b6200058f825462000355565b6200059c828285620004c1565b600060209050601f831160018114620005d45760008415620005bf578287015190505b620005cb85826200053e565b8655506200063b565b601f198416620005e4866200038a565b60005b828110156200060e57848901518255600182019150602085019450602081019050620005e7565b868310156200062e57848901516200062a601f8916826200051e565b8355505b6001600288020188555050505b505050505050565b610a7680620006536000396000f3fe608060405234801561001057600080fd5b506004361061009e5760003560e01c80637c8013ea116100665780637c8013ea146101335780639469ae0414610151578063afd820671461016d578063ba005a8b1461018b578063d303e7b2146101a75761009e565b806317d7de7c146100a357806317fd2967146100c15780631f89362d146100dd578063497b7f80146100fb5780635353a2d814610117575b600080fd5b6100ab6101c5565b6040516100b89190610490565b60405180910390f35b6100db60048036038101906100d69190610500565b610257565b005b6100e5610277565b6040516100f29190610546565b60405180910390f35b61011560048036038101906101109190610696565b610281565b005b610131600480360381019061012c9190610696565b610294565b005b61013b6102a7565b6040516101489190610490565b60405180910390f35b61016b6004803603810190610166919061070b565b610339565b005b610175610343565b6040516101829190610747565b60405180910390f35b6101a560048036038101906101a09190610696565b61035b565b005b6101af61036e565b6040516101bc9190610490565b60405180910390f35b6060600080546101d490610791565b80601f016020809104026020016040519081016040528092919081815260200182805461020090610791565b801561024d5780601f106102225761010080835404028352916020019161024d565b820191906000526020600020905b81548152906001019060200180831161023057829003601f168201915b5050505050905090565b80600460006101000a81548161ffff021916908361ffff16021790555050565b6000600354905090565b8060029081610290919061096e565b5050565b80600090816102a3919061096e565b5050565b6060600180546102b690610791565b80601f01602080910402602001604051908101604052809291908181526020018280546102e290610791565b801561032f5780601f106103045761010080835404028352916020019161032f565b820191906000526020600020905b81548152906001019060200180831161031257829003601f168201915b5050505050905090565b8060038190555050565b6000600460009054906101000a900461ffff16905090565b806001908161036a919061096e565b5050565b60606002805461037d90610791565b80601f01602080910402602001604051908101604052809291908181526020018280546103a990610791565b80156103f65780601f106103cb576101008083540402835291602001916103f6565b820191906000526020600020905b8154815290600101906020018083116103d957829003601f168201915b5050505050905090565b600081519050919050565b600082825260208201905092915050565b60005b8381101561043a57808201518184015260208101905061041f565b60008484015250505050565b6000601f19601f8301169050919050565b600061046282610400565b61046c818561040b565b935061047c81856020860161041c565b61048581610446565b840191505092915050565b600060208201905081810360008301526104aa8184610457565b905092915050565b6000604051905090565b600080fd5b600080fd5b600061ffff82169050919050565b6104dd816104c6565b81146104e857600080fd5b50565b6000813590506104fa816104d4565b92915050565b600060208284031215610516576105156104bc565b5b6000610524848285016104eb565b91505092915050565b6000819050919050565b6105408161052d565b82525050565b600060208201905061055b6000830184610537565b92915050565b600080fd5b600080fd5b7f4e487b7100000000000000000000000000000000000000000000000000000000600052604160045260246000fd5b6105a382610446565b810181811067ffffffffffffffff821117156105c2576105c161056b565b5b80604052505050565b60006105d56104b2565b90506105e1828261059a565b919050565b600067ffffffffffffffff8211156106015761060061056b565b5b61060a82610446565b9050602081019050919050565b82818337600083830152505050565b6000610639610634846105e6565b6105cb565b90508281526020810184848401111561065557610654610566565b5b610660848285610617565b509392505050565b600082601f83011261067d5761067c610561565b5b813561068d848260208601610626565b91505092915050565b6000602082840312156106ac576106ab6104bc565b5b600082013567ffffffffffffffff8111156106ca576106c96104c1565b5b6106d684828501610668565b91505092915050565b6106e88161052d565b81146106f357600080fd5b50565b600081359050610705816106df565b92915050565b600060208284031215610721576107206104bc565b5b600061072f848285016106f6565b91505092915050565b610741816104c6565b82525050565b600060208201905061075c6000830184610738565b92915050565b7f4e487b7100000000000000000000000000000000000000000000000000000000600052602260045260246000fd5b600060028204905060018216806107a957607f821691505b6020821081036107bc576107bb610762565b5b50919050565b60008190508160005260206000209050919050565b60006020601f8301049050919050565b600082821b905092915050565b6000600883026108247fffffffffffffffffffffffffffffffffffffffffffffffffffffffffffffffff826107e7565b61082e86836107e7565b95508019841693508086168417925050509392505050565b6000819050919050565b600061086b6108666108618461052d565b610846565b61052d565b9050919050565b6000819050919050565b61088583610850565b61089961089182610872565b8484546107f4565b825550505050565b600090565b6108ae6108a1565b6108b981848461087c565b505050565b5b818110156108dd576108d26000826108a6565b6001810190506108bf565b5050565b601f821115610922576108f3816107c2565b6108fc846107d7565b8101602085101561090b578190505b61091f610917856107d7565b8301826108be565b50505b505050565b600082821c905092915050565b600061094560001984600802610927565b1980831691505092915050565b600061095e8383610934565b9150826002028217905092915050565b61097782610400565b67ffffffffffffffff8111156109905761098f61056b565b5b61099a8254610791565b6109a58282856108e1565b600060209050601f8311600181146109d857600084156109c6578287015190505b6109d08582610952565b865550610a38565b601f1984166109e6866107c2565b60005b82811015610a0e578489015182556001820191506020850194506020810190506109e9565b86831015610a2b5784890151610a27601f891682610934565b8355505b6001600288020188555050505b50505050505056fea2646970667358221220e7d5dc4d44a12764801d89e3bdf6a1059213b9cedb737bb08009aea129d40ded64736f6c63430008110033a26469706673582212201d85e040e26ff9c9b416ab64141e3ff72a31676a1fb30447432f880e6576d08d64736f6c63430008110033",
  "immutableReferences": {},
  "source": "// SPDX-License-Identifier: MIT\npragma solidity 0.8.17;\n\nimport \"./Ticket.sol\";\nimport \"./Police.sol\";\n\ncontract PoliceFactory {\n\n    mapping (address => address) private policeToProfile;\n    mapping (address => address[]) private PoliceToTickets;\n\n    function createNewPolice(\n        address _address,\n        string memory name_,\n        string memory station_,\n        string memory rank_,\n        uint256 badgeNumber_\n    ) external\n    {\n        Police police = new Police(name_, station_, rank_, badgeNumber_);\n\n        policeToProfile[_address] = address(police);\n    }\n\n    function addTicket(\n        address ticket\n    ) external\n    {\n        PoliceToTickets[msg.sender].push(ticket);\n    }\n\n\n    // function isValidJudge(address judge) external view returns(bool) {\n    //     return judgeWalletToProfile[judge] != address(0);\n    // }\n\n    function getPoliceProfile(address police) external view returns(address) {\n        return policeToProfile[police];\n    }\n\n    function getAllTickets(address police) external view returns(address[] memory) {\n        return PoliceToTickets[police];\n    }\n\n    function getActiveTickets(address police) external view returns(address[] memory) {\n        address[] memory tickets = PoliceToTickets[police];\n\n        uint256 activeTicketsLength = 0;\n\n        for (uint256 i = 0; i < tickets.length; i++) {\n            if (Ticket(tickets[i]).isTicketActive()) {\n                activeTicketsLength++;\n            }\n        }\n\n        address[] memory activeTickets = new address[](activeTicketsLength);\n\n        for (uint256 i = 0; i < tickets.length; i++) {\n            if (Ticket(tickets[i]).isTicketActive()) {\n                activeTickets[i] = tickets[i];\n            }\n        }\n\n        return activeTickets;\n    }\n\n}\n",
  "sourcePath": "C:\\Users\\samin\\Documents\\Projects\\AWT\\TraffiChain\\contracts\\PoliceFactory.sol",
  "compiler": {
    "name": "solc",
    "version": "0.8.17+commit.8df45f5f.Emscripten.clang"
  },
  "schemaVersion": "3.4.10",
  "updatedAt": "2022-11-28T05:49:28.007Z",
  "networkType": "ethereum",
  "devdoc": {
    "kind": "dev",
    "methods": {},
    "version": 1
  },
  "userdoc": {
    "kind": "user",
    "methods": {},
    "version": 1
  }
}