{
  "contractName": "Ticket",
  "abi": [
    {
      "inputs": [
        {
          "internalType": "address",
          "name": "driver_",
          "type": "address"
        },
        {
          "internalType": "uint16[]",
          "name": "penalty_clasues_",
          "type": "uint16[]"
        }
      ],
      "stateMutability": "nonpayable",
      "type": "constructor"
    },
    {
      "inputs": [],
      "name": "Ticket__NoJudgeAssigned",
      "type": "error"
    },
    {
      "inputs": [],
      "name": "Ticket__inactive",
      "type": "error"
    },
    {
      "anonymous": false,
      "inputs": [
        {
          "indexed": true,
          "internalType": "bytes32",
          "name": "role",
          "type": "bytes32"
        },
        {
          "indexed": true,
          "internalType": "bytes32",
          "name": "previousAdminRole",
          "type": "bytes32"
        },
        {
          "indexed": true,
          "internalType": "bytes32",
          "name": "newAdminRole",
          "type": "bytes32"
        }
      ],
      "name": "RoleAdminChanged",
      "type": "event"
    },
    {
      "anonymous": false,
      "inputs": [
        {
          "indexed": true,
          "internalType": "bytes32",
          "name": "role",
          "type": "bytes32"
        },
        {
          "indexed": true,
          "internalType": "address",
          "name": "account",
          "type": "address"
        },
        {
          "indexed": true,
          "internalType": "address",
          "name": "sender",
          "type": "address"
        }
      ],
      "name": "RoleGranted",
      "type": "event"
    },
    {
      "anonymous": false,
      "inputs": [
        {
          "indexed": true,
          "internalType": "bytes32",
          "name": "role",
          "type": "bytes32"
        },
        {
          "indexed": true,
          "internalType": "address",
          "name": "account",
          "type": "address"
        },
        {
          "indexed": true,
          "internalType": "address",
          "name": "sender",
          "type": "address"
        }
      ],
      "name": "RoleRevoked",
      "type": "event"
    },
    {
      "anonymous": false,
      "inputs": [
        {
          "indexed": false,
          "internalType": "address",
          "name": "ticket_address",
          "type": "address"
        },
        {
          "indexed": false,
          "internalType": "enum Ticket.Status",
          "name": "status",
          "type": "uint8"
        }
      ],
      "name": "StatusChanged",
      "type": "event"
    },
    {
      "inputs": [],
      "name": "DEFAULT_ADMIN_ROLE",
      "outputs": [
        {
          "internalType": "bytes32",
          "name": "",
          "type": "bytes32"
        }
      ],
      "stateMutability": "view",
      "type": "function"
    },
    {
      "inputs": [
        {
          "internalType": "bytes32",
          "name": "role",
          "type": "bytes32"
        }
      ],
      "name": "getRoleAdmin",
      "outputs": [
        {
          "internalType": "bytes32",
          "name": "",
          "type": "bytes32"
        }
      ],
      "stateMutability": "view",
      "type": "function"
    },
    {
      "inputs": [
        {
          "internalType": "bytes32",
          "name": "role",
          "type": "bytes32"
        },
        {
          "internalType": "address",
          "name": "account",
          "type": "address"
        }
      ],
      "name": "grantRole",
      "outputs": [],
      "stateMutability": "nonpayable",
      "type": "function"
    },
    {
      "inputs": [
        {
          "internalType": "bytes32",
          "name": "role",
          "type": "bytes32"
        },
        {
          "internalType": "address",
          "name": "account",
          "type": "address"
        }
      ],
      "name": "hasRole",
      "outputs": [
        {
          "internalType": "bool",
          "name": "",
          "type": "bool"
        }
      ],
      "stateMutability": "view",
      "type": "function"
    },
    {
      "inputs": [
        {
          "internalType": "bytes32",
          "name": "role",
          "type": "bytes32"
        },
        {
          "internalType": "address",
          "name": "account",
          "type": "address"
        }
      ],
      "name": "renounceRole",
      "outputs": [],
      "stateMutability": "nonpayable",
      "type": "function"
    },
    {
      "inputs": [
        {
          "internalType": "bytes32",
          "name": "role",
          "type": "bytes32"
        },
        {
          "internalType": "address",
          "name": "account",
          "type": "address"
        }
      ],
      "name": "revokeRole",
      "outputs": [],
      "stateMutability": "nonpayable",
      "type": "function"
    },
    {
      "inputs": [
        {
          "internalType": "bytes4",
          "name": "interfaceId",
          "type": "bytes4"
        }
      ],
      "name": "supportsInterface",
      "outputs": [
        {
          "internalType": "bool",
          "name": "",
          "type": "bool"
        }
      ],
      "stateMutability": "view",
      "type": "function"
    },
    {
      "inputs": [
        {
          "internalType": "address",
          "name": "judge_",
          "type": "address"
        }
      ],
      "name": "requestHearing",
      "outputs": [],
      "stateMutability": "nonpayable",
      "type": "function"
    },
    {
      "inputs": [],
      "name": "checkStatus",
      "outputs": [
        {
          "internalType": "string",
          "name": "",
          "type": "string"
        }
      ],
      "stateMutability": "view",
      "type": "function"
    },
    {
      "inputs": [
        {
          "internalType": "enum Ticket.Status",
          "name": "status_",
          "type": "uint8"
        }
      ],
      "name": "resolveTicket",
      "outputs": [],
      "stateMutability": "nonpayable",
      "type": "function"
    },
    {
      "inputs": [
        {
          "internalType": "uint256",
          "name": "interval_",
          "type": "uint256"
        }
      ],
      "name": "setInterval",
      "outputs": [],
      "stateMutability": "nonpayable",
      "type": "function"
    },
    {
      "inputs": [],
      "name": "isPayable",
      "outputs": [
        {
          "internalType": "bool",
          "name": "",
          "type": "bool"
        }
      ],
      "stateMutability": "view",
      "type": "function"
    },
    {
      "inputs": [],
      "name": "isTicketActive",
      "outputs": [
        {
          "internalType": "bool",
          "name": "",
          "type": "bool"
        }
      ],
      "stateMutability": "view",
      "type": "function"
    },
    {
      "inputs": [],
      "name": "getDriverAddress",
      "outputs": [
        {
          "internalType": "address",
          "name": "",
          "type": "address"
        }
      ],
      "stateMutability": "view",
      "type": "function"
    },
    {
      "inputs": [],
      "name": "getOfficerAddress",
      "outputs": [
        {
          "internalType": "address",
          "name": "",
          "type": "address"
        }
      ],
      "stateMutability": "view",
      "type": "function"
    },
    {
      "inputs": [],
      "name": "getJudgeAddress",
      "outputs": [
        {
          "internalType": "address",
          "name": "",
          "type": "address"
        }
      ],
      "stateMutability": "view",
      "type": "function"
    },
    {
      "inputs": [],
      "name": "getCharges",
      "outputs": [
        {
          "internalType": "uint16[]",
          "name": "",
          "type": "uint16[]"
        }
      ],
      "stateMutability": "view",
      "type": "function"
    },
    {
      "inputs": [],
      "name": "getRemainingTime",
      "outputs": [
        {
          "internalType": "uint256",
          "name": "",
          "type": "uint256"
        }
      ],
      "stateMutability": "view",
      "type": "function"
    }
  ],
  "bytecode": "0x60c060405262278d0060045560006005556001600660016101000a81548160ff0219169083151502179055503480156200003857600080fd5b506040516200250c3803806200250c83398181016040528101906200005e91906200066a565b8173ffffffffffffffffffffffffffffffffffffffff1660808173ffffffffffffffffffffffffffffffffffffffff16815250503373ffffffffffffffffffffffffffffffffffffffff1660a08173ffffffffffffffffffffffffffffffffffffffff16815250506000600160006101000a81548173ffffffffffffffffffffffffffffffffffffffff021916908373ffffffffffffffffffffffffffffffffffffffff1602179055508060029080519060200190620001209291906200036d565b50426003819055506000600660006101000a81548160ff02191690836006811115620001515762000150620006d0565b5b0217905550620001887f469f0a0947cf59c7d944c91c6f4c13c396753b8abf0036156a8c6b0c02fdc02e83620001f460201b60201c565b620001ba7fbbecb2568601cb27e6ced525237c463da94c4fb7a9b98ac79fd30fd56d8e1b5333620001f460201b60201c565b620001ec7f7dc38bfcf3f4cd184671c7e6971d68d9731e00efe0a482344cd63548133e805f33620001f460201b60201c565b5050620006ff565b6200020682826200020a60201b60201c565b5050565b6200021c8282620002fb60201b60201c565b620002f757600160008084815260200190815260200160002060000160008373ffffffffffffffffffffffffffffffffffffffff1673ffffffffffffffffffffffffffffffffffffffff16815260200190815260200160002060006101000a81548160ff0219169083151502179055506200029c6200036560201b60201c565b73ffffffffffffffffffffffffffffffffffffffff168173ffffffffffffffffffffffffffffffffffffffff16837f2f8788117e7eff1d82e926ec794901d17c78024a50270940304540a733656f0d60405160405180910390a45b5050565b600080600084815260200190815260200160002060000160008373ffffffffffffffffffffffffffffffffffffffff1673ffffffffffffffffffffffffffffffffffffffff16815260200190815260200160002060009054906101000a900460ff16905092915050565b600033905090565b82805482825590600052602060002090600f016010900481019282156200040b5791602002820160005b83821115620003d957835183826101000a81548161ffff021916908361ffff160217905550926020019260020160208160010104928301926001030262000397565b8015620004095782816101000a81549061ffff0219169055600201602081600101049283019260010302620003d9565b505b5090506200041a91906200041e565b5090565b5b80821115620004395760008160009055506001016200041f565b5090565b6000604051905090565b600080fd5b600080fd5b600073ffffffffffffffffffffffffffffffffffffffff82169050919050565b60006200047e8262000451565b9050919050565b620004908162000471565b81146200049c57600080fd5b50565b600081519050620004b08162000485565b92915050565b600080fd5b6000601f19601f8301169050919050565b7f4e487b7100000000000000000000000000000000000000000000000000000000600052604160045260246000fd5b6200050682620004bb565b810181811067ffffffffffffffff82111715620005285762000527620004cc565b5b80604052505050565b60006200053d6200043d565b90506200054b8282620004fb565b919050565b600067ffffffffffffffff8211156200056e576200056d620004cc565b5b602082029050602081019050919050565b600080fd5b600061ffff82169050919050565b6200059d8162000584565b8114620005a957600080fd5b50565b600081519050620005bd8162000592565b92915050565b6000620005da620005d48462000550565b62000531565b905080838252602082019050602084028301858111156200060057620005ff6200057f565b5b835b818110156200062d5780620006188882620005ac565b84526020840193505060208101905062000602565b5050509392505050565b600082601f8301126200064f576200064e620004b6565b5b815162000661848260208601620005c3565b91505092915050565b6000806040838503121562000684576200068362000447565b5b600062000694858286016200049f565b925050602083015167ffffffffffffffff811115620006b857620006b76200044c565b5b620006c68582860162000637565b9150509250929050565b7f4e487b7100000000000000000000000000000000000000000000000000000000600052602160045260246000fd5b60805160a051611dc46200074860003960008181610a7f01528181610b9e01528181610c3201528181610c7c0152610d990152600081816103f60152610be80152611dc46000f3fe608060405234801561001057600080fd5b50600436106101165760003560e01c806391d14854116100a2578063bd4daf2a11610071578063bd4daf2a146102cd578063ce46e046146102eb578063d547741f14610309578063e6bcc2cb14610325578063efb98bcf1461034357610116565b806391d148541461024757806392ce0e0614610277578063953ef87414610293578063a217fddf146102af57610116565b8063248a9ca3116100e9578063248a9ca3146101a35780632f2ff15d146101d357806336568abe146101ef5780633b7104f21461020b578063451b1c961461022957610116565b806301ffc9a71461011b57806309a483431461014b578063121d3f4e1461016957806322a9008214610187575b600080fd5b6101356004803603810190610130919061151e565b610361565b6040516101429190611566565b60405180910390f35b6101536103db565b6040516101609190611566565b60405180910390f35b6101716103f2565b60405161017e91906115c2565b60405180910390f35b6101a1600480360381019061019c9190611613565b61041a565b005b6101bd60048036038101906101b89190611676565b610468565b6040516101ca91906116b2565b60405180910390f35b6101ed60048036038101906101e891906116f9565b610487565b005b610209600480360381019061020491906116f9565b6104a8565b005b61021361052b565b60405161022091906117c9565b60405180910390f35b6102316108b0565b60405161023e91906118b7565b60405180910390f35b610261600480360381019061025c91906116f9565b610930565b60405161026e9190611566565b60405180910390f35b610291600480360381019061028c91906118d9565b61099a565b005b6102ad60048036038101906102a8919061192b565b610b1a565b005b6102b7610d8e565b6040516102c491906116b2565b60405180910390f35b6102d5610d95565b6040516102e291906115c2565b60405180910390f35b6102f3610dbd565b6040516103009190611566565b60405180910390f35b610323600480360381019061031e91906116f9565b610e67565b005b61032d610e88565b60405161033a91906115c2565b60405180910390f35b61034b610f39565b6040516103589190611967565b60405180910390f35b60007f7965db0b000000000000000000000000000000000000000000000000000000007bffffffffffffffffffffffffffffffffffffffffffffffffffffffff1916827bffffffffffffffffffffffffffffffffffffffffffffffffffffffff191614806103d457506103d382610fa1565b5b9050919050565b6000600660019054906101000a900460ff16905090565b60007f0000000000000000000000000000000000000000000000000000000000000000905090565b600660019054906101000a900460ff1661043357600080fd5b7fbbecb2568601cb27e6ced525237c463da94c4fb7a9b98ac79fd30fd56d8e1b5361045d8161100b565b816004819055505050565b6000806000838152602001908152602001600020600101549050919050565b61049082610468565b6104998161100b565b6104a3838361101f565b505050565b6104b06110ff565b73ffffffffffffffffffffffffffffffffffffffff168173ffffffffffffffffffffffffffffffffffffffff161461051d576040517f08c379a0000000000000000000000000000000000000000000000000000000008152600401610514906119f4565b60405180910390fd5b6105278282611107565b5050565b60606000600681111561054157610540611a14565b5b600660009054906101000a900460ff16600681111561056357610562611a14565b5b036105a5576040518060400160405280600781526020017f50656e64696e670000000000000000000000000000000000000000000000000081525090506108ad565b600160068111156105b9576105b8611a14565b5b600660009054906101000a900460ff1660068111156105db576105da611a14565b5b0361061d576040518060400160405280600481526020017f4c6174650000000000000000000000000000000000000000000000000000000081525090506108ad565b6005600681111561063157610630611a14565b5b600660009054906101000a900460ff16600681111561065357610652611a14565b5b03610695576040518060400160405280600981526020017f4469736d6973736564000000000000000000000000000000000000000000000081525090506108ad565b600460068111156106a9576106a8611a14565b5b600660009054906101000a900460ff1660068111156106cb576106ca611a14565b5b0361070d576040518060400160405280600981526020017f446973707574696e67000000000000000000000000000000000000000000000081525090506108ad565b6002600681111561072157610720611a14565b5b600660009054906101000a900460ff16600681111561074357610742611a14565b5b03610785576040518060400160405280600481526020017f506169640000000000000000000000000000000000000000000000000000000081525090506108ad565b6003600681111561079957610798611a14565b5b600660009054906101000a900460ff1660068111156107bb576107ba611a14565b5b036107fd576040518060400160405280600981526020017f43616e63656c6c6564000000000000000000000000000000000000000000000081525090506108ad565b6006808111156108105761080f611a14565b5b600660009054906101000a900460ff16600681111561083257610831611a14565b5b03610874576040518060400160405280600d81526020017f556e7265736f6c76616c626c650000000000000000000000000000000000000081525090506108ad565b6040518060400160405280600581526020017f4572726f7200000000000000000000000000000000000000000000000000000081525090505b90565b6060600280548060200260200160405190810160405280929190818152602001828054801561092657602002820191906000526020600020906000905b82829054906101000a900461ffff1661ffff16815260200190600201906020826001010492830192600103820291508084116108ed5790505b5050505050905090565b600080600084815260200190815260200160002060000160008373ffffffffffffffffffffffffffffffffffffffff1673ffffffffffffffffffffffffffffffffffffffff16815260200190815260200160002060009054906101000a900460ff16905092915050565b600660019054906101000a900460ff166109b357600080fd5b7f469f0a0947cf59c7d944c91c6f4c13c396753b8abf0036156a8c6b0c02fdc02e6109dd8161100b565b6109e5610dbd565b6109ee57600080fd5b81600160006101000a81548173ffffffffffffffffffffffffffffffffffffffff021916908373ffffffffffffffffffffffffffffffffffffffff160217905550610a597f9c4e6fd68fbdec6e3075ec7bfba710532af019aea93f5f59ebfe5a9d1a0b894e8361101f565b610aa37f7dc38bfcf3f4cd184671c7e6971d68d9731e00efe0a482344cd63548133e805f7f0000000000000000000000000000000000000000000000000000000000000000611107565b6004600660006101000a81548160ff02191690836006811115610ac957610ac8611a14565b5b02179055507f76c0bad3b7f1c74587dcb478154d4c87ae6663db97cc086b981decf4e35a797c30600660009054906101000a900460ff16604051610b0e929190611a8b565b60405180910390a15050565b600660019054906101000a900460ff16610b3357600080fd5b80600660006101000a81548160ff02191690836006811115610b5857610b57611a14565b5b02179055506000600660016101000a81548160ff021916908315150217905550610bc27f7dc38bfcf3f4cd184671c7e6971d68d9731e00efe0a482344cd63548133e805f7f0000000000000000000000000000000000000000000000000000000000000000611107565b610c0c7f469f0a0947cf59c7d944c91c6f4c13c396753b8abf0036156a8c6b0c02fdc02e7f0000000000000000000000000000000000000000000000000000000000000000611107565b610c567fbbecb2568601cb27e6ced525237c463da94c4fb7a9b98ac79fd30fd56d8e1b537f0000000000000000000000000000000000000000000000000000000000000000611107565b610ca07f7dc38bfcf3f4cd184671c7e6971d68d9731e00efe0a482344cd63548133e805f7f0000000000000000000000000000000000000000000000000000000000000000611107565b600073ffffffffffffffffffffffffffffffffffffffff16600160009054906101000a900473ffffffffffffffffffffffffffffffffffffffff1673ffffffffffffffffffffffffffffffffffffffff1614610d4357610d427f9c4e6fd68fbdec6e3075ec7bfba710532af019aea93f5f59ebfe5a9d1a0b894e600160009054906101000a900473ffffffffffffffffffffffffffffffffffffffff16611107565b5b7f76c0bad3b7f1c74587dcb478154d4c87ae6663db97cc086b981decf4e35a797c30600660009054906101000a900460ff16604051610d83929190611a8b565b60405180910390a150565b6000801b81565b60007f0000000000000000000000000000000000000000000000000000000000000000905090565b6000806006811115610dd257610dd1611a14565b5b600660009054906101000a900460ff166006811115610df457610df3611a14565b5b1480610e33575060016006811115610e0f57610e0e611a14565b5b600660009054906101000a900460ff166006811115610e3157610e30611a14565b5b145b15610e5f5760045460035442610e499190611ae3565b10610e55576000610e58565b60015b9050610e64565b600090505b90565b610e7082610468565b610e798161100b565b610e838383611107565b505050565b60008073ffffffffffffffffffffffffffffffffffffffff16600160009054906101000a900473ffffffffffffffffffffffffffffffffffffffff1673ffffffffffffffffffffffffffffffffffffffff1603610f11576040517f87f439ad00000000000000000000000000000000000000000000000000000000815260040160405180910390fd5b600160009054906101000a900473ffffffffffffffffffffffffffffffffffffffff16905090565b6000600660019054906101000a900460ff16610f81576040517f45978dec00000000000000000000000000000000000000000000000000000000815260040160405180910390fd5b42600454600354610f929190611b17565b610f9c9190611ae3565b905090565b60007f01ffc9a7000000000000000000000000000000000000000000000000000000007bffffffffffffffffffffffffffffffffffffffffffffffffffffffff1916827bffffffffffffffffffffffffffffffffffffffffffffffffffffffff1916149050919050565b61101c816110176110ff565b6111e8565b50565b6110298282610930565b6110fb57600160008084815260200190815260200160002060000160008373ffffffffffffffffffffffffffffffffffffffff1673ffffffffffffffffffffffffffffffffffffffff16815260200190815260200160002060006101000a81548160ff0219169083151502179055506110a06110ff565b73ffffffffffffffffffffffffffffffffffffffff168173ffffffffffffffffffffffffffffffffffffffff16837f2f8788117e7eff1d82e926ec794901d17c78024a50270940304540a733656f0d60405160405180910390a45b5050565b600033905090565b6111118282610930565b156111e457600080600084815260200190815260200160002060000160008373ffffffffffffffffffffffffffffffffffffffff1673ffffffffffffffffffffffffffffffffffffffff16815260200190815260200160002060006101000a81548160ff0219169083151502179055506111896110ff565b73ffffffffffffffffffffffffffffffffffffffff168173ffffffffffffffffffffffffffffffffffffffff16837ff6391f5c32d9c69d2a47ea670b442974b53935d1edc7fd64eb21e047a839171b60405160405180910390a45b5050565b6111f28282610930565b611281576112178173ffffffffffffffffffffffffffffffffffffffff166014611285565b6112258360001c6020611285565b604051602001611236929190611c1f565b6040516020818303038152906040526040517f08c379a000000000000000000000000000000000000000000000000000000000815260040161127891906117c9565b60405180910390fd5b5050565b6060600060028360026112989190611c59565b6112a29190611b17565b67ffffffffffffffff8111156112bb576112ba611c9b565b5b6040519080825280601f01601f1916602001820160405280156112ed5781602001600182028036833780820191505090505b5090507f30000000000000000000000000000000000000000000000000000000000000008160008151811061132557611324611cca565b5b60200101907effffffffffffffffffffffffffffffffffffffffffffffffffffffffffffff1916908160001a9053507f78000000000000000000000000000000000000000000000000000000000000008160018151811061138957611388611cca565b5b60200101907effffffffffffffffffffffffffffffffffffffffffffffffffffffffffffff1916908160001a905350600060018460026113c99190611c59565b6113d39190611b17565b90505b6001811115611473577f3031323334353637383961626364656600000000000000000000000000000000600f86166010811061141557611414611cca565b5b1a60f81b82828151811061142c5761142b611cca565b5b60200101907effffffffffffffffffffffffffffffffffffffffffffffffffffffffffffff1916908160001a905350600485901c94508061146c90611cf9565b90506113d6565b50600084146114b7576040517f08c379a00000000000000000000000000000000000000000000000000000000081526004016114ae90611d6e565b60405180910390fd5b8091505092915050565b600080fd5b60007fffffffff0000000000000000000000000000000000000000000000000000000082169050919050565b6114fb816114c6565b811461150657600080fd5b50565b600081359050611518816114f2565b92915050565b600060208284031215611534576115336114c1565b5b600061154284828501611509565b91505092915050565b60008115159050919050565b6115608161154b565b82525050565b600060208201905061157b6000830184611557565b92915050565b600073ffffffffffffffffffffffffffffffffffffffff82169050919050565b60006115ac82611581565b9050919050565b6115bc816115a1565b82525050565b60006020820190506115d760008301846115b3565b92915050565b6000819050919050565b6115f0816115dd565b81146115fb57600080fd5b50565b60008135905061160d816115e7565b92915050565b600060208284031215611629576116286114c1565b5b6000611637848285016115fe565b91505092915050565b6000819050919050565b61165381611640565b811461165e57600080fd5b50565b6000813590506116708161164a565b92915050565b60006020828403121561168c5761168b6114c1565b5b600061169a84828501611661565b91505092915050565b6116ac81611640565b82525050565b60006020820190506116c760008301846116a3565b92915050565b6116d6816115a1565b81146116e157600080fd5b50565b6000813590506116f3816116cd565b92915050565b600080604083850312156117105761170f6114c1565b5b600061171e85828601611661565b925050602061172f858286016116e4565b9150509250929050565b600081519050919050565b600082825260208201905092915050565b60005b83811015611773578082015181840152602081019050611758565b60008484015250505050565b6000601f19601f8301169050919050565b600061179b82611739565b6117a58185611744565b93506117b5818560208601611755565b6117be8161177f565b840191505092915050565b600060208201905081810360008301526117e38184611790565b905092915050565b600081519050919050565b600082825260208201905092915050565b6000819050602082019050919050565b600061ffff82169050919050565b61182e81611817565b82525050565b60006118408383611825565b60208301905092915050565b6000602082019050919050565b6000611864826117eb565b61186e81856117f6565b935061187983611807565b8060005b838110156118aa5781516118918882611834565b975061189c8361184c565b92505060018101905061187d565b5085935050505092915050565b600060208201905081810360008301526118d18184611859565b905092915050565b6000602082840312156118ef576118ee6114c1565b5b60006118fd848285016116e4565b91505092915050565b6007811061191357600080fd5b50565b60008135905061192581611906565b92915050565b600060208284031215611941576119406114c1565b5b600061194f84828501611916565b91505092915050565b611961816115dd565b82525050565b600060208201905061197c6000830184611958565b92915050565b7f416363657373436f6e74726f6c3a2063616e206f6e6c792072656e6f756e636560008201527f20726f6c657320666f722073656c660000000000000000000000000000000000602082015250565b60006119de602f83611744565b91506119e982611982565b604082019050919050565b60006020820190508181036000830152611a0d816119d1565b9050919050565b7f4e487b7100000000000000000000000000000000000000000000000000000000600052602160045260246000fd5b60078110611a5457611a53611a14565b5b50565b6000819050611a6582611a43565b919050565b6000611a7582611a57565b9050919050565b611a8581611a6a565b82525050565b6000604082019050611aa060008301856115b3565b611aad6020830184611a7c565b9392505050565b7f4e487b7100000000000000000000000000000000000000000000000000000000600052601160045260246000fd5b6000611aee826115dd565b9150611af9836115dd565b9250828203905081811115611b1157611b10611ab4565b5b92915050565b6000611b22826115dd565b9150611b2d836115dd565b9250828201905080821115611b4557611b44611ab4565b5b92915050565b600081905092915050565b7f416363657373436f6e74726f6c3a206163636f756e7420000000000000000000600082015250565b6000611b8c601783611b4b565b9150611b9782611b56565b601782019050919050565b6000611bad82611739565b611bb78185611b4b565b9350611bc7818560208601611755565b80840191505092915050565b7f206973206d697373696e6720726f6c6520000000000000000000000000000000600082015250565b6000611c09601183611b4b565b9150611c1482611bd3565b601182019050919050565b6000611c2a82611b7f565b9150611c368285611ba2565b9150611c4182611bfc565b9150611c4d8284611ba2565b91508190509392505050565b6000611c64826115dd565b9150611c6f836115dd565b9250828202611c7d816115dd565b91508282048414831517611c9457611c93611ab4565b5b5092915050565b7f4e487b7100000000000000000000000000000000000000000000000000000000600052604160045260246000fd5b7f4e487b7100000000000000000000000000000000000000000000000000000000600052603260045260246000fd5b6000611d04826115dd565b915060008203611d1757611d16611ab4565b5b600182039050919050565b7f537472696e67733a20686578206c656e67746820696e73756666696369656e74600082015250565b6000611d58602083611744565b9150611d6382611d22565b602082019050919050565b60006020820190508181036000830152611d8781611d4b565b905091905056fea2646970667358221220dd60c7edb5a66039f8b482c465b59a8c7ab807684e877b83891ebcb341e0c1ea64736f6c63430008110033",
  "immutableReferences": {
    "1013": [
      {
        "length": 32,
        "start": 1014
      },
      {
        "length": 32,
        "start": 3048
      }
    ],
    "1015": [
      {
        "length": 32,
        "start": 2687
      },
      {
        "length": 32,
        "start": 2974
      },
      {
        "length": 32,
        "start": 3122
      },
      {
        "length": 32,
        "start": 3196
      },
      {
        "length": 32,
        "start": 3481
      }
    ]
  },
  "source": "// SPDX-License-Identifier: MIT\npragma solidity 0.8.17;\n\nimport \"@openzeppelin/contracts/access/AccessControl.sol\";\n\n\n// errors\nerror Ticket__inactive();\nerror Ticket__NoJudgeAssigned();\n\n\n/// @title Ticket\n/// @author Samin Yaser\n/// @notice You can use this contract to issue a traffic ticket\ncontract Ticket is AccessControl {\n\n    // Events\n    event StatusChanged(address ticket_address, Status status);\n\n    // Pending: Ticket is issued and driver can pay the fine\n    // Late: Driver has been late with the payment\n    // Paid: Driver has paid the fine and ticket is closed\n    // Cancelled: Ticket is cancelled by the police due to some reason\n    // disputing: Ticket is being disputed in the court by the request of the driver\n    // dismissed: Ticket is dismissed by the court\n    // unresolvable: ???\n    enum Status {\n        pending,\n        late,\n        paid,\n        cancelled,\n        disputing,\n        dismissed,\n        unresolvable\n    }\n\n    // Roles\n    bytes32 private constant DRIVER_ROLE = keccak256(\"DRIVER_ROLE\");\n    bytes32 private constant OFFICER_ROLE = keccak256(\"OFFICER_ROLE\");\n    bytes32 private constant JUDGE_ROLE = keccak256(\"JUDGE_ROLE\");\n    bytes32 private constant CANCEL_TICKET_ROLE = keccak256(\"CANCEL_TICKET_ROLE\");\n\n    // Attributes\n    address private immutable driver;\n    address private immutable officer;\n    address private judge;\n    uint16[] private penalty_clasues;\n    uint256 private lastTimeStamp;\n    uint256 private interval = 30 days;\n    uint256 private strikes = 0;\n    Status private status;\n    bool private isActive = true; // ticket is active or not\n\n    modifier checkActive{\n        require(isActive);\n        _;\n    }\n\n    constructor(\n        address driver_,\n        uint16[] memory penalty_clasues_\n        )\n    {\n\n        driver = driver_;\n        officer = msg.sender;\n        judge = address(0);\n        penalty_clasues = penalty_clasues_;\n\n        lastTimeStamp = block.timestamp;\n\n        status = Status.pending;\n\n        _setupRole(DRIVER_ROLE, driver_);\n        _setupRole(OFFICER_ROLE, msg.sender);\n        _setupRole(CANCEL_TICKET_ROLE, msg.sender);\n    }\n\n    /// @notice Owner can request a hearing in court\n    /// @dev must provide wallet address of the judge\n    function requestHearing(address judge_) public checkActive onlyRole(DRIVER_ROLE) {\n        require(isPayable());\n\n        judge = judge_;\n        _grantRole(JUDGE_ROLE, judge_);\n\n        _revokeRole(CANCEL_TICKET_ROLE, officer); // officer can't cancel the ticket anymore\n        status = Status.disputing;\n\n        emit StatusChanged(address(this), status);\n    }\n\n    function checkStatus() external view returns(string memory) {\n\n        // return uint256(status);\n        // Ugly but gas efficient\n        if (status == Status.pending) return \"Pending\";\n        if (status == Status.late) return \"Late\";\n        if (status == Status.dismissed) return \"Dismissed\";\n        if (status == Status.disputing) return \"Disputing\";\n        if (status == Status.paid) return \"Paid\";\n        if (status == Status.cancelled) return \"Cancelled\";\n        if (status == Status.unresolvable) return \"Unresolvalble\";\n        return \"Error\";\n    }\n\n    /// @notice Resolves the ticket for good.\n    function resolveTicket(Status status_) external checkActive {\n        status = status_;\n        isActive = false;\n\n        // Revoke all roles\n        _revokeRole(CANCEL_TICKET_ROLE, officer);\n        _revokeRole(DRIVER_ROLE, driver);\n        _revokeRole(OFFICER_ROLE, officer);\n        _revokeRole(CANCEL_TICKET_ROLE, officer);\n        if(judge != address(0)) {\n            _revokeRole(JUDGE_ROLE, judge);\n        }\n\n        emit StatusChanged(address(this), status);\n    }\n\n    /// @dev set interval in days\n    function setInterval(uint256 interval_) external checkActive onlyRole(OFFICER_ROLE) {\n        interval = interval_;\n    }\n\n    function isPayable() public view returns(bool) {\n        if (status == Status.pending || status == Status.late) {\n            return (block.timestamp - lastTimeStamp) < interval ? true : false;\n        }\n        return false;\n    }\n\n    function isTicketActive() external view returns(bool) {\n        return isActive;\n    }\n\n    function getDriverAddress() external view returns(address) {\n        return driver;\n    }\n\n    function getOfficerAddress() external view returns(address) {\n        return officer;\n    }\n\n    function getJudgeAddress() external view returns(address) {\n        if(judge == address(0)) {\n            revert Ticket__NoJudgeAssigned();\n        }\n        return judge;\n    }\n\n    function getCharges() external view returns(uint16[] memory) {\n        return penalty_clasues;\n    }\n\n\n    function getRemainingTime() external view returns(uint256) {\n        if(!isActive) {\n            revert Ticket__inactive();\n        }\n\n        return (lastTimeStamp + interval) - block.timestamp;\n    }\n}\n",
  "sourcePath": "C:\\Users\\samin\\Documents\\Projects\\AWT\\TraffiChain\\contracts\\Ticket.sol",
  "compiler": {
    "name": "solc",
    "version": "0.8.17+commit.8df45f5f.Emscripten.clang"
  },
  "schemaVersion": "3.4.10",
  "updatedAt": "2022-11-04T14:12:01.253Z",
  "devdoc": {
    "author": "Samin Yaser",
    "kind": "dev",
    "methods": {
      "getRoleAdmin(bytes32)": {
        "details": "Returns the admin role that controls `role`. See {grantRole} and {revokeRole}. To change a role's admin, use {_setRoleAdmin}."
      },
      "grantRole(bytes32,address)": {
        "details": "Grants `role` to `account`. If `account` had not been already granted `role`, emits a {RoleGranted} event. Requirements: - the caller must have ``role``'s admin role. May emit a {RoleGranted} event."
      },
      "hasRole(bytes32,address)": {
        "details": "Returns `true` if `account` has been granted `role`."
      },
      "renounceRole(bytes32,address)": {
        "details": "Revokes `role` from the calling account. Roles are often managed via {grantRole} and {revokeRole}: this function's purpose is to provide a mechanism for accounts to lose their privileges if they are compromised (such as when a trusted device is misplaced). If the calling account had been revoked `role`, emits a {RoleRevoked} event. Requirements: - the caller must be `account`. May emit a {RoleRevoked} event."
      },
      "requestHearing(address)": {
        "details": "must provide wallet address of the judge"
      },
      "revokeRole(bytes32,address)": {
        "details": "Revokes `role` from `account`. If `account` had been granted `role`, emits a {RoleRevoked} event. Requirements: - the caller must have ``role``'s admin role. May emit a {RoleRevoked} event."
      },
      "setInterval(uint256)": {
        "details": "set interval in days"
      },
      "supportsInterface(bytes4)": {
        "details": "See {IERC165-supportsInterface}."
      }
    },
    "title": "Ticket",
    "version": 1
  },
  "userdoc": {
    "kind": "user",
    "methods": {
      "requestHearing(address)": {
        "notice": "Owner can request a hearing in court"
      },
      "resolveTicket(uint8)": {
        "notice": "Resolves the ticket for good."
      }
    },
    "notice": "You can use this contract to issue a traffic ticket",
    "version": 1
  }
}