{
  "contractName": "Ticket",
  "abi": [
    {
      "inputs": [
        {
          "internalType": "address",
          "name": "owner_",
          "type": "address"
        },
        {
          "internalType": "address",
          "name": "driver_",
          "type": "address"
        },
        {
          "internalType": "uint16[]",
          "name": "penalty_clasues_",
          "type": "uint16[]"
        }
      ],
      "stateMutability": "nonpayable",
      "type": "constructor"
    },
    {
      "inputs": [],
      "name": "Ticket__NoJudgeAssigned",
      "type": "error"
    },
    {
      "inputs": [],
      "name": "Ticket__inactive",
      "type": "error"
    },
    {
      "anonymous": false,
      "inputs": [
        {
          "indexed": true,
          "internalType": "bytes32",
          "name": "role",
          "type": "bytes32"
        },
        {
          "indexed": true,
          "internalType": "bytes32",
          "name": "previousAdminRole",
          "type": "bytes32"
        },
        {
          "indexed": true,
          "internalType": "bytes32",
          "name": "newAdminRole",
          "type": "bytes32"
        }
      ],
      "name": "RoleAdminChanged",
      "type": "event"
    },
    {
      "anonymous": false,
      "inputs": [
        {
          "indexed": true,
          "internalType": "bytes32",
          "name": "role",
          "type": "bytes32"
        },
        {
          "indexed": true,
          "internalType": "address",
          "name": "account",
          "type": "address"
        },
        {
          "indexed": true,
          "internalType": "address",
          "name": "sender",
          "type": "address"
        }
      ],
      "name": "RoleGranted",
      "type": "event"
    },
    {
      "anonymous": false,
      "inputs": [
        {
          "indexed": true,
          "internalType": "bytes32",
          "name": "role",
          "type": "bytes32"
        },
        {
          "indexed": true,
          "internalType": "address",
          "name": "account",
          "type": "address"
        },
        {
          "indexed": true,
          "internalType": "address",
          "name": "sender",
          "type": "address"
        }
      ],
      "name": "RoleRevoked",
      "type": "event"
    },
    {
      "anonymous": false,
      "inputs": [
        {
          "indexed": false,
          "internalType": "address",
          "name": "ticket_address",
          "type": "address"
        },
        {
          "indexed": false,
          "internalType": "enum Ticket.Status",
          "name": "status",
          "type": "uint8"
        }
      ],
      "name": "StatusChanged",
      "type": "event"
    },
    {
      "inputs": [],
      "name": "DEFAULT_ADMIN_ROLE",
      "outputs": [
        {
          "internalType": "bytes32",
          "name": "",
          "type": "bytes32"
        }
      ],
      "stateMutability": "view",
      "type": "function"
    },
    {
      "inputs": [
        {
          "internalType": "bytes32",
          "name": "role",
          "type": "bytes32"
        }
      ],
      "name": "getRoleAdmin",
      "outputs": [
        {
          "internalType": "bytes32",
          "name": "",
          "type": "bytes32"
        }
      ],
      "stateMutability": "view",
      "type": "function"
    },
    {
      "inputs": [
        {
          "internalType": "bytes32",
          "name": "role",
          "type": "bytes32"
        },
        {
          "internalType": "address",
          "name": "account",
          "type": "address"
        }
      ],
      "name": "grantRole",
      "outputs": [],
      "stateMutability": "nonpayable",
      "type": "function"
    },
    {
      "inputs": [
        {
          "internalType": "bytes32",
          "name": "role",
          "type": "bytes32"
        },
        {
          "internalType": "address",
          "name": "account",
          "type": "address"
        }
      ],
      "name": "hasRole",
      "outputs": [
        {
          "internalType": "bool",
          "name": "",
          "type": "bool"
        }
      ],
      "stateMutability": "view",
      "type": "function"
    },
    {
      "inputs": [
        {
          "internalType": "bytes32",
          "name": "role",
          "type": "bytes32"
        },
        {
          "internalType": "address",
          "name": "account",
          "type": "address"
        }
      ],
      "name": "renounceRole",
      "outputs": [],
      "stateMutability": "nonpayable",
      "type": "function"
    },
    {
      "inputs": [
        {
          "internalType": "bytes32",
          "name": "role",
          "type": "bytes32"
        },
        {
          "internalType": "address",
          "name": "account",
          "type": "address"
        }
      ],
      "name": "revokeRole",
      "outputs": [],
      "stateMutability": "nonpayable",
      "type": "function"
    },
    {
      "inputs": [
        {
          "internalType": "bytes4",
          "name": "interfaceId",
          "type": "bytes4"
        }
      ],
      "name": "supportsInterface",
      "outputs": [
        {
          "internalType": "bool",
          "name": "",
          "type": "bool"
        }
      ],
      "stateMutability": "view",
      "type": "function"
    },
    {
      "inputs": [
        {
          "internalType": "address",
          "name": "judge_",
          "type": "address"
        }
      ],
      "name": "requestHearing",
      "outputs": [],
      "stateMutability": "nonpayable",
      "type": "function"
    },
    {
      "inputs": [],
      "name": "checkStatus",
      "outputs": [
        {
          "internalType": "uint256",
          "name": "",
          "type": "uint256"
        }
      ],
      "stateMutability": "view",
      "type": "function"
    },
    {
      "inputs": [
        {
          "internalType": "enum Ticket.Status",
          "name": "status_",
          "type": "uint8"
        }
      ],
      "name": "resolveTicket",
      "outputs": [],
      "stateMutability": "nonpayable",
      "type": "function"
    },
    {
      "inputs": [],
      "name": "isPayable",
      "outputs": [
        {
          "internalType": "bool",
          "name": "",
          "type": "bool"
        }
      ],
      "stateMutability": "view",
      "type": "function"
    },
    {
      "inputs": [],
      "name": "getOwnerAddress",
      "outputs": [
        {
          "internalType": "address",
          "name": "",
          "type": "address"
        }
      ],
      "stateMutability": "view",
      "type": "function"
    },
    {
      "inputs": [],
      "name": "getDriverAddress",
      "outputs": [
        {
          "internalType": "address",
          "name": "",
          "type": "address"
        }
      ],
      "stateMutability": "view",
      "type": "function"
    },
    {
      "inputs": [],
      "name": "getOfficerAddress",
      "outputs": [
        {
          "internalType": "address",
          "name": "",
          "type": "address"
        }
      ],
      "stateMutability": "view",
      "type": "function"
    },
    {
      "inputs": [],
      "name": "getJudgeAddress",
      "outputs": [
        {
          "internalType": "address",
          "name": "",
          "type": "address"
        }
      ],
      "stateMutability": "view",
      "type": "function"
    },
    {
      "inputs": [],
      "name": "getCharges",
      "outputs": [
        {
          "internalType": "uint16[]",
          "name": "",
          "type": "uint16[]"
        }
      ],
      "stateMutability": "view",
      "type": "function"
    },
    {
      "inputs": [],
      "name": "getRemainingTime",
      "outputs": [
        {
          "internalType": "uint256",
          "name": "",
          "type": "uint256"
        }
      ],
      "stateMutability": "view",
      "type": "function"
    }
  ],
  "bytecode": "0x60e06040526001600460016101000a81548160ff0219169083151502179055503480156200002c57600080fd5b5060405162002181380380620021818339818101604052810190620000529190620006c5565b8273ffffffffffffffffffffffffffffffffffffffff1660808173ffffffffffffffffffffffffffffffffffffffff16815250508173ffffffffffffffffffffffffffffffffffffffff1660a08173ffffffffffffffffffffffffffffffffffffffff16815250503373ffffffffffffffffffffffffffffffffffffffff1660c08173ffffffffffffffffffffffffffffffffffffffff16815250506000600160006101000a81548173ffffffffffffffffffffffffffffffffffffffff021916908373ffffffffffffffffffffffffffffffffffffffff160217905550806002908051906020019062000148929190620003c8565b50426003819055506000600460006101000a81548160ff0219169083600581111562000179576200017862000740565b5b0217905550620001b07fb19546dff01e856fb3f010c267a7b1c60363cf8a4664e21cc89c26224620214e846200024f60201b60201c565b620001e27f469f0a0947cf59c7d944c91c6f4c13c396753b8abf0036156a8c6b0c02fdc02e836200024f60201b60201c565b620002147fbbecb2568601cb27e6ced525237c463da94c4fb7a9b98ac79fd30fd56d8e1b53336200024f60201b60201c565b620002467f7dc38bfcf3f4cd184671c7e6971d68d9731e00efe0a482344cd63548133e805f336200024f60201b60201c565b5050506200076f565b6200026182826200026560201b60201c565b5050565b6200027782826200035660201b60201c565b6200035257600160008084815260200190815260200160002060000160008373ffffffffffffffffffffffffffffffffffffffff1673ffffffffffffffffffffffffffffffffffffffff16815260200190815260200160002060006101000a81548160ff021916908315150217905550620002f7620003c060201b60201c565b73ffffffffffffffffffffffffffffffffffffffff168173ffffffffffffffffffffffffffffffffffffffff16837f2f8788117e7eff1d82e926ec794901d17c78024a50270940304540a733656f0d60405160405180910390a45b5050565b600080600084815260200190815260200160002060000160008373ffffffffffffffffffffffffffffffffffffffff1673ffffffffffffffffffffffffffffffffffffffff16815260200190815260200160002060009054906101000a900460ff16905092915050565b600033905090565b82805482825590600052602060002090600f01601090048101928215620004665791602002820160005b838211156200043457835183826101000a81548161ffff021916908361ffff1602179055509260200192600201602081600101049283019260010302620003f2565b8015620004645782816101000a81549061ffff021916905560020160208160010104928301926001030262000434565b505b50905062000475919062000479565b5090565b5b80821115620004945760008160009055506001016200047a565b5090565b6000604051905090565b600080fd5b600080fd5b600073ffffffffffffffffffffffffffffffffffffffff82169050919050565b6000620004d982620004ac565b9050919050565b620004eb81620004cc565b8114620004f757600080fd5b50565b6000815190506200050b81620004e0565b92915050565b600080fd5b6000601f19601f8301169050919050565b7f4e487b7100000000000000000000000000000000000000000000000000000000600052604160045260246000fd5b620005618262000516565b810181811067ffffffffffffffff8211171562000583576200058262000527565b5b80604052505050565b60006200059862000498565b9050620005a6828262000556565b919050565b600067ffffffffffffffff821115620005c957620005c862000527565b5b602082029050602081019050919050565b600080fd5b600061ffff82169050919050565b620005f881620005df565b81146200060457600080fd5b50565b6000815190506200061881620005ed565b92915050565b6000620006356200062f84620005ab565b6200058c565b905080838252602082019050602084028301858111156200065b576200065a620005da565b5b835b8181101562000688578062000673888262000607565b8452602084019350506020810190506200065d565b5050509392505050565b600082601f830112620006aa57620006a962000511565b5b8151620006bc8482602086016200061e565b91505092915050565b600080600060608486031215620006e157620006e0620004a2565b5b6000620006f186828701620004fa565b93505060206200070486828701620004fa565b925050604084015167ffffffffffffffff811115620007285762000727620004a7565b5b620007368682870162000692565b9150509250925092565b7f4e487b7100000000000000000000000000000000000000000000000000000000600052602160045260246000fd5b60805160a05160c0516119b8620007c9600039600081816106bf015281816107de015281816108bc015281816109060152610a230152600081816103e001526108280152600081816103b8015261087201526119b86000f3fe608060405234801561001057600080fd5b506004361061010b5760003560e01c806391d14854116100a2578063bd4daf2a11610071578063bd4daf2a146102a6578063ce46e046146102c4578063d547741f146102e2578063e6bcc2cb146102fe578063efb98bcf1461031c5761010b565b806391d148541461022057806392ce0e0614610250578063953ef8741461026c578063a217fddf146102885761010b565b80632f2ff15d116100de5780632f2ff15d146101ac57806336568abe146101c85780633b7104f2146101e4578063451b1c96146102025761010b565b806301ffc9a7146101105780630c4f65bd14610140578063121d3f4e1461015e578063248a9ca31461017c575b600080fd5b61012a6004803603810190610125919061116b565b61033a565b60405161013791906111b3565b60405180910390f35b6101486103b4565b604051610155919061120f565b60405180910390f35b6101666103dc565b604051610173919061120f565b60405180910390f35b61019660048036038101906101919190611260565b610404565b6040516101a3919061129c565b60405180910390f35b6101c660048036038101906101c191906112e3565b610423565b005b6101e260048036038101906101dd91906112e3565b610444565b005b6101ec6104c7565b6040516101f9919061133c565b60405180910390f35b61020a6104f0565b6040516102179190611423565b60405180910390f35b61023a600480360381019061023591906112e3565b610570565b60405161024791906111b3565b60405180910390f35b61026a60048036038101906102659190611445565b6105da565b005b61028660048036038101906102819190611497565b61075a565b005b610290610a18565b60405161029d919061129c565b60405180910390f35b6102ae610a1f565b6040516102bb919061120f565b60405180910390f35b6102cc610a47565b6040516102d991906111b3565b60405180910390f35b6102fc60048036038101906102f791906112e3565b610ab3565b005b610306610ad4565b604051610313919061120f565b60405180910390f35b610324610b85565b604051610331919061133c565b60405180910390f35b60007f7965db0b000000000000000000000000000000000000000000000000000000007bffffffffffffffffffffffffffffffffffffffffffffffffffffffff1916827bffffffffffffffffffffffffffffffffffffffffffffffffffffffff191614806103ad57506103ac82610bee565b5b9050919050565b60007f0000000000000000000000000000000000000000000000000000000000000000905090565b60007f0000000000000000000000000000000000000000000000000000000000000000905090565b6000806000838152602001908152602001600020600101549050919050565b61042c82610404565b61043581610c58565b61043f8383610c6c565b505050565b61044c610d4c565b73ffffffffffffffffffffffffffffffffffffffff168173ffffffffffffffffffffffffffffffffffffffff16146104b9576040517f08c379a00000000000000000000000000000000000000000000000000000000081526004016104b090611547565b60405180910390fd5b6104c38282610d54565b5050565b6000600460009054906101000a900460ff1660058111156104eb576104ea611567565b5b905090565b6060600280548060200260200160405190810160405280929190818152602001828054801561056657602002820191906000526020600020906000905b82829054906101000a900461ffff1661ffff168152602001906002019060208260010104928301926001038202915080841161052d5790505b5050505050905090565b600080600084815260200190815260200160002060000160008373ffffffffffffffffffffffffffffffffffffffff1673ffffffffffffffffffffffffffffffffffffffff16815260200190815260200160002060009054906101000a900460ff16905092915050565b600460019054906101000a900460ff166105f357600080fd5b7fb19546dff01e856fb3f010c267a7b1c60363cf8a4664e21cc89c26224620214e61061d81610c58565b610625610a47565b61062e57600080fd5b81600160006101000a81548173ffffffffffffffffffffffffffffffffffffffff021916908373ffffffffffffffffffffffffffffffffffffffff1602179055506106997f9c4e6fd68fbdec6e3075ec7bfba710532af019aea93f5f59ebfe5a9d1a0b894e83610c6c565b6106e37f7dc38bfcf3f4cd184671c7e6971d68d9731e00efe0a482344cd63548133e805f7f0000000000000000000000000000000000000000000000000000000000000000610d54565b6003600460006101000a81548160ff0219169083600581111561070957610708611567565b5b02179055507f76c0bad3b7f1c74587dcb478154d4c87ae6663db97cc086b981decf4e35a797c30600460009054906101000a900460ff1660405161074e9291906115de565b60405180910390a15050565b600460019054906101000a900460ff1661077357600080fd5b80600460006101000a81548160ff0219169083600581111561079857610797611567565b5b02179055506000600460016101000a81548160ff0219169083151502179055506108027f7dc38bfcf3f4cd184671c7e6971d68d9731e00efe0a482344cd63548133e805f7f0000000000000000000000000000000000000000000000000000000000000000610d54565b61084c7f469f0a0947cf59c7d944c91c6f4c13c396753b8abf0036156a8c6b0c02fdc02e7f0000000000000000000000000000000000000000000000000000000000000000610d54565b6108967fb19546dff01e856fb3f010c267a7b1c60363cf8a4664e21cc89c26224620214e7f0000000000000000000000000000000000000000000000000000000000000000610d54565b6108e07fbbecb2568601cb27e6ced525237c463da94c4fb7a9b98ac79fd30fd56d8e1b537f0000000000000000000000000000000000000000000000000000000000000000610d54565b61092a7f7dc38bfcf3f4cd184671c7e6971d68d9731e00efe0a482344cd63548133e805f7f0000000000000000000000000000000000000000000000000000000000000000610d54565b600073ffffffffffffffffffffffffffffffffffffffff16600160009054906101000a900473ffffffffffffffffffffffffffffffffffffffff1673ffffffffffffffffffffffffffffffffffffffff16146109cd576109cc7f9c4e6fd68fbdec6e3075ec7bfba710532af019aea93f5f59ebfe5a9d1a0b894e600160009054906101000a900473ffffffffffffffffffffffffffffffffffffffff16610d54565b5b7f76c0bad3b7f1c74587dcb478154d4c87ae6663db97cc086b981decf4e35a797c30600460009054906101000a900460ff16604051610a0d9291906115de565b60405180910390a150565b6000801b81565b60007f0000000000000000000000000000000000000000000000000000000000000000905090565b6000806005811115610a5c57610a5b611567565b5b600460009054906101000a900460ff166005811115610a7e57610a7d611567565b5b03610aab5762278d0060035442610a959190611636565b10610aa1576000610aa4565b60015b9050610ab0565b600090505b90565b610abc82610404565b610ac581610c58565b610acf8383610d54565b505050565b60008073ffffffffffffffffffffffffffffffffffffffff16600160009054906101000a900473ffffffffffffffffffffffffffffffffffffffff1673ffffffffffffffffffffffffffffffffffffffff1603610b5d576040517f87f439ad00000000000000000000000000000000000000000000000000000000815260040160405180910390fd5b600160009054906101000a900473ffffffffffffffffffffffffffffffffffffffff16905090565b6000600460019054906101000a900460ff16610bcd576040517f45978dec00000000000000000000000000000000000000000000000000000000815260040160405180910390fd5b4262278d00600354610bdf919061166a565b610be99190611636565b905090565b60007f01ffc9a7000000000000000000000000000000000000000000000000000000007bffffffffffffffffffffffffffffffffffffffffffffffffffffffff1916827bffffffffffffffffffffffffffffffffffffffffffffffffffffffff1916149050919050565b610c6981610c64610d4c565b610e35565b50565b610c768282610570565b610d4857600160008084815260200190815260200160002060000160008373ffffffffffffffffffffffffffffffffffffffff1673ffffffffffffffffffffffffffffffffffffffff16815260200190815260200160002060006101000a81548160ff021916908315150217905550610ced610d4c565b73ffffffffffffffffffffffffffffffffffffffff168173ffffffffffffffffffffffffffffffffffffffff16837f2f8788117e7eff1d82e926ec794901d17c78024a50270940304540a733656f0d60405160405180910390a45b5050565b600033905090565b610d5e8282610570565b15610e3157600080600084815260200190815260200160002060000160008373ffffffffffffffffffffffffffffffffffffffff1673ffffffffffffffffffffffffffffffffffffffff16815260200190815260200160002060006101000a81548160ff021916908315150217905550610dd6610d4c565b73ffffffffffffffffffffffffffffffffffffffff168173ffffffffffffffffffffffffffffffffffffffff16837ff6391f5c32d9c69d2a47ea670b442974b53935d1edc7fd64eb21e047a839171b60405160405180910390a45b5050565b610e3f8282610570565b610ece57610e648173ffffffffffffffffffffffffffffffffffffffff166014610ed2565b610e728360001c6020610ed2565b604051602001610e839291906117a7565b6040516020818303038152906040526040517f08c379a0000000000000000000000000000000000000000000000000000000008152600401610ec5919061182b565b60405180910390fd5b5050565b606060006002836002610ee5919061184d565b610eef919061166a565b67ffffffffffffffff811115610f0857610f0761188f565b5b6040519080825280601f01601f191660200182016040528015610f3a5781602001600182028036833780820191505090505b5090507f300000000000000000000000000000000000000000000000000000000000000081600081518110610f7257610f716118be565b5b60200101907effffffffffffffffffffffffffffffffffffffffffffffffffffffffffffff1916908160001a9053507f780000000000000000000000000000000000000000000000000000000000000081600181518110610fd657610fd56118be565b5b60200101907effffffffffffffffffffffffffffffffffffffffffffffffffffffffffffff1916908160001a90535060006001846002611016919061184d565b611020919061166a565b90505b60018111156110c0577f3031323334353637383961626364656600000000000000000000000000000000600f861660108110611062576110616118be565b5b1a60f81b828281518110611079576110786118be565b5b60200101907effffffffffffffffffffffffffffffffffffffffffffffffffffffffffffff1916908160001a905350600485901c9450806110b9906118ed565b9050611023565b5060008414611104576040517f08c379a00000000000000000000000000000000000000000000000000000000081526004016110fb90611962565b60405180910390fd5b8091505092915050565b600080fd5b60007fffffffff0000000000000000000000000000000000000000000000000000000082169050919050565b61114881611113565b811461115357600080fd5b50565b6000813590506111658161113f565b92915050565b6000602082840312156111815761118061110e565b5b600061118f84828501611156565b91505092915050565b60008115159050919050565b6111ad81611198565b82525050565b60006020820190506111c860008301846111a4565b92915050565b600073ffffffffffffffffffffffffffffffffffffffff82169050919050565b60006111f9826111ce565b9050919050565b611209816111ee565b82525050565b60006020820190506112246000830184611200565b92915050565b6000819050919050565b61123d8161122a565b811461124857600080fd5b50565b60008135905061125a81611234565b92915050565b6000602082840312156112765761127561110e565b5b60006112848482850161124b565b91505092915050565b6112968161122a565b82525050565b60006020820190506112b1600083018461128d565b92915050565b6112c0816111ee565b81146112cb57600080fd5b50565b6000813590506112dd816112b7565b92915050565b600080604083850312156112fa576112f961110e565b5b60006113088582860161124b565b9250506020611319858286016112ce565b9150509250929050565b6000819050919050565b61133681611323565b82525050565b6000602082019050611351600083018461132d565b92915050565b600081519050919050565b600082825260208201905092915050565b6000819050602082019050919050565b600061ffff82169050919050565b61139a81611383565b82525050565b60006113ac8383611391565b60208301905092915050565b6000602082019050919050565b60006113d082611357565b6113da8185611362565b93506113e583611373565b8060005b838110156114165781516113fd88826113a0565b9750611408836113b8565b9250506001810190506113e9565b5085935050505092915050565b6000602082019050818103600083015261143d81846113c5565b905092915050565b60006020828403121561145b5761145a61110e565b5b6000611469848285016112ce565b91505092915050565b6006811061147f57600080fd5b50565b60008135905061149181611472565b92915050565b6000602082840312156114ad576114ac61110e565b5b60006114bb84828501611482565b91505092915050565b600082825260208201905092915050565b7f416363657373436f6e74726f6c3a2063616e206f6e6c792072656e6f756e636560008201527f20726f6c657320666f722073656c660000000000000000000000000000000000602082015250565b6000611531602f836114c4565b915061153c826114d5565b604082019050919050565b6000602082019050818103600083015261156081611524565b9050919050565b7f4e487b7100000000000000000000000000000000000000000000000000000000600052602160045260246000fd5b600681106115a7576115a6611567565b5b50565b60008190506115b882611596565b919050565b60006115c8826115aa565b9050919050565b6115d8816115bd565b82525050565b60006040820190506115f36000830185611200565b61160060208301846115cf565b9392505050565b7f4e487b7100000000000000000000000000000000000000000000000000000000600052601160045260246000fd5b600061164182611323565b915061164c83611323565b925082820390508181111561166457611663611607565b5b92915050565b600061167582611323565b915061168083611323565b925082820190508082111561169857611697611607565b5b92915050565b600081905092915050565b7f416363657373436f6e74726f6c3a206163636f756e7420000000000000000000600082015250565b60006116df60178361169e565b91506116ea826116a9565b601782019050919050565b600081519050919050565b60005b8381101561171e578082015181840152602081019050611703565b60008484015250505050565b6000611735826116f5565b61173f818561169e565b935061174f818560208601611700565b80840191505092915050565b7f206973206d697373696e6720726f6c6520000000000000000000000000000000600082015250565b600061179160118361169e565b915061179c8261175b565b601182019050919050565b60006117b2826116d2565b91506117be828561172a565b91506117c982611784565b91506117d5828461172a565b91508190509392505050565b6000601f19601f8301169050919050565b60006117fd826116f5565b61180781856114c4565b9350611817818560208601611700565b611820816117e1565b840191505092915050565b6000602082019050818103600083015261184581846117f2565b905092915050565b600061185882611323565b915061186383611323565b925082820261187181611323565b9150828204841483151761188857611887611607565b5b5092915050565b7f4e487b7100000000000000000000000000000000000000000000000000000000600052604160045260246000fd5b7f4e487b7100000000000000000000000000000000000000000000000000000000600052603260045260246000fd5b60006118f882611323565b91506000820361190b5761190a611607565b5b600182039050919050565b7f537472696e67733a20686578206c656e67746820696e73756666696369656e74600082015250565b600061194c6020836114c4565b915061195782611916565b602082019050919050565b6000602082019050818103600083015261197b8161193f565b905091905056fea264697066735822122040f1f918606f455eb6b994cdeaf2bcf5591157626e6b74ad4adba2958beadfbb64736f6c63430008110033",
  "immutableReferences": {
    "873": [
      {
        "length": 32,
        "start": 952
      },
      {
        "length": 32,
        "start": 2162
      }
    ],
    "875": [
      {
        "length": 32,
        "start": 992
      },
      {
        "length": 32,
        "start": 2088
      }
    ],
    "877": [
      {
        "length": 32,
        "start": 1727
      },
      {
        "length": 32,
        "start": 2014
      },
      {
        "length": 32,
        "start": 2236
      },
      {
        "length": 32,
        "start": 2310
      },
      {
        "length": 32,
        "start": 2595
      }
    ]
  },
  "source": "// SPDX-License-Identifier: MIT\npragma solidity 0.8.17;\n\nimport \"@openzeppelin/contracts/access/AccessControl.sol\";\n\n\n// errors\nerror Ticket__inactive();\nerror Ticket__NoJudgeAssigned();\n\n\n/// @title Ticket\n/// @author Samin Yaser\n/// @notice You can use this contract to issue a traffic ticket\ncontract Ticket is AccessControl {\n\n    // Events\n    event StatusChanged(address ticket_address, Status status);\n\n    enum Status {\n        pending,\n        paid,\n        cancelled,\n        disputing,\n        dismissed,\n        unresolvable\n    }\n\n    // Roles\n    bytes32 private constant DRIVER_ROLE = keccak256(\"DRIVER_ROLE\");\n    bytes32 private constant OFFICER_ROLE = keccak256(\"OFFICER_ROLE\");\n    bytes32 private constant OWNER_ROLE = keccak256(\"OWNER_ROLE\");\n    bytes32 private constant JUDGE_ROLE = keccak256(\"JUDGE_ROLE\");\n    bytes32 private constant CANCEL_TICKET_ROLE = keccak256(\"CANCEL_TICKET_ROLE\");\n\n    // Attributes\n    address private immutable owner;\n    address private immutable driver;\n    address private immutable officer;\n    address private judge;\n    uint16[] private penalty_clasues;\n    uint256 private lastTimeStamp;\n    uint256 private constant interval = 30 days;\n    Status private status;\n    bool private isActive = true;\n\n    modifier checkActive{\n        require(isActive);\n        _;\n    }\n\n    constructor(\n        address owner_,\n        address driver_,\n        uint16[] memory penalty_clasues_\n        )\n    {\n\n        owner = owner_;\n        driver = driver_;\n        officer = msg.sender;\n        judge = address(0);\n        penalty_clasues = penalty_clasues_;\n\n        lastTimeStamp = block.timestamp;\n\n        status = Status.pending;\n\n        _setupRole(OWNER_ROLE, owner_);\n        _setupRole(DRIVER_ROLE, driver_);\n        _setupRole(OFFICER_ROLE, msg.sender);\n        _setupRole(CANCEL_TICKET_ROLE, msg.sender);\n    }\n\n    /// @notice Owner can request a hearing in court\n    /// @dev must provide wallet address of the judge\n    function requestHearing(address judge_) public checkActive onlyRole(OWNER_ROLE) {\n        require(isPayable());\n\n        judge = judge_;\n        _grantRole(JUDGE_ROLE, judge_);\n\n        _revokeRole(CANCEL_TICKET_ROLE, officer);\n        status = Status.disputing;\n\n        emit StatusChanged(address(this), status);\n    }\n\n    function checkStatus() external view returns(uint256) {\n\n        return uint256(status);\n        // // Ugly but gas efficient\n        // if (status == Status.pending) return \"Pending\";\n        // if (status == Status.dismissed) return \"Dismissed\";\n        // if (status == Status.disputing) return \"Disputing\";\n        // if (status == Status.paid) return \"Paid\";\n        // if (status == Status.cancelled) return \"Cancelled\";\n        // if (status == Status.unresolvable) return \"Unresolvalble\";\n        // return \"Error\";\n    }\n\n    /// @notice Resolves the ticket for good.\n    function resolveTicket(Status status_) external checkActive {\n        status = status_;\n        isActive = false;\n\n        // Revoke all roles\n        _revokeRole(CANCEL_TICKET_ROLE, officer);\n        _revokeRole(DRIVER_ROLE, driver);\n        _revokeRole(OWNER_ROLE, owner);\n        _revokeRole(OFFICER_ROLE, officer);\n        _revokeRole(CANCEL_TICKET_ROLE, officer);\n        if(judge != address(0)) {\n            _revokeRole(JUDGE_ROLE, judge);\n        }\n\n        emit StatusChanged(address(this), status);\n    }\n\n    function isPayable() public view returns(bool) {\n        if (status == Status.pending) {\n            return (block.timestamp - lastTimeStamp) < interval ? true : false;\n        }\n        return false;\n    }\n\n    function getOwnerAddress() external view returns(address) {\n        return owner;\n    }\n\n    function getDriverAddress() external view returns(address) {\n        return driver;\n    }\n\n    function getOfficerAddress() external view returns(address) {\n        return officer;\n    }\n\n    function getJudgeAddress() external view returns(address) {\n        if(judge == address(0)) {\n            revert Ticket__NoJudgeAssigned();\n        }\n        return judge;\n    }\n\n    function getCharges() external view returns(uint16[] memory) {\n        return penalty_clasues;\n    }\n\n    function getRemainingTime() external view returns(uint256) {\n        if(!isActive) {\n            revert Ticket__inactive();\n        }\n\n        return (lastTimeStamp + interval) - block.timestamp;\n    }\n}\n",
  "sourcePath": "C:\\Users\\samin\\Documents\\Projects\\AWT\\TraffiChain\\contracts\\Ticket.sol",
  "compiler": {
    "name": "solc",
    "version": "0.8.17+commit.8df45f5f.Emscripten.clang"
  },
  "schemaVersion": "3.4.10",
  "updatedAt": "2022-11-02T05:56:43.499Z",
  "devdoc": {
    "author": "Samin Yaser",
    "kind": "dev",
    "methods": {
      "getRoleAdmin(bytes32)": {
        "details": "Returns the admin role that controls `role`. See {grantRole} and {revokeRole}. To change a role's admin, use {_setRoleAdmin}."
      },
      "grantRole(bytes32,address)": {
        "details": "Grants `role` to `account`. If `account` had not been already granted `role`, emits a {RoleGranted} event. Requirements: - the caller must have ``role``'s admin role. May emit a {RoleGranted} event."
      },
      "hasRole(bytes32,address)": {
        "details": "Returns `true` if `account` has been granted `role`."
      },
      "renounceRole(bytes32,address)": {
        "details": "Revokes `role` from the calling account. Roles are often managed via {grantRole} and {revokeRole}: this function's purpose is to provide a mechanism for accounts to lose their privileges if they are compromised (such as when a trusted device is misplaced). If the calling account had been revoked `role`, emits a {RoleRevoked} event. Requirements: - the caller must be `account`. May emit a {RoleRevoked} event."
      },
      "requestHearing(address)": {
        "details": "must provide wallet address of the judge"
      },
      "revokeRole(bytes32,address)": {
        "details": "Revokes `role` from `account`. If `account` had been granted `role`, emits a {RoleRevoked} event. Requirements: - the caller must have ``role``'s admin role. May emit a {RoleRevoked} event."
      },
      "supportsInterface(bytes4)": {
        "details": "See {IERC165-supportsInterface}."
      }
    },
    "title": "Ticket",
    "version": 1
  },
  "userdoc": {
    "kind": "user",
    "methods": {
      "requestHearing(address)": {
        "notice": "Owner can request a hearing in court"
      },
      "resolveTicket(uint8)": {
        "notice": "Resolves the ticket for good."
      }
    },
    "notice": "You can use this contract to issue a traffic ticket",
    "version": 1
  }
}