{
  "contractName": "TicketFactory",
  "abi": [
    {
      "inputs": [
        {
          "internalType": "address",
          "name": "driver",
          "type": "address"
        },
        {
          "internalType": "uint16[]",
          "name": "penalty_clasues",
          "type": "uint16[]"
        }
      ],
      "name": "createNewTicket",
      "outputs": [],
      "stateMutability": "nonpayable",
      "type": "function"
    },
    {
      "inputs": [
        {
          "internalType": "address",
          "name": "driver",
          "type": "address"
        },
        {
          "internalType": "address",
          "name": "officer",
          "type": "address"
        },
        {
          "internalType": "address",
          "name": "ticket",
          "type": "address"
        }
      ],
      "name": "deleteTicket",
      "outputs": [],
      "stateMutability": "nonpayable",
      "type": "function"
    },
    {
      "inputs": [
        {
          "internalType": "address",
          "name": "driver",
          "type": "address"
        }
      ],
      "name": "getDriverTickets",
      "outputs": [
        {
          "internalType": "address[]",
          "name": "",
          "type": "address[]"
        }
      ],
      "stateMutability": "view",
      "type": "function",
      "constant": true
    },
    {
      "inputs": [
        {
          "internalType": "address",
          "name": "officer",
          "type": "address"
        }
      ],
      "name": "getOfficerTickets",
      "outputs": [
        {
          "internalType": "address[]",
          "name": "",
          "type": "address[]"
        }
      ],
      "stateMutability": "view",
      "type": "function",
      "constant": true
    },
    {
      "inputs": [],
      "name": "getLastAddedTicket",
      "outputs": [
        {
          "internalType": "address",
          "name": "",
          "type": "address"
        }
      ],
      "stateMutability": "view",
      "type": "function",
      "constant": true
    },
    {
      "inputs": [
        {
          "internalType": "address",
          "name": "driver",
          "type": "address"
        }
      ],
      "name": "getActiveTickets",
      "outputs": [
        {
          "internalType": "address[]",
          "name": "",
          "type": "address[]"
        }
      ],
      "stateMutability": "view",
      "type": "function",
      "constant": true
    },
    {
      "inputs": [
        {
          "internalType": "address",
          "name": "driver",
          "type": "address"
        }
      ],
      "name": "getAllTickets",
      "outputs": [
        {
          "internalType": "address[]",
          "name": "",
          "type": "address[]"
        }
      ],
      "stateMutability": "view",
      "type": "function",
      "constant": true
    },
    {
      "inputs": [],
      "name": "getAddress",
      "outputs": [
        {
          "internalType": "address",
          "name": "",
          "type": "address"
        }
      ],
      "stateMutability": "view",
      "type": "function",
      "constant": true
    }
  ],
  "bytecode": "0x608060405234801561001057600080fd5b50613d4d806100206000396000f3fe60806040523480156200001157600080fd5b5060043610620000945760003560e01c806391d18b81116200006357806391d18b811462000147578063a9fd6149146200017d578063e176f628146200019f578063f1b7af2414620001d55762000094565b806314fa96c81462000099578063168e791914620000cf57806338cc483114620000ef57806385167c571462000111575b600080fd5b620000b76004803603810190620000b1919062000faf565b620001f5565b604051620000c69190620010af565b60405180910390f35b620000ed6004803603810190620000e7919062001287565b62000521565b005b620000f9620006e5565b604051620001089190620012fe565b60405180910390f35b6200012f600480360381019062000129919062000faf565b620006ed565b6040516200013e9190620010af565b60405180910390f35b6200016560048036038101906200015f919062000faf565b620007bc565b604051620001749190620010af565b60405180910390f35b620001876200088a565b604051620001969190620012fe565b60405180910390f35b620001bd6004803603810190620001b7919062000faf565b620008b4565b604051620001cc9190620010af565b60405180910390f35b620001f36004803603810190620001ed91906200131b565b62000982565b005b606060008060008473ffffffffffffffffffffffffffffffffffffffff1673ffffffffffffffffffffffffffffffffffffffff168152602001908152602001600020805480602002602001604051908101604052809291908181526020018280548015620002b957602002820191906000526020600020905b8160009054906101000a900473ffffffffffffffffffffffffffffffffffffffff1673ffffffffffffffffffffffffffffffffffffffff16815260200190600101908083116200026e575b505050505090506000805b82518110156200038a57828181518110620002e457620002e362001377565b5b602002602001015173ffffffffffffffffffffffffffffffffffffffff166309a483436040518163ffffffff1660e01b8152600401602060405180830381865afa15801562000337573d6000803e3d6000fd5b505050506040513d601f19601f820116820180604052508101906200035d9190620013e3565b156200037457818062000370906200144e565b9250505b808062000381906200144e565b915050620002c4565b5060008167ffffffffffffffff811115620003aa57620003a9620010e9565b5b604051908082528060200260200182016040528015620003d95781602001602082028036833780820191505090505b5090506000805b845181101562000514578481815181106200040057620003ff62001377565b5b602002602001015173ffffffffffffffffffffffffffffffffffffffff166309a483436040518163ffffffff1660e01b8152600401602060405180830381865afa15801562000453573d6000803e3d6000fd5b505050506040513d601f19601f82011682018060405250810190620004799190620013e3565b15620004fe5784818151811062000495576200049462001377565b5b6020026020010151838381518110620004b357620004b262001377565b5b602002602001019073ffffffffffffffffffffffffffffffffffffffff16908173ffffffffffffffffffffffffffffffffffffffff16815250508180620004fa906200144e565b9250505b80806200050b906200144e565b915050620003e0565b5081945050505050919050565b60008282604051620005339062000f28565b6200054092919062001569565b604051809103906000f0801580156200055d573d6000803e3d6000fd5b5090506000808473ffffffffffffffffffffffffffffffffffffffff1673ffffffffffffffffffffffffffffffffffffffff168152602001908152602001600020819080600181540180825580915050600190039060005260206000200160009091909190916101000a81548173ffffffffffffffffffffffffffffffffffffffff021916908373ffffffffffffffffffffffffffffffffffffffff160217905550600160003373ffffffffffffffffffffffffffffffffffffffff1673ffffffffffffffffffffffffffffffffffffffff168152602001908152602001600020819080600181540180825580915050600190039060005260206000200160009091909190916101000a81548173ffffffffffffffffffffffffffffffffffffffff021916908373ffffffffffffffffffffffffffffffffffffffff16021790555080600260006101000a81548173ffffffffffffffffffffffffffffffffffffffff021916908373ffffffffffffffffffffffffffffffffffffffff160217905550505050565b600030905090565b6060600160008373ffffffffffffffffffffffffffffffffffffffff1673ffffffffffffffffffffffffffffffffffffffff168152602001908152602001600020805480602002602001604051908101604052809291908181526020018280548015620007b057602002820191906000526020600020905b8160009054906101000a900473ffffffffffffffffffffffffffffffffffffffff1673ffffffffffffffffffffffffffffffffffffffff168152602001906001019080831162000765575b50505050509050919050565b60606000808373ffffffffffffffffffffffffffffffffffffffff1673ffffffffffffffffffffffffffffffffffffffff1681526020019081526020016000208054806020026020016040519081016040528092919081815260200182805480156200087e57602002820191906000526020600020905b8160009054906101000a900473ffffffffffffffffffffffffffffffffffffffff1673ffffffffffffffffffffffffffffffffffffffff168152602001906001019080831162000833575b50505050509050919050565b6000600260009054906101000a900473ffffffffffffffffffffffffffffffffffffffff16905090565b60606000808373ffffffffffffffffffffffffffffffffffffffff1673ffffffffffffffffffffffffffffffffffffffff1681526020019081526020016000208054806020026020016040519081016040528092919081815260200182805480156200097657602002820191906000526020600020905b8160009054906101000a900473ffffffffffffffffffffffffffffffffffffffff1673ffffffffffffffffffffffffffffffffffffffff16815260200190600101908083116200092b575b50505050509050919050565b60008060008573ffffffffffffffffffffffffffffffffffffffff1673ffffffffffffffffffffffffffffffffffffffff1681526020019081526020016000208054905090506000600160008573ffffffffffffffffffffffffffffffffffffffff1673ffffffffffffffffffffffffffffffffffffffff16815260200190815260200160002080549050905060005b8281101562000c95578373ffffffffffffffffffffffffffffffffffffffff166000808873ffffffffffffffffffffffffffffffffffffffff1673ffffffffffffffffffffffffffffffffffffffff168152602001908152602001600020828154811062000a855762000a8462001377565b5b9060005260206000200160009054906101000a900473ffffffffffffffffffffffffffffffffffffffff1673ffffffffffffffffffffffffffffffffffffffff160362000c7f576000808773ffffffffffffffffffffffffffffffffffffffff1673ffffffffffffffffffffffffffffffffffffffff16815260200190815260200160002060018462000b1991906200159d565b8154811062000b2d5762000b2c62001377565b5b9060005260206000200160009054906101000a900473ffffffffffffffffffffffffffffffffffffffff166000808873ffffffffffffffffffffffffffffffffffffffff1673ffffffffffffffffffffffffffffffffffffffff168152602001908152602001600020828154811062000bab5762000baa62001377565b5b9060005260206000200160006101000a81548173ffffffffffffffffffffffffffffffffffffffff021916908373ffffffffffffffffffffffffffffffffffffffff1602179055506000808773ffffffffffffffffffffffffffffffffffffffff1673ffffffffffffffffffffffffffffffffffffffff16815260200190815260200160002080548062000c445762000c43620015d8565b5b6001900381819060005260206000200160006101000a81549073ffffffffffffffffffffffffffffffffffffffff0219169055905562000c95565b808062000c8c906200144e565b91505062000a12565b5060005b8181101562000f20578373ffffffffffffffffffffffffffffffffffffffff16600160008773ffffffffffffffffffffffffffffffffffffffff1673ffffffffffffffffffffffffffffffffffffffff168152602001908152602001600020828154811062000d0d5762000d0c62001377565b5b9060005260206000200160009054906101000a900473ffffffffffffffffffffffffffffffffffffffff1673ffffffffffffffffffffffffffffffffffffffff160362000f0a57600160008673ffffffffffffffffffffffffffffffffffffffff1673ffffffffffffffffffffffffffffffffffffffff16815260200190815260200160002060018362000da291906200159d565b8154811062000db65762000db562001377565b5b9060005260206000200160009054906101000a900473ffffffffffffffffffffffffffffffffffffffff16600160008773ffffffffffffffffffffffffffffffffffffffff1673ffffffffffffffffffffffffffffffffffffffff168152602001908152602001600020828154811062000e355762000e3462001377565b5b9060005260206000200160006101000a81548173ffffffffffffffffffffffffffffffffffffffff021916908373ffffffffffffffffffffffffffffffffffffffff160217905550600160008673ffffffffffffffffffffffffffffffffffffffff1673ffffffffffffffffffffffffffffffffffffffff16815260200190815260200160002080548062000ecf5762000ece620015d8565b5b6001900381819060005260206000200160006101000a81549073ffffffffffffffffffffffffffffffffffffffff0219169055905562000f20565b808062000f17906200144e565b91505062000c99565b505050505050565b612710806200160883390190565b6000604051905090565b600080fd5b600080fd5b600073ffffffffffffffffffffffffffffffffffffffff82169050919050565b600062000f778262000f4a565b9050919050565b62000f898162000f6a565b811462000f9557600080fd5b50565b60008135905062000fa98162000f7e565b92915050565b60006020828403121562000fc85762000fc762000f40565b5b600062000fd88482850162000f98565b91505092915050565b600081519050919050565b600082825260208201905092915050565b6000819050602082019050919050565b620010188162000f6a565b82525050565b60006200102c83836200100d565b60208301905092915050565b6000602082019050919050565b6000620010528262000fe1565b6200105e818562000fec565b93506200106b8362000ffd565b8060005b83811015620010a25781516200108688826200101e565b9750620010938362001038565b9250506001810190506200106f565b5085935050505092915050565b60006020820190508181036000830152620010cb818462001045565b905092915050565b600080fd5b6000601f19601f8301169050919050565b7f4e487b7100000000000000000000000000000000000000000000000000000000600052604160045260246000fd5b6200112382620010d8565b810181811067ffffffffffffffff82111715620011455762001144620010e9565b5b80604052505050565b60006200115a62000f36565b905062001168828262001118565b919050565b600067ffffffffffffffff8211156200118b576200118a620010e9565b5b602082029050602081019050919050565b600080fd5b600061ffff82169050919050565b620011ba81620011a1565b8114620011c657600080fd5b50565b600081359050620011da81620011af565b92915050565b6000620011f7620011f1846200116d565b6200114e565b905080838252602082019050602084028301858111156200121d576200121c6200119c565b5b835b818110156200124a5780620012358882620011c9565b8452602084019350506020810190506200121f565b5050509392505050565b600082601f8301126200126c576200126b620010d3565b5b81356200127e848260208601620011e0565b91505092915050565b60008060408385031215620012a157620012a062000f40565b5b6000620012b18582860162000f98565b925050602083013567ffffffffffffffff811115620012d557620012d462000f45565b5b620012e38582860162001254565b9150509250929050565b620012f88162000f6a565b82525050565b6000602082019050620013156000830184620012ed565b92915050565b60008060006060848603121562001337576200133662000f40565b5b6000620013478682870162000f98565b93505060206200135a8682870162000f98565b92505060406200136d8682870162000f98565b9150509250925092565b7f4e487b7100000000000000000000000000000000000000000000000000000000600052603260045260246000fd5b60008115159050919050565b620013bd81620013a6565b8114620013c957600080fd5b50565b600081519050620013dd81620013b2565b92915050565b600060208284031215620013fc57620013fb62000f40565b5b60006200140c84828501620013cc565b91505092915050565b7f4e487b7100000000000000000000000000000000000000000000000000000000600052601160045260246000fd5b6000819050919050565b60006200145b8262001444565b91507fffffffffffffffffffffffffffffffffffffffffffffffffffffffffffffffff820362001490576200148f62001415565b5b600182019050919050565b600081519050919050565b600082825260208201905092915050565b6000819050602082019050919050565b620014d281620011a1565b82525050565b6000620014e68383620014c7565b60208301905092915050565b6000602082019050919050565b60006200150c826200149b565b620015188185620014a6565b93506200152583620014b7565b8060005b838110156200155c578151620015408882620014d8565b97506200154d83620014f2565b92505060018101905062001529565b5085935050505092915050565b6000604082019050620015806000830185620012ed565b8181036020830152620015948184620014ff565b90509392505050565b6000620015aa8262001444565b9150620015b78362001444565b9250828203905081811115620015d257620015d162001415565b5b92915050565b7f4e487b7100000000000000000000000000000000000000000000000000000000600052603160045260246000fdfe60c060405262278d0060045560006005556001600660016101000a81548160ff0219169083151502179055503480156200003857600080fd5b50604051620027103803806200271083398181016040528101906200005e91906200066a565b8173ffffffffffffffffffffffffffffffffffffffff1660808173ffffffffffffffffffffffffffffffffffffffff16815250503373ffffffffffffffffffffffffffffffffffffffff1660a08173ffffffffffffffffffffffffffffffffffffffff16815250506000600160006101000a81548173ffffffffffffffffffffffffffffffffffffffff021916908373ffffffffffffffffffffffffffffffffffffffff1602179055508060029080519060200190620001209291906200036d565b50426003819055506000600660006101000a81548160ff02191690836007811115620001515762000150620006d0565b5b0217905550620001887f469f0a0947cf59c7d944c91c6f4c13c396753b8abf0036156a8c6b0c02fdc02e83620001f460201b60201c565b620001ba7fbbecb2568601cb27e6ced525237c463da94c4fb7a9b98ac79fd30fd56d8e1b5333620001f460201b60201c565b620001ec7f7dc38bfcf3f4cd184671c7e6971d68d9731e00efe0a482344cd63548133e805f33620001f460201b60201c565b5050620006ff565b6200020682826200020a60201b60201c565b5050565b6200021c8282620002fb60201b60201c565b620002f757600160008084815260200190815260200160002060000160008373ffffffffffffffffffffffffffffffffffffffff1673ffffffffffffffffffffffffffffffffffffffff16815260200190815260200160002060006101000a81548160ff0219169083151502179055506200029c6200036560201b60201c565b73ffffffffffffffffffffffffffffffffffffffff168173ffffffffffffffffffffffffffffffffffffffff16837f2f8788117e7eff1d82e926ec794901d17c78024a50270940304540a733656f0d60405160405180910390a45b5050565b600080600084815260200190815260200160002060000160008373ffffffffffffffffffffffffffffffffffffffff1673ffffffffffffffffffffffffffffffffffffffff16815260200190815260200160002060009054906101000a900460ff16905092915050565b600033905090565b82805482825590600052602060002090600f016010900481019282156200040b5791602002820160005b83821115620003d957835183826101000a81548161ffff021916908361ffff160217905550926020019260020160208160010104928301926001030262000397565b8015620004095782816101000a81549061ffff0219169055600201602081600101049283019260010302620003d9565b505b5090506200041a91906200041e565b5090565b5b80821115620004395760008160009055506001016200041f565b5090565b6000604051905090565b600080fd5b600080fd5b600073ffffffffffffffffffffffffffffffffffffffff82169050919050565b60006200047e8262000451565b9050919050565b620004908162000471565b81146200049c57600080fd5b50565b600081519050620004b08162000485565b92915050565b600080fd5b6000601f19601f8301169050919050565b7f4e487b7100000000000000000000000000000000000000000000000000000000600052604160045260246000fd5b6200050682620004bb565b810181811067ffffffffffffffff82111715620005285762000527620004cc565b5b80604052505050565b60006200053d6200043d565b90506200054b8282620004fb565b919050565b600067ffffffffffffffff8211156200056e576200056d620004cc565b5b602082029050602081019050919050565b600080fd5b600061ffff82169050919050565b6200059d8162000584565b8114620005a957600080fd5b50565b600081519050620005bd8162000592565b92915050565b6000620005da620005d48462000550565b62000531565b905080838252602082019050602084028301858111156200060057620005ff6200057f565b5b835b818110156200062d5780620006188882620005ac565b84526020840193505060208101905062000602565b5050509392505050565b600082601f8301126200064f576200064e620004b6565b5b815162000661848260208601620005c3565b91505092915050565b6000806040838503121562000684576200068362000447565b5b600062000694858286016200049f565b925050602083015167ffffffffffffffff811115620006b857620006b76200044c565b5b620006c68582860162000637565b9150509250929050565b7f4e487b7100000000000000000000000000000000000000000000000000000000600052602160045260246000fd5b60805160a051611fba6200075660003960008181610afd01528181610c1c01528181610cb001528181610cfa01528181610e170152610fe50152600081816103e901528181610c660152610fc40152611fba6000f3fe608060405234801561001057600080fd5b50600436106101165760003560e01c806391d14854116100a2578063bd4daf2a11610071578063bd4daf2a146102bb578063ce46e046146102d9578063d547741f146102f7578063e6bcc2cb14610313578063e885a0df1461033157610116565b806391d148541461023557806392ce0e0614610265578063953ef87414610281578063a217fddf1461029d57610116565b80632f2ff15d116100e95780632f2ff15d146101b757806336568abe146101d35780633b7104f2146101ef578063451b1c961461020d57806372c344b41461022b57610116565b806301ffc9a71461011b57806309a483431461014b578063121d3f4e14610169578063248a9ca314610187575b600080fd5b610135600480360381019061013091906116d1565b610354565b6040516101429190611719565b60405180910390f35b6101536103ce565b6040516101609190611719565b60405180910390f35b6101716103e5565b60405161017e9190611775565b60405180910390f35b6101a1600480360381019061019c91906117c6565b61040d565b6040516101ae9190611802565b60405180910390f35b6101d160048036038101906101cc9190611849565b61042c565b005b6101ed60048036038101906101e89190611849565b61044d565b005b6101f76104d0565b6040516102049190611919565b60405180910390f35b6102156108cd565b6040516102229190611a07565b60405180910390f35b61023361094d565b005b61024f600480360381019061024a9190611849565b6109ae565b60405161025c9190611719565b60405180910390f35b61027f600480360381019061027a9190611a29565b610a18565b005b61029b60048036038101906102969190611a7b565b610b98565b005b6102a5610e0c565b6040516102b29190611802565b60405180910390f35b6102c3610e13565b6040516102d09190611775565b60405180910390f35b6102e1610e3b565b6040516102ee9190611719565b60405180910390f35b610311600480360381019061030c9190611849565b610ee5565b005b61031b610f06565b6040516103289190611775565b60405180910390f35b610339610fb7565b60405161034b96959493929190611ac1565b60405180910390f35b60007f7965db0b000000000000000000000000000000000000000000000000000000007bffffffffffffffffffffffffffffffffffffffffffffffffffffffff1916827bffffffffffffffffffffffffffffffffffffffffffffffffffffffff191614806103c757506103c6826110c7565b5b9050919050565b6000600660019054906101000a900460ff16905090565b60007f0000000000000000000000000000000000000000000000000000000000000000905090565b6000806000838152602001908152602001600020600101549050919050565b6104358261040d565b61043e81611131565b6104488383611145565b505050565b610455611225565b73ffffffffffffffffffffffffffffffffffffffff168173ffffffffffffffffffffffffffffffffffffffff16146104c2576040517f08c379a00000000000000000000000000000000000000000000000000000000081526004016104b990611ba2565b60405180910390fd5b6104cc828261122d565b5050565b6060600060078111156104e6576104e5611bc2565b5b600660009054906101000a900460ff16600781111561050857610507611bc2565b5b0361054a576040518060400160405280600781526020017f50656e64696e670000000000000000000000000000000000000000000000000081525090506108ca565b6001600781111561055e5761055d611bc2565b5b600660009054906101000a900460ff1660078111156105805761057f611bc2565b5b036105c2576040518060400160405280600481526020017f4c6174650000000000000000000000000000000000000000000000000000000081525090506108ca565b600560078111156105d6576105d5611bc2565b5b600660009054906101000a900460ff1660078111156105f8576105f7611bc2565b5b0361063a576040518060400160405280600981526020017f4469736d6973736564000000000000000000000000000000000000000000000081525090506108ca565b6004600781111561064e5761064d611bc2565b5b600660009054906101000a900460ff1660078111156106705761066f611bc2565b5b036106b2576040518060400160405280600981526020017f446973707574696e67000000000000000000000000000000000000000000000081525090506108ca565b600260078111156106c6576106c5611bc2565b5b600660009054906101000a900460ff1660078111156106e8576106e7611bc2565b5b0361072a576040518060400160405280600481526020017f506169640000000000000000000000000000000000000000000000000000000081525090506108ca565b6003600781111561073e5761073d611bc2565b5b600660009054906101000a900460ff1660078111156107605761075f611bc2565b5b036107a2576040518060400160405280600981526020017f43616e63656c6c6564000000000000000000000000000000000000000000000081525090506108ca565b600660078111156107b6576107b5611bc2565b5b600660009054906101000a900460ff1660078111156107d8576107d7611bc2565b5b0361081a576040518060400160405280600d81526020017f556e7265736f6c76616c626c650000000000000000000000000000000000000081525090506108ca565b60078081111561082d5761082c611bc2565b5b600660009054906101000a900460ff16600781111561084f5761084e611bc2565b5b03610891576040518060400160405280600981526020017f436f6e766963746564000000000000000000000000000000000000000000000081525090506108ca565b6040518060400160405280600581526020017f4572726f7200000000000000000000000000000000000000000000000000000081525090505b90565b6060600280548060200260200160405190810160405280929190818152602001828054801561094357602002820191906000526020600020906000905b82829054906101000a900461ffff1661ffff168152602001906002019060208260010104928301926001038202915080841161090a5790505b5050505050905090565b60006004819055506001600660006101000a81548160ff0219169083600781111561097b5761097a611bc2565b5b021790555061098a608261130e565b6005600081548092919061099d90611c20565b919050555062278d00600481905550565b600080600084815260200190815260200160002060000160008373ffffffffffffffffffffffffffffffffffffffff1673ffffffffffffffffffffffffffffffffffffffff16815260200190815260200160002060009054906101000a900460ff16905092915050565b600660019054906101000a900460ff16610a3157600080fd5b7f469f0a0947cf59c7d944c91c6f4c13c396753b8abf0036156a8c6b0c02fdc02e610a5b81611131565b610a63610e3b565b610a6c57600080fd5b81600160006101000a81548173ffffffffffffffffffffffffffffffffffffffff021916908373ffffffffffffffffffffffffffffffffffffffff160217905550610ad77f9c4e6fd68fbdec6e3075ec7bfba710532af019aea93f5f59ebfe5a9d1a0b894e83611145565b610b217f7dc38bfcf3f4cd184671c7e6971d68d9731e00efe0a482344cd63548133e805f7f000000000000000000000000000000000000000000000000000000000000000061122d565b6004600660006101000a81548160ff02191690836007811115610b4757610b46611bc2565b5b02179055507f76c0bad3b7f1c74587dcb478154d4c87ae6663db97cc086b981decf4e35a797c30600660009054906101000a900460ff16604051610b8c929190611cb0565b60405180910390a15050565b600660019054906101000a900460ff16610bb157600080fd5b80600660006101000a81548160ff02191690836007811115610bd657610bd5611bc2565b5b02179055506000600660016101000a81548160ff021916908315150217905550610c407f7dc38bfcf3f4cd184671c7e6971d68d9731e00efe0a482344cd63548133e805f7f000000000000000000000000000000000000000000000000000000000000000061122d565b610c8a7f469f0a0947cf59c7d944c91c6f4c13c396753b8abf0036156a8c6b0c02fdc02e7f000000000000000000000000000000000000000000000000000000000000000061122d565b610cd47fbbecb2568601cb27e6ced525237c463da94c4fb7a9b98ac79fd30fd56d8e1b537f000000000000000000000000000000000000000000000000000000000000000061122d565b610d1e7f7dc38bfcf3f4cd184671c7e6971d68d9731e00efe0a482344cd63548133e805f7f000000000000000000000000000000000000000000000000000000000000000061122d565b600073ffffffffffffffffffffffffffffffffffffffff16600160009054906101000a900473ffffffffffffffffffffffffffffffffffffffff1673ffffffffffffffffffffffffffffffffffffffff1614610dc157610dc07f9c4e6fd68fbdec6e3075ec7bfba710532af019aea93f5f59ebfe5a9d1a0b894e600160009054906101000a900473ffffffffffffffffffffffffffffffffffffffff1661122d565b5b7f76c0bad3b7f1c74587dcb478154d4c87ae6663db97cc086b981decf4e35a797c30600660009054906101000a900460ff16604051610e01929190611cb0565b60405180910390a150565b6000801b81565b60007f0000000000000000000000000000000000000000000000000000000000000000905090565b6000806007811115610e5057610e4f611bc2565b5b600660009054906101000a900460ff166007811115610e7257610e71611bc2565b5b1480610eb1575060016007811115610e8d57610e8c611bc2565b5b600660009054906101000a900460ff166007811115610eaf57610eae611bc2565b5b145b15610edd5760045460035442610ec79190611cd9565b10610ed3576000610ed6565b60015b9050610ee2565b600090505b90565b610eee8261040d565b610ef781611131565b610f01838361122d565b505050565b60008073ffffffffffffffffffffffffffffffffffffffff16600160009054906101000a900473ffffffffffffffffffffffffffffffffffffffff1673ffffffffffffffffffffffffffffffffffffffff1603610f8f576040517f87f439ad00000000000000000000000000000000000000000000000000000000815260040160405180910390fd5b600160009054906101000a900473ffffffffffffffffffffffffffffffffffffffff16905090565b60008060006060600060607f00000000000000000000000000000000000000000000000000000000000000007f0000000000000000000000000000000000000000000000000000000000000000600160009054906101000a900473ffffffffffffffffffffffffffffffffffffffff16600261103161135b565b6110396104d0565b828054806020026020016040519081016040528092919081815260200182805480156110ac57602002820191906000526020600020906000905b82829054906101000a900461ffff1661ffff16815260200190600201906020826001010492830192600103820291508084116110735790505b50505050509250955095509550955095509550909192939495565b60007f01ffc9a7000000000000000000000000000000000000000000000000000000007bffffffffffffffffffffffffffffffffffffffffffffffffffffffff1916827bffffffffffffffffffffffffffffffffffffffffffffffffffffffff1916149050919050565b6111428161113d611225565b61139b565b50565b61114f82826109ae565b61122157600160008084815260200190815260200160002060000160008373ffffffffffffffffffffffffffffffffffffffff1673ffffffffffffffffffffffffffffffffffffffff16815260200190815260200160002060006101000a81548160ff0219169083151502179055506111c6611225565b73ffffffffffffffffffffffffffffffffffffffff168173ffffffffffffffffffffffffffffffffffffffff16837f2f8788117e7eff1d82e926ec794901d17c78024a50270940304540a733656f0d60405160405180910390a45b5050565b600033905090565b61123782826109ae565b1561130a57600080600084815260200190815260200160002060000160008373ffffffffffffffffffffffffffffffffffffffff1673ffffffffffffffffffffffffffffffffffffffff16815260200190815260200160002060006101000a81548160ff0219169083151502179055506112af611225565b73ffffffffffffffffffffffffffffffffffffffff168173ffffffffffffffffffffffffffffffffffffffff16837ff6391f5c32d9c69d2a47ea670b442974b53935d1edc7fd64eb21e047a839171b60405160405180910390a45b5050565b60028190806001815401808255809150506001900390600052602060002090601091828204019190066002029091909190916101000a81548161ffff021916908361ffff16021790555050565b6000600660019054906101000a900460ff1661137a5760009050611398565b4260045460035461138b9190611d0d565b6113959190611cd9565b90505b90565b6113a582826109ae565b611434576113ca8173ffffffffffffffffffffffffffffffffffffffff166014611438565b6113d88360001c6020611438565b6040516020016113e9929190611e15565b6040516020818303038152906040526040517f08c379a000000000000000000000000000000000000000000000000000000000815260040161142b9190611919565b60405180910390fd5b5050565b60606000600283600261144b9190611e4f565b6114559190611d0d565b67ffffffffffffffff81111561146e5761146d611e91565b5b6040519080825280601f01601f1916602001820160405280156114a05781602001600182028036833780820191505090505b5090507f3000000000000000000000000000000000000000000000000000000000000000816000815181106114d8576114d7611ec0565b5b60200101907effffffffffffffffffffffffffffffffffffffffffffffffffffffffffffff1916908160001a9053507f78000000000000000000000000000000000000000000000000000000000000008160018151811061153c5761153b611ec0565b5b60200101907effffffffffffffffffffffffffffffffffffffffffffffffffffffffffffff1916908160001a9053506000600184600261157c9190611e4f565b6115869190611d0d565b90505b6001811115611626577f3031323334353637383961626364656600000000000000000000000000000000600f8616601081106115c8576115c7611ec0565b5b1a60f81b8282815181106115df576115de611ec0565b5b60200101907effffffffffffffffffffffffffffffffffffffffffffffffffffffffffffff1916908160001a905350600485901c94508061161f90611eef565b9050611589565b506000841461166a576040517f08c379a000000000000000000000000000000000000000000000000000000000815260040161166190611f64565b60405180910390fd5b8091505092915050565b600080fd5b60007fffffffff0000000000000000000000000000000000000000000000000000000082169050919050565b6116ae81611679565b81146116b957600080fd5b50565b6000813590506116cb816116a5565b92915050565b6000602082840312156116e7576116e6611674565b5b60006116f5848285016116bc565b91505092915050565b60008115159050919050565b611713816116fe565b82525050565b600060208201905061172e600083018461170a565b92915050565b600073ffffffffffffffffffffffffffffffffffffffff82169050919050565b600061175f82611734565b9050919050565b61176f81611754565b82525050565b600060208201905061178a6000830184611766565b92915050565b6000819050919050565b6117a381611790565b81146117ae57600080fd5b50565b6000813590506117c08161179a565b92915050565b6000602082840312156117dc576117db611674565b5b60006117ea848285016117b1565b91505092915050565b6117fc81611790565b82525050565b600060208201905061181760008301846117f3565b92915050565b61182681611754565b811461183157600080fd5b50565b6000813590506118438161181d565b92915050565b600080604083850312156118605761185f611674565b5b600061186e858286016117b1565b925050602061187f85828601611834565b9150509250929050565b600081519050919050565b600082825260208201905092915050565b60005b838110156118c35780820151818401526020810190506118a8565b60008484015250505050565b6000601f19601f8301169050919050565b60006118eb82611889565b6118f58185611894565b93506119058185602086016118a5565b61190e816118cf565b840191505092915050565b6000602082019050818103600083015261193381846118e0565b905092915050565b600081519050919050565b600082825260208201905092915050565b6000819050602082019050919050565b600061ffff82169050919050565b61197e81611967565b82525050565b60006119908383611975565b60208301905092915050565b6000602082019050919050565b60006119b48261193b565b6119be8185611946565b93506119c983611957565b8060005b838110156119fa5781516119e18882611984565b97506119ec8361199c565b9250506001810190506119cd565b5085935050505092915050565b60006020820190508181036000830152611a2181846119a9565b905092915050565b600060208284031215611a3f57611a3e611674565b5b6000611a4d84828501611834565b91505092915050565b60088110611a6357600080fd5b50565b600081359050611a7581611a56565b92915050565b600060208284031215611a9157611a90611674565b5b6000611a9f84828501611a66565b91505092915050565b6000819050919050565b611abb81611aa8565b82525050565b600060c082019050611ad66000830189611766565b611ae36020830188611766565b611af06040830187611766565b8181036060830152611b0281866119a9565b9050611b116080830185611ab2565b81810360a0830152611b2381846118e0565b9050979650505050505050565b7f416363657373436f6e74726f6c3a2063616e206f6e6c792072656e6f756e636560008201527f20726f6c657320666f722073656c660000000000000000000000000000000000602082015250565b6000611b8c602f83611894565b9150611b9782611b30565b604082019050919050565b60006020820190508181036000830152611bbb81611b7f565b9050919050565b7f4e487b7100000000000000000000000000000000000000000000000000000000600052602160045260246000fd5b7f4e487b7100000000000000000000000000000000000000000000000000000000600052601160045260246000fd5b6000611c2b82611aa8565b91507fffffffffffffffffffffffffffffffffffffffffffffffffffffffffffffffff8203611c5d57611c5c611bf1565b5b600182019050919050565b60088110611c7957611c78611bc2565b5b50565b6000819050611c8a82611c68565b919050565b6000611c9a82611c7c565b9050919050565b611caa81611c8f565b82525050565b6000604082019050611cc56000830185611766565b611cd26020830184611ca1565b9392505050565b6000611ce482611aa8565b9150611cef83611aa8565b9250828203905081811115611d0757611d06611bf1565b5b92915050565b6000611d1882611aa8565b9150611d2383611aa8565b9250828201905080821115611d3b57611d3a611bf1565b5b92915050565b600081905092915050565b7f416363657373436f6e74726f6c3a206163636f756e7420000000000000000000600082015250565b6000611d82601783611d41565b9150611d8d82611d4c565b601782019050919050565b6000611da382611889565b611dad8185611d41565b9350611dbd8185602086016118a5565b80840191505092915050565b7f206973206d697373696e6720726f6c6520000000000000000000000000000000600082015250565b6000611dff601183611d41565b9150611e0a82611dc9565b601182019050919050565b6000611e2082611d75565b9150611e2c8285611d98565b9150611e3782611df2565b9150611e438284611d98565b91508190509392505050565b6000611e5a82611aa8565b9150611e6583611aa8565b9250828202611e7381611aa8565b91508282048414831517611e8a57611e89611bf1565b5b5092915050565b7f4e487b7100000000000000000000000000000000000000000000000000000000600052604160045260246000fd5b7f4e487b7100000000000000000000000000000000000000000000000000000000600052603260045260246000fd5b6000611efa82611aa8565b915060008203611f0d57611f0c611bf1565b5b600182039050919050565b7f537472696e67733a20686578206c656e67746820696e73756666696369656e74600082015250565b6000611f4e602083611894565b9150611f5982611f18565b602082019050919050565b60006020820190508181036000830152611f7d81611f41565b905091905056fea2646970667358221220f6d040d7e00132cc6265f989634e6b90be2c68a7c283d8dde22548d1f97dc49c64736f6c63430008110033a26469706673582212205e5514c8a1c546b32c313c89d40d63f16e635d41e7f09e9e141b349490f5f8bd64736f6c63430008110033",
  "immutableReferences": {},
  "source": "// SPDX-License-Identifier: MIT\npragma solidity 0.8.17;\n\n// TODO: Implement access control\n\nimport \"./Ticket.sol\";\n\ncontract TicketFactory {\n\n    mapping(address => address[]) private driverToTickets;\n    mapping(address => address[]) private officerToTickets;\n    address lastAddedTicket;\n\n    function createNewTicket(\n        address driver,\n        uint16[] memory penalty_clasues\n        )\n    external\n    {\n        Ticket ticket = new Ticket(\n            driver,\n            penalty_clasues\n        );\n\n        driverToTickets[driver].push(address(ticket));\n        officerToTickets[msg.sender].push(address(ticket));\n\n        lastAddedTicket = address(ticket);\n    }\n\n    // Rip gas\n    function deleteTicket(\n        address driver,\n        address officer,\n        address ticket\n    ) external {\n        uint256 driverTicketLength = driverToTickets[driver].length;\n        uint256 officerTicketLength = officerToTickets[officer].length;\n\n        for (uint256 i = 0; i < driverTicketLength; i++) {\n            if (driverToTickets[driver][i] == ticket) {\n                driverToTickets[driver][i] = driverToTickets[driver][driverTicketLength - 1];\n                driverToTickets[driver].pop();\n                break;\n            }\n        }\n\n        for (uint256 i = 0; i < officerTicketLength; i++) {\n            if (officerToTickets[officer][i] == ticket) {\n                officerToTickets[officer][i] = officerToTickets[officer][officerTicketLength - 1];\n                officerToTickets[officer].pop();\n                break;\n            }\n        }\n    }\n\n    function getDriverTickets(address driver) external view returns(address[] memory) {\n        return driverToTickets[driver];\n    }\n\n    function getOfficerTickets(address officer) external view returns(address[] memory) {\n        return officerToTickets[officer];\n    }\n\n    function getLastAddedTicket() external view returns(address) {\n        return lastAddedTicket;\n    }\n\n    function getActiveTickets(address driver) external view returns(address[] memory) {\n        address[] memory tickets = driverToTickets[driver];\n        uint256 activeTicketsLength = 0;\n\n        for (uint256 i = 0; i < tickets.length; i++) {\n            if (Ticket(tickets[i]).isTicketActive()) {\n                activeTicketsLength++;\n            }\n        }\n\n        address[] memory activeTickets = new address[](activeTicketsLength);\n        uint256 j = 0;\n\n        for (uint256 i = 0; i < tickets.length; i++) {\n            if (Ticket(tickets[i]).isTicketActive()) {\n                activeTickets[j] = tickets[i];\n                j++;\n            }\n        }\n\n        return activeTickets;\n    }\n\n    function getAllTickets(address driver) external view returns(address[] memory) {\n        return driverToTickets[driver];\n    }\n\n    function getAddress() external view returns(address) {\n        return address(this);\n    }\n}\n",
  "sourcePath": "C:\\Users\\samin\\Documents\\Projects\\AWT\\TraffiChain\\contracts\\TicketFactory.sol",
  "compiler": {
    "name": "solc",
    "version": "0.8.17+commit.8df45f5f.Emscripten.clang"
  },
  "schemaVersion": "3.4.10",
  "updatedAt": "2022-11-28T05:49:45.705Z",
  "networkType": "ethereum",
  "devdoc": {
    "kind": "dev",
    "methods": {},
    "version": 1
  },
  "userdoc": {
    "kind": "user",
    "methods": {},
    "version": 1
  }
}