{
  "contractName": "TicketFactory",
  "abi": [
    {
      "inputs": [
        {
          "internalType": "address",
          "name": "driver",
          "type": "address"
        },
        {
          "internalType": "uint16[]",
          "name": "penalty_clasues",
          "type": "uint16[]"
        }
      ],
      "name": "createNewTicket",
      "outputs": [],
      "stateMutability": "nonpayable",
      "type": "function"
    },
    {
      "inputs": [
        {
          "internalType": "address",
          "name": "driver",
          "type": "address"
        },
        {
          "internalType": "address",
          "name": "officer",
          "type": "address"
        },
        {
          "internalType": "address",
          "name": "ticket",
          "type": "address"
        }
      ],
      "name": "deleteTicket",
      "outputs": [],
      "stateMutability": "nonpayable",
      "type": "function"
    },
    {
      "inputs": [
        {
          "internalType": "address",
          "name": "driver",
          "type": "address"
        }
      ],
      "name": "getDriverTickets",
      "outputs": [
        {
          "internalType": "address[]",
          "name": "",
          "type": "address[]"
        }
      ],
      "stateMutability": "view",
      "type": "function",
      "constant": true
    },
    {
      "inputs": [
        {
          "internalType": "address",
          "name": "officer",
          "type": "address"
        }
      ],
      "name": "getOfficerTickets",
      "outputs": [
        {
          "internalType": "address[]",
          "name": "",
          "type": "address[]"
        }
      ],
      "stateMutability": "view",
      "type": "function",
      "constant": true
    },
    {
      "inputs": [
        {
          "internalType": "address",
          "name": "driver",
          "type": "address"
        }
      ],
      "name": "getActiveTickets",
      "outputs": [
        {
          "internalType": "address[]",
          "name": "",
          "type": "address[]"
        }
      ],
      "stateMutability": "view",
      "type": "function",
      "constant": true
    },
    {
      "inputs": [
        {
          "internalType": "address",
          "name": "driver",
          "type": "address"
        }
      ],
      "name": "getAllTickets",
      "outputs": [
        {
          "internalType": "address[]",
          "name": "",
          "type": "address[]"
        }
      ],
      "stateMutability": "view",
      "type": "function",
      "constant": true
    },
    {
      "inputs": [],
      "name": "getAddress",
      "outputs": [
        {
          "internalType": "address",
          "name": "",
          "type": "address"
        }
      ],
      "stateMutability": "view",
      "type": "function",
      "constant": true
    }
  ],
  "bytecode": "0x608060405234801561001057600080fd5b50613ab0806100206000396000f3fe60806040523480156200001157600080fd5b5060043610620000885760003560e01c806385167c57116200006357806385167c57146200010557806391d18b81146200013b578063e176f6281462000171578063f1b7af2414620001a75762000088565b806314fa96c8146200008d578063168e791914620000c357806338cc483114620000e3575b600080fd5b620000ab6004803603810190620000a5919062000f16565b620001c7565b604051620000ba919062001016565b60405180910390f35b620000e16004803603810190620000db9190620011ee565b620004f3565b005b620000ed62000676565b604051620000fc919062001265565b60405180910390f35b6200012360048036038101906200011d919062000f16565b6200067e565b60405162000132919062001016565b60405180910390f35b62000159600480360381019062000153919062000f16565b6200074d565b60405162000168919062001016565b60405180910390f35b6200018f600480360381019062000189919062000f16565b6200081b565b6040516200019e919062001016565b60405180910390f35b620001c56004803603810190620001bf919062001282565b620008e9565b005b606060008060008473ffffffffffffffffffffffffffffffffffffffff1673ffffffffffffffffffffffffffffffffffffffff1681526020019081526020016000208054806020026020016040519081016040528092919081815260200182805480156200028b57602002820191906000526020600020905b8160009054906101000a900473ffffffffffffffffffffffffffffffffffffffff1673ffffffffffffffffffffffffffffffffffffffff168152602001906001019080831162000240575b505050505090506000805b82518110156200035c57828181518110620002b657620002b5620012de565b5b602002602001015173ffffffffffffffffffffffffffffffffffffffff166309a483436040518163ffffffff1660e01b8152600401602060405180830381865afa15801562000309573d6000803e3d6000fd5b505050506040513d601f19601f820116820180604052508101906200032f91906200134a565b15620003465781806200034290620013b5565b9250505b80806200035390620013b5565b91505062000296565b5060008167ffffffffffffffff8111156200037c576200037b62001050565b5b604051908082528060200260200182016040528015620003ab5781602001602082028036833780820191505090505b5090506000805b8451811015620004e657848181518110620003d257620003d1620012de565b5b602002602001015173ffffffffffffffffffffffffffffffffffffffff166309a483436040518163ffffffff1660e01b8152600401602060405180830381865afa15801562000425573d6000803e3d6000fd5b505050506040513d601f19601f820116820180604052508101906200044b91906200134a565b15620004d057848181518110620004675762000466620012de565b5b6020026020010151838381518110620004855762000484620012de565b5b602002602001019073ffffffffffffffffffffffffffffffffffffffff16908173ffffffffffffffffffffffffffffffffffffffff16815250508180620004cc90620013b5565b9250505b8080620004dd90620013b5565b915050620003b2565b5081945050505050919050565b60008282604051620005059062000e8f565b62000512929190620014d0565b604051809103906000f0801580156200052f573d6000803e3d6000fd5b5090506000808473ffffffffffffffffffffffffffffffffffffffff1673ffffffffffffffffffffffffffffffffffffffff168152602001908152602001600020819080600181540180825580915050600190039060005260206000200160009091909190916101000a81548173ffffffffffffffffffffffffffffffffffffffff021916908373ffffffffffffffffffffffffffffffffffffffff160217905550600160003373ffffffffffffffffffffffffffffffffffffffff1673ffffffffffffffffffffffffffffffffffffffff168152602001908152602001600020819080600181540180825580915050600190039060005260206000200160009091909190916101000a81548173ffffffffffffffffffffffffffffffffffffffff021916908373ffffffffffffffffffffffffffffffffffffffff160217905550505050565b600030905090565b6060600160008373ffffffffffffffffffffffffffffffffffffffff1673ffffffffffffffffffffffffffffffffffffffff1681526020019081526020016000208054806020026020016040519081016040528092919081815260200182805480156200074157602002820191906000526020600020905b8160009054906101000a900473ffffffffffffffffffffffffffffffffffffffff1673ffffffffffffffffffffffffffffffffffffffff1681526020019060010190808311620006f6575b50505050509050919050565b60606000808373ffffffffffffffffffffffffffffffffffffffff1673ffffffffffffffffffffffffffffffffffffffff1681526020019081526020016000208054806020026020016040519081016040528092919081815260200182805480156200080f57602002820191906000526020600020905b8160009054906101000a900473ffffffffffffffffffffffffffffffffffffffff1673ffffffffffffffffffffffffffffffffffffffff1681526020019060010190808311620007c4575b50505050509050919050565b60606000808373ffffffffffffffffffffffffffffffffffffffff1673ffffffffffffffffffffffffffffffffffffffff168152602001908152602001600020805480602002602001604051908101604052809291908181526020018280548015620008dd57602002820191906000526020600020905b8160009054906101000a900473ffffffffffffffffffffffffffffffffffffffff1673ffffffffffffffffffffffffffffffffffffffff168152602001906001019080831162000892575b50505050509050919050565b60008060008573ffffffffffffffffffffffffffffffffffffffff1673ffffffffffffffffffffffffffffffffffffffff1681526020019081526020016000208054905090506000600160008573ffffffffffffffffffffffffffffffffffffffff1673ffffffffffffffffffffffffffffffffffffffff16815260200190815260200160002080549050905060005b8281101562000bfc578373ffffffffffffffffffffffffffffffffffffffff166000808873ffffffffffffffffffffffffffffffffffffffff1673ffffffffffffffffffffffffffffffffffffffff1681526020019081526020016000208281548110620009ec57620009eb620012de565b5b9060005260206000200160009054906101000a900473ffffffffffffffffffffffffffffffffffffffff1673ffffffffffffffffffffffffffffffffffffffff160362000be6576000808773ffffffffffffffffffffffffffffffffffffffff1673ffffffffffffffffffffffffffffffffffffffff16815260200190815260200160002060018462000a80919062001504565b8154811062000a945762000a93620012de565b5b9060005260206000200160009054906101000a900473ffffffffffffffffffffffffffffffffffffffff166000808873ffffffffffffffffffffffffffffffffffffffff1673ffffffffffffffffffffffffffffffffffffffff168152602001908152602001600020828154811062000b125762000b11620012de565b5b9060005260206000200160006101000a81548173ffffffffffffffffffffffffffffffffffffffff021916908373ffffffffffffffffffffffffffffffffffffffff1602179055506000808773ffffffffffffffffffffffffffffffffffffffff1673ffffffffffffffffffffffffffffffffffffffff16815260200190815260200160002080548062000bab5762000baa6200153f565b5b6001900381819060005260206000200160006101000a81549073ffffffffffffffffffffffffffffffffffffffff0219169055905562000bfc565b808062000bf390620013b5565b91505062000979565b5060005b8181101562000e87578373ffffffffffffffffffffffffffffffffffffffff16600160008773ffffffffffffffffffffffffffffffffffffffff1673ffffffffffffffffffffffffffffffffffffffff168152602001908152602001600020828154811062000c745762000c73620012de565b5b9060005260206000200160009054906101000a900473ffffffffffffffffffffffffffffffffffffffff1673ffffffffffffffffffffffffffffffffffffffff160362000e7157600160008673ffffffffffffffffffffffffffffffffffffffff1673ffffffffffffffffffffffffffffffffffffffff16815260200190815260200160002060018362000d09919062001504565b8154811062000d1d5762000d1c620012de565b5b9060005260206000200160009054906101000a900473ffffffffffffffffffffffffffffffffffffffff16600160008773ffffffffffffffffffffffffffffffffffffffff1673ffffffffffffffffffffffffffffffffffffffff168152602001908152602001600020828154811062000d9c5762000d9b620012de565b5b9060005260206000200160006101000a81548173ffffffffffffffffffffffffffffffffffffffff021916908373ffffffffffffffffffffffffffffffffffffffff160217905550600160008673ffffffffffffffffffffffffffffffffffffffff1673ffffffffffffffffffffffffffffffffffffffff16815260200190815260200160002080548062000e365762000e356200153f565b5b6001900381819060005260206000200160006101000a81549073ffffffffffffffffffffffffffffffffffffffff0219169055905562000e87565b808062000e7e90620013b5565b91505062000c00565b505050505050565b61250c806200156f83390190565b6000604051905090565b600080fd5b600080fd5b600073ffffffffffffffffffffffffffffffffffffffff82169050919050565b600062000ede8262000eb1565b9050919050565b62000ef08162000ed1565b811462000efc57600080fd5b50565b60008135905062000f108162000ee5565b92915050565b60006020828403121562000f2f5762000f2e62000ea7565b5b600062000f3f8482850162000eff565b91505092915050565b600081519050919050565b600082825260208201905092915050565b6000819050602082019050919050565b62000f7f8162000ed1565b82525050565b600062000f93838362000f74565b60208301905092915050565b6000602082019050919050565b600062000fb98262000f48565b62000fc5818562000f53565b935062000fd28362000f64565b8060005b838110156200100957815162000fed888262000f85565b975062000ffa8362000f9f565b92505060018101905062000fd6565b5085935050505092915050565b6000602082019050818103600083015262001032818462000fac565b905092915050565b600080fd5b6000601f19601f8301169050919050565b7f4e487b7100000000000000000000000000000000000000000000000000000000600052604160045260246000fd5b6200108a826200103f565b810181811067ffffffffffffffff82111715620010ac57620010ab62001050565b5b80604052505050565b6000620010c162000e9d565b9050620010cf82826200107f565b919050565b600067ffffffffffffffff821115620010f257620010f162001050565b5b602082029050602081019050919050565b600080fd5b600061ffff82169050919050565b620011218162001108565b81146200112d57600080fd5b50565b600081359050620011418162001116565b92915050565b60006200115e6200115884620010d4565b620010b5565b9050808382526020820190506020840283018581111562001184576200118362001103565b5b835b81811015620011b157806200119c888262001130565b84526020840193505060208101905062001186565b5050509392505050565b600082601f830112620011d357620011d26200103a565b5b8135620011e584826020860162001147565b91505092915050565b6000806040838503121562001208576200120762000ea7565b5b6000620012188582860162000eff565b925050602083013567ffffffffffffffff8111156200123c576200123b62000eac565b5b6200124a85828601620011bb565b9150509250929050565b6200125f8162000ed1565b82525050565b60006020820190506200127c600083018462001254565b92915050565b6000806000606084860312156200129e576200129d62000ea7565b5b6000620012ae8682870162000eff565b9350506020620012c18682870162000eff565b9250506040620012d48682870162000eff565b9150509250925092565b7f4e487b7100000000000000000000000000000000000000000000000000000000600052603260045260246000fd5b60008115159050919050565b62001324816200130d565b81146200133057600080fd5b50565b600081519050620013448162001319565b92915050565b60006020828403121562001363576200136262000ea7565b5b6000620013738482850162001333565b91505092915050565b7f4e487b7100000000000000000000000000000000000000000000000000000000600052601160045260246000fd5b6000819050919050565b6000620013c282620013ab565b91507fffffffffffffffffffffffffffffffffffffffffffffffffffffffffffffffff8203620013f757620013f66200137c565b5b600182019050919050565b600081519050919050565b600082825260208201905092915050565b6000819050602082019050919050565b620014398162001108565b82525050565b60006200144d83836200142e565b60208301905092915050565b6000602082019050919050565b6000620014738262001402565b6200147f81856200140d565b93506200148c836200141e565b8060005b83811015620014c3578151620014a788826200143f565b9750620014b48362001459565b92505060018101905062001490565b5085935050505092915050565b6000604082019050620014e7600083018562001254565b8181036020830152620014fb818462001466565b90509392505050565b60006200151182620013ab565b91506200151e83620013ab565b92508282039050818111156200153957620015386200137c565b5b92915050565b7f4e487b7100000000000000000000000000000000000000000000000000000000600052603160045260246000fdfe60c060405262278d0060045560006005556001600660016101000a81548160ff0219169083151502179055503480156200003857600080fd5b506040516200250c3803806200250c83398181016040528101906200005e91906200066a565b8173ffffffffffffffffffffffffffffffffffffffff1660808173ffffffffffffffffffffffffffffffffffffffff16815250503373ffffffffffffffffffffffffffffffffffffffff1660a08173ffffffffffffffffffffffffffffffffffffffff16815250506000600160006101000a81548173ffffffffffffffffffffffffffffffffffffffff021916908373ffffffffffffffffffffffffffffffffffffffff1602179055508060029080519060200190620001209291906200036d565b50426003819055506000600660006101000a81548160ff02191690836006811115620001515762000150620006d0565b5b0217905550620001887f469f0a0947cf59c7d944c91c6f4c13c396753b8abf0036156a8c6b0c02fdc02e83620001f460201b60201c565b620001ba7fbbecb2568601cb27e6ced525237c463da94c4fb7a9b98ac79fd30fd56d8e1b5333620001f460201b60201c565b620001ec7f7dc38bfcf3f4cd184671c7e6971d68d9731e00efe0a482344cd63548133e805f33620001f460201b60201c565b5050620006ff565b6200020682826200020a60201b60201c565b5050565b6200021c8282620002fb60201b60201c565b620002f757600160008084815260200190815260200160002060000160008373ffffffffffffffffffffffffffffffffffffffff1673ffffffffffffffffffffffffffffffffffffffff16815260200190815260200160002060006101000a81548160ff0219169083151502179055506200029c6200036560201b60201c565b73ffffffffffffffffffffffffffffffffffffffff168173ffffffffffffffffffffffffffffffffffffffff16837f2f8788117e7eff1d82e926ec794901d17c78024a50270940304540a733656f0d60405160405180910390a45b5050565b600080600084815260200190815260200160002060000160008373ffffffffffffffffffffffffffffffffffffffff1673ffffffffffffffffffffffffffffffffffffffff16815260200190815260200160002060009054906101000a900460ff16905092915050565b600033905090565b82805482825590600052602060002090600f016010900481019282156200040b5791602002820160005b83821115620003d957835183826101000a81548161ffff021916908361ffff160217905550926020019260020160208160010104928301926001030262000397565b8015620004095782816101000a81549061ffff0219169055600201602081600101049283019260010302620003d9565b505b5090506200041a91906200041e565b5090565b5b80821115620004395760008160009055506001016200041f565b5090565b6000604051905090565b600080fd5b600080fd5b600073ffffffffffffffffffffffffffffffffffffffff82169050919050565b60006200047e8262000451565b9050919050565b620004908162000471565b81146200049c57600080fd5b50565b600081519050620004b08162000485565b92915050565b600080fd5b6000601f19601f8301169050919050565b7f4e487b7100000000000000000000000000000000000000000000000000000000600052604160045260246000fd5b6200050682620004bb565b810181811067ffffffffffffffff82111715620005285762000527620004cc565b5b80604052505050565b60006200053d6200043d565b90506200054b8282620004fb565b919050565b600067ffffffffffffffff8211156200056e576200056d620004cc565b5b602082029050602081019050919050565b600080fd5b600061ffff82169050919050565b6200059d8162000584565b8114620005a957600080fd5b50565b600081519050620005bd8162000592565b92915050565b6000620005da620005d48462000550565b62000531565b905080838252602082019050602084028301858111156200060057620005ff6200057f565b5b835b818110156200062d5780620006188882620005ac565b84526020840193505060208101905062000602565b5050509392505050565b600082601f8301126200064f576200064e620004b6565b5b815162000661848260208601620005c3565b91505092915050565b6000806040838503121562000684576200068362000447565b5b600062000694858286016200049f565b925050602083015167ffffffffffffffff811115620006b857620006b76200044c565b5b620006c68582860162000637565b9150509250929050565b7f4e487b7100000000000000000000000000000000000000000000000000000000600052602160045260246000fd5b60805160a051611dc46200074860003960008181610a7f01528181610b9e01528181610c3201528181610c7c0152610d990152600081816103f60152610be80152611dc46000f3fe608060405234801561001057600080fd5b50600436106101165760003560e01c806391d14854116100a2578063bd4daf2a11610071578063bd4daf2a146102cd578063ce46e046146102eb578063d547741f14610309578063e6bcc2cb14610325578063efb98bcf1461034357610116565b806391d148541461024757806392ce0e0614610277578063953ef87414610293578063a217fddf146102af57610116565b8063248a9ca3116100e9578063248a9ca3146101a35780632f2ff15d146101d357806336568abe146101ef5780633b7104f21461020b578063451b1c961461022957610116565b806301ffc9a71461011b57806309a483431461014b578063121d3f4e1461016957806322a9008214610187575b600080fd5b6101356004803603810190610130919061151e565b610361565b6040516101429190611566565b60405180910390f35b6101536103db565b6040516101609190611566565b60405180910390f35b6101716103f2565b60405161017e91906115c2565b60405180910390f35b6101a1600480360381019061019c9190611613565b61041a565b005b6101bd60048036038101906101b89190611676565b610468565b6040516101ca91906116b2565b60405180910390f35b6101ed60048036038101906101e891906116f9565b610487565b005b610209600480360381019061020491906116f9565b6104a8565b005b61021361052b565b60405161022091906117c9565b60405180910390f35b6102316108b0565b60405161023e91906118b7565b60405180910390f35b610261600480360381019061025c91906116f9565b610930565b60405161026e9190611566565b60405180910390f35b610291600480360381019061028c91906118d9565b61099a565b005b6102ad60048036038101906102a8919061192b565b610b1a565b005b6102b7610d8e565b6040516102c491906116b2565b60405180910390f35b6102d5610d95565b6040516102e291906115c2565b60405180910390f35b6102f3610dbd565b6040516103009190611566565b60405180910390f35b610323600480360381019061031e91906116f9565b610e67565b005b61032d610e88565b60405161033a91906115c2565b60405180910390f35b61034b610f39565b6040516103589190611967565b60405180910390f35b60007f7965db0b000000000000000000000000000000000000000000000000000000007bffffffffffffffffffffffffffffffffffffffffffffffffffffffff1916827bffffffffffffffffffffffffffffffffffffffffffffffffffffffff191614806103d457506103d382610fa1565b5b9050919050565b6000600660019054906101000a900460ff16905090565b60007f0000000000000000000000000000000000000000000000000000000000000000905090565b600660019054906101000a900460ff1661043357600080fd5b7fbbecb2568601cb27e6ced525237c463da94c4fb7a9b98ac79fd30fd56d8e1b5361045d8161100b565b816004819055505050565b6000806000838152602001908152602001600020600101549050919050565b61049082610468565b6104998161100b565b6104a3838361101f565b505050565b6104b06110ff565b73ffffffffffffffffffffffffffffffffffffffff168173ffffffffffffffffffffffffffffffffffffffff161461051d576040517f08c379a0000000000000000000000000000000000000000000000000000000008152600401610514906119f4565b60405180910390fd5b6105278282611107565b5050565b60606000600681111561054157610540611a14565b5b600660009054906101000a900460ff16600681111561056357610562611a14565b5b036105a5576040518060400160405280600781526020017f50656e64696e670000000000000000000000000000000000000000000000000081525090506108ad565b600160068111156105b9576105b8611a14565b5b600660009054906101000a900460ff1660068111156105db576105da611a14565b5b0361061d576040518060400160405280600481526020017f4c6174650000000000000000000000000000000000000000000000000000000081525090506108ad565b6005600681111561063157610630611a14565b5b600660009054906101000a900460ff16600681111561065357610652611a14565b5b03610695576040518060400160405280600981526020017f4469736d6973736564000000000000000000000000000000000000000000000081525090506108ad565b600460068111156106a9576106a8611a14565b5b600660009054906101000a900460ff1660068111156106cb576106ca611a14565b5b0361070d576040518060400160405280600981526020017f446973707574696e67000000000000000000000000000000000000000000000081525090506108ad565b6002600681111561072157610720611a14565b5b600660009054906101000a900460ff16600681111561074357610742611a14565b5b03610785576040518060400160405280600481526020017f506169640000000000000000000000000000000000000000000000000000000081525090506108ad565b6003600681111561079957610798611a14565b5b600660009054906101000a900460ff1660068111156107bb576107ba611a14565b5b036107fd576040518060400160405280600981526020017f43616e63656c6c6564000000000000000000000000000000000000000000000081525090506108ad565b6006808111156108105761080f611a14565b5b600660009054906101000a900460ff16600681111561083257610831611a14565b5b03610874576040518060400160405280600d81526020017f556e7265736f6c76616c626c650000000000000000000000000000000000000081525090506108ad565b6040518060400160405280600581526020017f4572726f7200000000000000000000000000000000000000000000000000000081525090505b90565b6060600280548060200260200160405190810160405280929190818152602001828054801561092657602002820191906000526020600020906000905b82829054906101000a900461ffff1661ffff16815260200190600201906020826001010492830192600103820291508084116108ed5790505b5050505050905090565b600080600084815260200190815260200160002060000160008373ffffffffffffffffffffffffffffffffffffffff1673ffffffffffffffffffffffffffffffffffffffff16815260200190815260200160002060009054906101000a900460ff16905092915050565b600660019054906101000a900460ff166109b357600080fd5b7f469f0a0947cf59c7d944c91c6f4c13c396753b8abf0036156a8c6b0c02fdc02e6109dd8161100b565b6109e5610dbd565b6109ee57600080fd5b81600160006101000a81548173ffffffffffffffffffffffffffffffffffffffff021916908373ffffffffffffffffffffffffffffffffffffffff160217905550610a597f9c4e6fd68fbdec6e3075ec7bfba710532af019aea93f5f59ebfe5a9d1a0b894e8361101f565b610aa37f7dc38bfcf3f4cd184671c7e6971d68d9731e00efe0a482344cd63548133e805f7f0000000000000000000000000000000000000000000000000000000000000000611107565b6004600660006101000a81548160ff02191690836006811115610ac957610ac8611a14565b5b02179055507f76c0bad3b7f1c74587dcb478154d4c87ae6663db97cc086b981decf4e35a797c30600660009054906101000a900460ff16604051610b0e929190611a8b565b60405180910390a15050565b600660019054906101000a900460ff16610b3357600080fd5b80600660006101000a81548160ff02191690836006811115610b5857610b57611a14565b5b02179055506000600660016101000a81548160ff021916908315150217905550610bc27f7dc38bfcf3f4cd184671c7e6971d68d9731e00efe0a482344cd63548133e805f7f0000000000000000000000000000000000000000000000000000000000000000611107565b610c0c7f469f0a0947cf59c7d944c91c6f4c13c396753b8abf0036156a8c6b0c02fdc02e7f0000000000000000000000000000000000000000000000000000000000000000611107565b610c567fbbecb2568601cb27e6ced525237c463da94c4fb7a9b98ac79fd30fd56d8e1b537f0000000000000000000000000000000000000000000000000000000000000000611107565b610ca07f7dc38bfcf3f4cd184671c7e6971d68d9731e00efe0a482344cd63548133e805f7f0000000000000000000000000000000000000000000000000000000000000000611107565b600073ffffffffffffffffffffffffffffffffffffffff16600160009054906101000a900473ffffffffffffffffffffffffffffffffffffffff1673ffffffffffffffffffffffffffffffffffffffff1614610d4357610d427f9c4e6fd68fbdec6e3075ec7bfba710532af019aea93f5f59ebfe5a9d1a0b894e600160009054906101000a900473ffffffffffffffffffffffffffffffffffffffff16611107565b5b7f76c0bad3b7f1c74587dcb478154d4c87ae6663db97cc086b981decf4e35a797c30600660009054906101000a900460ff16604051610d83929190611a8b565b60405180910390a150565b6000801b81565b60007f0000000000000000000000000000000000000000000000000000000000000000905090565b6000806006811115610dd257610dd1611a14565b5b600660009054906101000a900460ff166006811115610df457610df3611a14565b5b1480610e33575060016006811115610e0f57610e0e611a14565b5b600660009054906101000a900460ff166006811115610e3157610e30611a14565b5b145b15610e5f5760045460035442610e499190611ae3565b10610e55576000610e58565b60015b9050610e64565b600090505b90565b610e7082610468565b610e798161100b565b610e838383611107565b505050565b60008073ffffffffffffffffffffffffffffffffffffffff16600160009054906101000a900473ffffffffffffffffffffffffffffffffffffffff1673ffffffffffffffffffffffffffffffffffffffff1603610f11576040517f87f439ad00000000000000000000000000000000000000000000000000000000815260040160405180910390fd5b600160009054906101000a900473ffffffffffffffffffffffffffffffffffffffff16905090565b6000600660019054906101000a900460ff16610f81576040517f45978dec00000000000000000000000000000000000000000000000000000000815260040160405180910390fd5b42600454600354610f929190611b17565b610f9c9190611ae3565b905090565b60007f01ffc9a7000000000000000000000000000000000000000000000000000000007bffffffffffffffffffffffffffffffffffffffffffffffffffffffff1916827bffffffffffffffffffffffffffffffffffffffffffffffffffffffff1916149050919050565b61101c816110176110ff565b6111e8565b50565b6110298282610930565b6110fb57600160008084815260200190815260200160002060000160008373ffffffffffffffffffffffffffffffffffffffff1673ffffffffffffffffffffffffffffffffffffffff16815260200190815260200160002060006101000a81548160ff0219169083151502179055506110a06110ff565b73ffffffffffffffffffffffffffffffffffffffff168173ffffffffffffffffffffffffffffffffffffffff16837f2f8788117e7eff1d82e926ec794901d17c78024a50270940304540a733656f0d60405160405180910390a45b5050565b600033905090565b6111118282610930565b156111e457600080600084815260200190815260200160002060000160008373ffffffffffffffffffffffffffffffffffffffff1673ffffffffffffffffffffffffffffffffffffffff16815260200190815260200160002060006101000a81548160ff0219169083151502179055506111896110ff565b73ffffffffffffffffffffffffffffffffffffffff168173ffffffffffffffffffffffffffffffffffffffff16837ff6391f5c32d9c69d2a47ea670b442974b53935d1edc7fd64eb21e047a839171b60405160405180910390a45b5050565b6111f28282610930565b611281576112178173ffffffffffffffffffffffffffffffffffffffff166014611285565b6112258360001c6020611285565b604051602001611236929190611c1f565b6040516020818303038152906040526040517f08c379a000000000000000000000000000000000000000000000000000000000815260040161127891906117c9565b60405180910390fd5b5050565b6060600060028360026112989190611c59565b6112a29190611b17565b67ffffffffffffffff8111156112bb576112ba611c9b565b5b6040519080825280601f01601f1916602001820160405280156112ed5781602001600182028036833780820191505090505b5090507f30000000000000000000000000000000000000000000000000000000000000008160008151811061132557611324611cca565b5b60200101907effffffffffffffffffffffffffffffffffffffffffffffffffffffffffffff1916908160001a9053507f78000000000000000000000000000000000000000000000000000000000000008160018151811061138957611388611cca565b5b60200101907effffffffffffffffffffffffffffffffffffffffffffffffffffffffffffff1916908160001a905350600060018460026113c99190611c59565b6113d39190611b17565b90505b6001811115611473577f3031323334353637383961626364656600000000000000000000000000000000600f86166010811061141557611414611cca565b5b1a60f81b82828151811061142c5761142b611cca565b5b60200101907effffffffffffffffffffffffffffffffffffffffffffffffffffffffffffff1916908160001a905350600485901c94508061146c90611cf9565b90506113d6565b50600084146114b7576040517f08c379a00000000000000000000000000000000000000000000000000000000081526004016114ae90611d6e565b60405180910390fd5b8091505092915050565b600080fd5b60007fffffffff0000000000000000000000000000000000000000000000000000000082169050919050565b6114fb816114c6565b811461150657600080fd5b50565b600081359050611518816114f2565b92915050565b600060208284031215611534576115336114c1565b5b600061154284828501611509565b91505092915050565b60008115159050919050565b6115608161154b565b82525050565b600060208201905061157b6000830184611557565b92915050565b600073ffffffffffffffffffffffffffffffffffffffff82169050919050565b60006115ac82611581565b9050919050565b6115bc816115a1565b82525050565b60006020820190506115d760008301846115b3565b92915050565b6000819050919050565b6115f0816115dd565b81146115fb57600080fd5b50565b60008135905061160d816115e7565b92915050565b600060208284031215611629576116286114c1565b5b6000611637848285016115fe565b91505092915050565b6000819050919050565b61165381611640565b811461165e57600080fd5b50565b6000813590506116708161164a565b92915050565b60006020828403121561168c5761168b6114c1565b5b600061169a84828501611661565b91505092915050565b6116ac81611640565b82525050565b60006020820190506116c760008301846116a3565b92915050565b6116d6816115a1565b81146116e157600080fd5b50565b6000813590506116f3816116cd565b92915050565b600080604083850312156117105761170f6114c1565b5b600061171e85828601611661565b925050602061172f858286016116e4565b9150509250929050565b600081519050919050565b600082825260208201905092915050565b60005b83811015611773578082015181840152602081019050611758565b60008484015250505050565b6000601f19601f8301169050919050565b600061179b82611739565b6117a58185611744565b93506117b5818560208601611755565b6117be8161177f565b840191505092915050565b600060208201905081810360008301526117e38184611790565b905092915050565b600081519050919050565b600082825260208201905092915050565b6000819050602082019050919050565b600061ffff82169050919050565b61182e81611817565b82525050565b60006118408383611825565b60208301905092915050565b6000602082019050919050565b6000611864826117eb565b61186e81856117f6565b935061187983611807565b8060005b838110156118aa5781516118918882611834565b975061189c8361184c565b92505060018101905061187d565b5085935050505092915050565b600060208201905081810360008301526118d18184611859565b905092915050565b6000602082840312156118ef576118ee6114c1565b5b60006118fd848285016116e4565b91505092915050565b6007811061191357600080fd5b50565b60008135905061192581611906565b92915050565b600060208284031215611941576119406114c1565b5b600061194f84828501611916565b91505092915050565b611961816115dd565b82525050565b600060208201905061197c6000830184611958565b92915050565b7f416363657373436f6e74726f6c3a2063616e206f6e6c792072656e6f756e636560008201527f20726f6c657320666f722073656c660000000000000000000000000000000000602082015250565b60006119de602f83611744565b91506119e982611982565b604082019050919050565b60006020820190508181036000830152611a0d816119d1565b9050919050565b7f4e487b7100000000000000000000000000000000000000000000000000000000600052602160045260246000fd5b60078110611a5457611a53611a14565b5b50565b6000819050611a6582611a43565b919050565b6000611a7582611a57565b9050919050565b611a8581611a6a565b82525050565b6000604082019050611aa060008301856115b3565b611aad6020830184611a7c565b9392505050565b7f4e487b7100000000000000000000000000000000000000000000000000000000600052601160045260246000fd5b6000611aee826115dd565b9150611af9836115dd565b9250828203905081811115611b1157611b10611ab4565b5b92915050565b6000611b22826115dd565b9150611b2d836115dd565b9250828201905080821115611b4557611b44611ab4565b5b92915050565b600081905092915050565b7f416363657373436f6e74726f6c3a206163636f756e7420000000000000000000600082015250565b6000611b8c601783611b4b565b9150611b9782611b56565b601782019050919050565b6000611bad82611739565b611bb78185611b4b565b9350611bc7818560208601611755565b80840191505092915050565b7f206973206d697373696e6720726f6c6520000000000000000000000000000000600082015250565b6000611c09601183611b4b565b9150611c1482611bd3565b601182019050919050565b6000611c2a82611b7f565b9150611c368285611ba2565b9150611c4182611bfc565b9150611c4d8284611ba2565b91508190509392505050565b6000611c64826115dd565b9150611c6f836115dd565b9250828202611c7d816115dd565b91508282048414831517611c9457611c93611ab4565b5b5092915050565b7f4e487b7100000000000000000000000000000000000000000000000000000000600052604160045260246000fd5b7f4e487b7100000000000000000000000000000000000000000000000000000000600052603260045260246000fd5b6000611d04826115dd565b915060008203611d1757611d16611ab4565b5b600182039050919050565b7f537472696e67733a20686578206c656e67746820696e73756666696369656e74600082015250565b6000611d58602083611744565b9150611d6382611d22565b602082019050919050565b60006020820190508181036000830152611d8781611d4b565b905091905056fea2646970667358221220dd60c7edb5a66039f8b482c465b59a8c7ab807684e877b83891ebcb341e0c1ea64736f6c63430008110033a26469706673582212205377d0de25e435464d0bb7c408562616fe8d653f6fc6e982245db9e6bcb4e19a64736f6c63430008110033",
  "immutableReferences": {},
  "source": "// SPDX-License-Identifier: MIT\npragma solidity 0.8.17;\n\n// TODO: Implement access control\n\nimport \"./Ticket.sol\";\n\ncontract TicketFactory {\n\n    mapping(address => address[]) private driverToTickets;\n    mapping(address => address[]) private officerToTickets;\n\n    function createNewTicket(\n        address driver,\n        uint16[] memory penalty_clasues\n        )\n    external\n    {\n        Ticket ticket = new Ticket(\n            driver,\n            penalty_clasues\n        );\n\n        driverToTickets[driver].push(address(ticket));\n        officerToTickets[msg.sender].push(address(ticket));\n    }\n\n    // Rip gas\n    function deleteTicket(\n        address driver,\n        address officer,\n        address ticket\n    ) external {\n        uint256 driverTicketLength = driverToTickets[driver].length;\n        uint256 officerTicketLength = officerToTickets[officer].length;\n\n        for (uint256 i = 0; i < driverTicketLength; i++) {\n            if (driverToTickets[driver][i] == ticket) {\n                driverToTickets[driver][i] = driverToTickets[driver][driverTicketLength - 1];\n                driverToTickets[driver].pop();\n                break;\n            }\n        }\n\n        for (uint256 i = 0; i < officerTicketLength; i++) {\n            if (officerToTickets[officer][i] == ticket) {\n                officerToTickets[officer][i] = officerToTickets[officer][officerTicketLength - 1];\n                officerToTickets[officer].pop();\n                break;\n            }\n        }\n    }\n\n    function getDriverTickets(address driver) external view returns(address[] memory) {\n        return driverToTickets[driver];\n    }\n\n    function getOfficerTickets(address officer) external view returns(address[] memory) {\n        return officerToTickets[officer];\n    }\n\n    function getActiveTickets(address driver) external view returns(address[] memory) {\n        address[] memory tickets = driverToTickets[driver];\n        uint256 activeTicketsLength = 0;\n\n        for (uint256 i = 0; i < tickets.length; i++) {\n            if (Ticket(tickets[i]).isTicketActive()) {\n                activeTicketsLength++;\n            }\n        }\n\n        address[] memory activeTickets = new address[](activeTicketsLength);\n        uint256 j = 0;\n\n        for (uint256 i = 0; i < tickets.length; i++) {\n            if (Ticket(tickets[i]).isTicketActive()) {\n                activeTickets[j] = tickets[i];\n                j++;\n            }\n        }\n\n        return activeTickets;\n    }\n\n    function getAllTickets(address driver) external view returns(address[] memory) {\n        return driverToTickets[driver];\n    }\n\n    function getAddress() external view returns(address) {\n        return address(this);\n    }\n}\n",
  "sourcePath": "C:\\Users\\samin\\Documents\\Projects\\AWT\\TraffiChain\\contracts\\TicketFactory.sol",
  "compiler": {
    "name": "solc",
    "version": "0.8.17+commit.8df45f5f.Emscripten.clang"
  },
  "schemaVersion": "3.4.10",
  "updatedAt": "2022-11-04T14:12:17.629Z",
  "networkType": "ethereum",
  "devdoc": {
    "kind": "dev",
    "methods": {},
    "version": 1
  },
  "userdoc": {
    "kind": "user",
    "methods": {},
    "version": 1
  }
}