{
  "contractName": "Ticket",
  "abi": [
    {
      "inputs": [
        {
          "internalType": "address",
          "name": "driver_",
          "type": "address"
        },
        {
          "internalType": "uint16[]",
          "name": "penalty_clasues_",
          "type": "uint16[]"
        }
      ],
      "stateMutability": "nonpayable",
      "type": "constructor"
    },
    {
      "inputs": [],
      "name": "Ticket__NoJudgeAssigned",
      "type": "error"
    },
    {
      "inputs": [],
      "name": "Ticket__inactive",
      "type": "error"
    },
    {
      "anonymous": false,
      "inputs": [
        {
          "indexed": true,
          "internalType": "bytes32",
          "name": "role",
          "type": "bytes32"
        },
        {
          "indexed": true,
          "internalType": "bytes32",
          "name": "previousAdminRole",
          "type": "bytes32"
        },
        {
          "indexed": true,
          "internalType": "bytes32",
          "name": "newAdminRole",
          "type": "bytes32"
        }
      ],
      "name": "RoleAdminChanged",
      "type": "event"
    },
    {
      "anonymous": false,
      "inputs": [
        {
          "indexed": true,
          "internalType": "bytes32",
          "name": "role",
          "type": "bytes32"
        },
        {
          "indexed": true,
          "internalType": "address",
          "name": "account",
          "type": "address"
        },
        {
          "indexed": true,
          "internalType": "address",
          "name": "sender",
          "type": "address"
        }
      ],
      "name": "RoleGranted",
      "type": "event"
    },
    {
      "anonymous": false,
      "inputs": [
        {
          "indexed": true,
          "internalType": "bytes32",
          "name": "role",
          "type": "bytes32"
        },
        {
          "indexed": true,
          "internalType": "address",
          "name": "account",
          "type": "address"
        },
        {
          "indexed": true,
          "internalType": "address",
          "name": "sender",
          "type": "address"
        }
      ],
      "name": "RoleRevoked",
      "type": "event"
    },
    {
      "anonymous": false,
      "inputs": [
        {
          "indexed": false,
          "internalType": "address",
          "name": "ticket_address",
          "type": "address"
        },
        {
          "indexed": false,
          "internalType": "enum Ticket.Status",
          "name": "status",
          "type": "uint8"
        }
      ],
      "name": "StatusChanged",
      "type": "event"
    },
    {
      "inputs": [],
      "name": "DEFAULT_ADMIN_ROLE",
      "outputs": [
        {
          "internalType": "bytes32",
          "name": "",
          "type": "bytes32"
        }
      ],
      "stateMutability": "view",
      "type": "function"
    },
    {
      "inputs": [
        {
          "internalType": "bytes32",
          "name": "role",
          "type": "bytes32"
        }
      ],
      "name": "getRoleAdmin",
      "outputs": [
        {
          "internalType": "bytes32",
          "name": "",
          "type": "bytes32"
        }
      ],
      "stateMutability": "view",
      "type": "function"
    },
    {
      "inputs": [
        {
          "internalType": "bytes32",
          "name": "role",
          "type": "bytes32"
        },
        {
          "internalType": "address",
          "name": "account",
          "type": "address"
        }
      ],
      "name": "grantRole",
      "outputs": [],
      "stateMutability": "nonpayable",
      "type": "function"
    },
    {
      "inputs": [
        {
          "internalType": "bytes32",
          "name": "role",
          "type": "bytes32"
        },
        {
          "internalType": "address",
          "name": "account",
          "type": "address"
        }
      ],
      "name": "hasRole",
      "outputs": [
        {
          "internalType": "bool",
          "name": "",
          "type": "bool"
        }
      ],
      "stateMutability": "view",
      "type": "function"
    },
    {
      "inputs": [
        {
          "internalType": "bytes32",
          "name": "role",
          "type": "bytes32"
        },
        {
          "internalType": "address",
          "name": "account",
          "type": "address"
        }
      ],
      "name": "renounceRole",
      "outputs": [],
      "stateMutability": "nonpayable",
      "type": "function"
    },
    {
      "inputs": [
        {
          "internalType": "bytes32",
          "name": "role",
          "type": "bytes32"
        },
        {
          "internalType": "address",
          "name": "account",
          "type": "address"
        }
      ],
      "name": "revokeRole",
      "outputs": [],
      "stateMutability": "nonpayable",
      "type": "function"
    },
    {
      "inputs": [
        {
          "internalType": "bytes4",
          "name": "interfaceId",
          "type": "bytes4"
        }
      ],
      "name": "supportsInterface",
      "outputs": [
        {
          "internalType": "bool",
          "name": "",
          "type": "bool"
        }
      ],
      "stateMutability": "view",
      "type": "function"
    },
    {
      "inputs": [
        {
          "internalType": "address",
          "name": "judge_",
          "type": "address"
        }
      ],
      "name": "requestHearing",
      "outputs": [],
      "stateMutability": "nonpayable",
      "type": "function"
    },
    {
      "inputs": [],
      "name": "checkStatus",
      "outputs": [
        {
          "internalType": "string",
          "name": "",
          "type": "string"
        }
      ],
      "stateMutability": "view",
      "type": "function"
    },
    {
      "inputs": [
        {
          "internalType": "enum Ticket.Status",
          "name": "status_",
          "type": "uint8"
        }
      ],
      "name": "resolveTicket",
      "outputs": [],
      "stateMutability": "nonpayable",
      "type": "function"
    },
    {
      "inputs": [
        {
          "internalType": "uint256",
          "name": "interval_",
          "type": "uint256"
        }
      ],
      "name": "setInterval",
      "outputs": [],
      "stateMutability": "nonpayable",
      "type": "function"
    },
    {
      "inputs": [],
      "name": "isPayable",
      "outputs": [
        {
          "internalType": "bool",
          "name": "",
          "type": "bool"
        }
      ],
      "stateMutability": "view",
      "type": "function"
    },
    {
      "inputs": [],
      "name": "isTicketActive",
      "outputs": [
        {
          "internalType": "bool",
          "name": "",
          "type": "bool"
        }
      ],
      "stateMutability": "view",
      "type": "function"
    },
    {
      "inputs": [],
      "name": "getDriverAddress",
      "outputs": [
        {
          "internalType": "address",
          "name": "",
          "type": "address"
        }
      ],
      "stateMutability": "view",
      "type": "function"
    },
    {
      "inputs": [],
      "name": "getOfficerAddress",
      "outputs": [
        {
          "internalType": "address",
          "name": "",
          "type": "address"
        }
      ],
      "stateMutability": "view",
      "type": "function"
    },
    {
      "inputs": [],
      "name": "getJudgeAddress",
      "outputs": [
        {
          "internalType": "address",
          "name": "",
          "type": "address"
        }
      ],
      "stateMutability": "view",
      "type": "function"
    },
    {
      "inputs": [],
      "name": "getCharges",
      "outputs": [
        {
          "internalType": "uint16[]",
          "name": "",
          "type": "uint16[]"
        }
      ],
      "stateMutability": "view",
      "type": "function"
    },
    {
      "inputs": [],
      "name": "getRemainingTime",
      "outputs": [
        {
          "internalType": "uint256",
          "name": "",
          "type": "uint256"
        }
      ],
      "stateMutability": "view",
      "type": "function"
    }
  ],
  "bytecode": "0x60c060405262278d0060045560006005556001600660016101000a81548160ff0219169083151502179055503480156200003857600080fd5b50604051620025843803806200258483398181016040528101906200005e91906200066a565b8173ffffffffffffffffffffffffffffffffffffffff1660808173ffffffffffffffffffffffffffffffffffffffff16815250503373ffffffffffffffffffffffffffffffffffffffff1660a08173ffffffffffffffffffffffffffffffffffffffff16815250506000600160006101000a81548173ffffffffffffffffffffffffffffffffffffffff021916908373ffffffffffffffffffffffffffffffffffffffff1602179055508060029080519060200190620001209291906200036d565b50426003819055506000600660006101000a81548160ff02191690836007811115620001515762000150620006d0565b5b0217905550620001887f469f0a0947cf59c7d944c91c6f4c13c396753b8abf0036156a8c6b0c02fdc02e83620001f460201b60201c565b620001ba7fbbecb2568601cb27e6ced525237c463da94c4fb7a9b98ac79fd30fd56d8e1b5333620001f460201b60201c565b620001ec7f7dc38bfcf3f4cd184671c7e6971d68d9731e00efe0a482344cd63548133e805f33620001f460201b60201c565b5050620006ff565b6200020682826200020a60201b60201c565b5050565b6200021c8282620002fb60201b60201c565b620002f757600160008084815260200190815260200160002060000160008373ffffffffffffffffffffffffffffffffffffffff1673ffffffffffffffffffffffffffffffffffffffff16815260200190815260200160002060006101000a81548160ff0219169083151502179055506200029c6200036560201b60201c565b73ffffffffffffffffffffffffffffffffffffffff168173ffffffffffffffffffffffffffffffffffffffff16837f2f8788117e7eff1d82e926ec794901d17c78024a50270940304540a733656f0d60405160405180910390a45b5050565b600080600084815260200190815260200160002060000160008373ffffffffffffffffffffffffffffffffffffffff1673ffffffffffffffffffffffffffffffffffffffff16815260200190815260200160002060009054906101000a900460ff16905092915050565b600033905090565b82805482825590600052602060002090600f016010900481019282156200040b5791602002820160005b83821115620003d957835183826101000a81548161ffff021916908361ffff160217905550926020019260020160208160010104928301926001030262000397565b8015620004095782816101000a81549061ffff0219169055600201602081600101049283019260010302620003d9565b505b5090506200041a91906200041e565b5090565b5b80821115620004395760008160009055506001016200041f565b5090565b6000604051905090565b600080fd5b600080fd5b600073ffffffffffffffffffffffffffffffffffffffff82169050919050565b60006200047e8262000451565b9050919050565b620004908162000471565b81146200049c57600080fd5b50565b600081519050620004b08162000485565b92915050565b600080fd5b6000601f19601f8301169050919050565b7f4e487b7100000000000000000000000000000000000000000000000000000000600052604160045260246000fd5b6200050682620004bb565b810181811067ffffffffffffffff82111715620005285762000527620004cc565b5b80604052505050565b60006200053d6200043d565b90506200054b8282620004fb565b919050565b600067ffffffffffffffff8211156200056e576200056d620004cc565b5b602082029050602081019050919050565b600080fd5b600061ffff82169050919050565b6200059d8162000584565b8114620005a957600080fd5b50565b600081519050620005bd8162000592565b92915050565b6000620005da620005d48462000550565b62000531565b905080838252602082019050602084028301858111156200060057620005ff6200057f565b5b835b818110156200062d5780620006188882620005ac565b84526020840193505060208101905062000602565b5050509392505050565b600082601f8301126200064f576200064e620004b6565b5b815162000661848260208601620005c3565b91505092915050565b6000806040838503121562000684576200068362000447565b5b600062000694858286016200049f565b925050602083015167ffffffffffffffff811115620006b857620006b76200044c565b5b620006c68582860162000637565b9150509250929050565b7f4e487b7100000000000000000000000000000000000000000000000000000000600052602160045260246000fd5b60805160a051611e3c6200074860003960008181610af701528181610c1601528181610caa01528181610cf40152610e110152600081816103f60152610c600152611e3c6000f3fe608060405234801561001057600080fd5b50600436106101165760003560e01c806391d14854116100a2578063bd4daf2a11610071578063bd4daf2a146102cd578063ce46e046146102eb578063d547741f14610309578063e6bcc2cb14610325578063efb98bcf1461034357610116565b806391d148541461024757806392ce0e0614610277578063953ef87414610293578063a217fddf146102af57610116565b8063248a9ca3116100e9578063248a9ca3146101a35780632f2ff15d146101d357806336568abe146101ef5780633b7104f21461020b578063451b1c961461022957610116565b806301ffc9a71461011b57806309a483431461014b578063121d3f4e1461016957806322a9008214610187575b600080fd5b61013560048036038101906101309190611596565b610361565b60405161014291906115de565b60405180910390f35b6101536103db565b60405161016091906115de565b60405180910390f35b6101716103f2565b60405161017e919061163a565b60405180910390f35b6101a1600480360381019061019c919061168b565b61041a565b005b6101bd60048036038101906101b891906116ee565b610468565b6040516101ca919061172a565b60405180910390f35b6101ed60048036038101906101e89190611771565b610487565b005b61020960048036038101906102049190611771565b6104a8565b005b61021361052b565b6040516102209190611841565b60405180910390f35b610231610928565b60405161023e919061192f565b60405180910390f35b610261600480360381019061025c9190611771565b6109a8565b60405161026e91906115de565b60405180910390f35b610291600480360381019061028c9190611951565b610a12565b005b6102ad60048036038101906102a891906119a3565b610b92565b005b6102b7610e06565b6040516102c4919061172a565b60405180910390f35b6102d5610e0d565b6040516102e2919061163a565b60405180910390f35b6102f3610e35565b60405161030091906115de565b60405180910390f35b610323600480360381019061031e9190611771565b610edf565b005b61032d610f00565b60405161033a919061163a565b60405180910390f35b61034b610fb1565b60405161035891906119df565b60405180910390f35b60007f7965db0b000000000000000000000000000000000000000000000000000000007bffffffffffffffffffffffffffffffffffffffffffffffffffffffff1916827bffffffffffffffffffffffffffffffffffffffffffffffffffffffff191614806103d457506103d382611019565b5b9050919050565b6000600660019054906101000a900460ff16905090565b60007f0000000000000000000000000000000000000000000000000000000000000000905090565b600660019054906101000a900460ff1661043357600080fd5b7fbbecb2568601cb27e6ced525237c463da94c4fb7a9b98ac79fd30fd56d8e1b5361045d81611083565b816004819055505050565b6000806000838152602001908152602001600020600101549050919050565b61049082610468565b61049981611083565b6104a38383611097565b505050565b6104b0611177565b73ffffffffffffffffffffffffffffffffffffffff168173ffffffffffffffffffffffffffffffffffffffff161461051d576040517f08c379a000000000000000000000000000000000000000000000000000000000815260040161051490611a6c565b60405180910390fd5b610527828261117f565b5050565b60606000600781111561054157610540611a8c565b5b600660009054906101000a900460ff16600781111561056357610562611a8c565b5b036105a5576040518060400160405280600781526020017f50656e64696e67000000000000000000000000000000000000000000000000008152509050610925565b600160078111156105b9576105b8611a8c565b5b600660009054906101000a900460ff1660078111156105db576105da611a8c565b5b0361061d576040518060400160405280600481526020017f4c617465000000000000000000000000000000000000000000000000000000008152509050610925565b6005600781111561063157610630611a8c565b5b600660009054906101000a900460ff16600781111561065357610652611a8c565b5b03610695576040518060400160405280600981526020017f4469736d697373656400000000000000000000000000000000000000000000008152509050610925565b600460078111156106a9576106a8611a8c565b5b600660009054906101000a900460ff1660078111156106cb576106ca611a8c565b5b0361070d576040518060400160405280600981526020017f446973707574696e6700000000000000000000000000000000000000000000008152509050610925565b6002600781111561072157610720611a8c565b5b600660009054906101000a900460ff16600781111561074357610742611a8c565b5b03610785576040518060400160405280600481526020017f50616964000000000000000000000000000000000000000000000000000000008152509050610925565b6003600781111561079957610798611a8c565b5b600660009054906101000a900460ff1660078111156107bb576107ba611a8c565b5b036107fd576040518060400160405280600981526020017f43616e63656c6c656400000000000000000000000000000000000000000000008152509050610925565b6006600781111561081157610810611a8c565b5b600660009054906101000a900460ff16600781111561083357610832611a8c565b5b03610875576040518060400160405280600d81526020017f556e7265736f6c76616c626c65000000000000000000000000000000000000008152509050610925565b60078081111561088857610887611a8c565b5b600660009054906101000a900460ff1660078111156108aa576108a9611a8c565b5b036108ec576040518060400160405280600981526020017f436f6e76696374656400000000000000000000000000000000000000000000008152509050610925565b6040518060400160405280600581526020017f4572726f7200000000000000000000000000000000000000000000000000000081525090505b90565b6060600280548060200260200160405190810160405280929190818152602001828054801561099e57602002820191906000526020600020906000905b82829054906101000a900461ffff1661ffff16815260200190600201906020826001010492830192600103820291508084116109655790505b5050505050905090565b600080600084815260200190815260200160002060000160008373ffffffffffffffffffffffffffffffffffffffff1673ffffffffffffffffffffffffffffffffffffffff16815260200190815260200160002060009054906101000a900460ff16905092915050565b600660019054906101000a900460ff16610a2b57600080fd5b7f469f0a0947cf59c7d944c91c6f4c13c396753b8abf0036156a8c6b0c02fdc02e610a5581611083565b610a5d610e35565b610a6657600080fd5b81600160006101000a81548173ffffffffffffffffffffffffffffffffffffffff021916908373ffffffffffffffffffffffffffffffffffffffff160217905550610ad17f9c4e6fd68fbdec6e3075ec7bfba710532af019aea93f5f59ebfe5a9d1a0b894e83611097565b610b1b7f7dc38bfcf3f4cd184671c7e6971d68d9731e00efe0a482344cd63548133e805f7f000000000000000000000000000000000000000000000000000000000000000061117f565b6004600660006101000a81548160ff02191690836007811115610b4157610b40611a8c565b5b02179055507f76c0bad3b7f1c74587dcb478154d4c87ae6663db97cc086b981decf4e35a797c30600660009054906101000a900460ff16604051610b86929190611b03565b60405180910390a15050565b600660019054906101000a900460ff16610bab57600080fd5b80600660006101000a81548160ff02191690836007811115610bd057610bcf611a8c565b5b02179055506000600660016101000a81548160ff021916908315150217905550610c3a7f7dc38bfcf3f4cd184671c7e6971d68d9731e00efe0a482344cd63548133e805f7f000000000000000000000000000000000000000000000000000000000000000061117f565b610c847f469f0a0947cf59c7d944c91c6f4c13c396753b8abf0036156a8c6b0c02fdc02e7f000000000000000000000000000000000000000000000000000000000000000061117f565b610cce7fbbecb2568601cb27e6ced525237c463da94c4fb7a9b98ac79fd30fd56d8e1b537f000000000000000000000000000000000000000000000000000000000000000061117f565b610d187f7dc38bfcf3f4cd184671c7e6971d68d9731e00efe0a482344cd63548133e805f7f000000000000000000000000000000000000000000000000000000000000000061117f565b600073ffffffffffffffffffffffffffffffffffffffff16600160009054906101000a900473ffffffffffffffffffffffffffffffffffffffff1673ffffffffffffffffffffffffffffffffffffffff1614610dbb57610dba7f9c4e6fd68fbdec6e3075ec7bfba710532af019aea93f5f59ebfe5a9d1a0b894e600160009054906101000a900473ffffffffffffffffffffffffffffffffffffffff1661117f565b5b7f76c0bad3b7f1c74587dcb478154d4c87ae6663db97cc086b981decf4e35a797c30600660009054906101000a900460ff16604051610dfb929190611b03565b60405180910390a150565b6000801b81565b60007f0000000000000000000000000000000000000000000000000000000000000000905090565b6000806007811115610e4a57610e49611a8c565b5b600660009054906101000a900460ff166007811115610e6c57610e6b611a8c565b5b1480610eab575060016007811115610e8757610e86611a8c565b5b600660009054906101000a900460ff166007811115610ea957610ea8611a8c565b5b145b15610ed75760045460035442610ec19190611b5b565b10610ecd576000610ed0565b60015b9050610edc565b600090505b90565b610ee882610468565b610ef181611083565b610efb838361117f565b505050565b60008073ffffffffffffffffffffffffffffffffffffffff16600160009054906101000a900473ffffffffffffffffffffffffffffffffffffffff1673ffffffffffffffffffffffffffffffffffffffff1603610f89576040517f87f439ad00000000000000000000000000000000000000000000000000000000815260040160405180910390fd5b600160009054906101000a900473ffffffffffffffffffffffffffffffffffffffff16905090565b6000600660019054906101000a900460ff16610ff9576040517f45978dec00000000000000000000000000000000000000000000000000000000815260040160405180910390fd5b4260045460035461100a9190611b8f565b6110149190611b5b565b905090565b60007f01ffc9a7000000000000000000000000000000000000000000000000000000007bffffffffffffffffffffffffffffffffffffffffffffffffffffffff1916827bffffffffffffffffffffffffffffffffffffffffffffffffffffffff1916149050919050565b6110948161108f611177565b611260565b50565b6110a182826109a8565b61117357600160008084815260200190815260200160002060000160008373ffffffffffffffffffffffffffffffffffffffff1673ffffffffffffffffffffffffffffffffffffffff16815260200190815260200160002060006101000a81548160ff021916908315150217905550611118611177565b73ffffffffffffffffffffffffffffffffffffffff168173ffffffffffffffffffffffffffffffffffffffff16837f2f8788117e7eff1d82e926ec794901d17c78024a50270940304540a733656f0d60405160405180910390a45b5050565b600033905090565b61118982826109a8565b1561125c57600080600084815260200190815260200160002060000160008373ffffffffffffffffffffffffffffffffffffffff1673ffffffffffffffffffffffffffffffffffffffff16815260200190815260200160002060006101000a81548160ff021916908315150217905550611201611177565b73ffffffffffffffffffffffffffffffffffffffff168173ffffffffffffffffffffffffffffffffffffffff16837ff6391f5c32d9c69d2a47ea670b442974b53935d1edc7fd64eb21e047a839171b60405160405180910390a45b5050565b61126a82826109a8565b6112f95761128f8173ffffffffffffffffffffffffffffffffffffffff1660146112fd565b61129d8360001c60206112fd565b6040516020016112ae929190611c97565b6040516020818303038152906040526040517f08c379a00000000000000000000000000000000000000000000000000000000081526004016112f09190611841565b60405180910390fd5b5050565b6060600060028360026113109190611cd1565b61131a9190611b8f565b67ffffffffffffffff81111561133357611332611d13565b5b6040519080825280601f01601f1916602001820160405280156113655781602001600182028036833780820191505090505b5090507f30000000000000000000000000000000000000000000000000000000000000008160008151811061139d5761139c611d42565b5b60200101907effffffffffffffffffffffffffffffffffffffffffffffffffffffffffffff1916908160001a9053507f78000000000000000000000000000000000000000000000000000000000000008160018151811061140157611400611d42565b5b60200101907effffffffffffffffffffffffffffffffffffffffffffffffffffffffffffff1916908160001a905350600060018460026114419190611cd1565b61144b9190611b8f565b90505b60018111156114eb577f3031323334353637383961626364656600000000000000000000000000000000600f86166010811061148d5761148c611d42565b5b1a60f81b8282815181106114a4576114a3611d42565b5b60200101907effffffffffffffffffffffffffffffffffffffffffffffffffffffffffffff1916908160001a905350600485901c9450806114e490611d71565b905061144e565b506000841461152f576040517f08c379a000000000000000000000000000000000000000000000000000000000815260040161152690611de6565b60405180910390fd5b8091505092915050565b600080fd5b60007fffffffff0000000000000000000000000000000000000000000000000000000082169050919050565b6115738161153e565b811461157e57600080fd5b50565b6000813590506115908161156a565b92915050565b6000602082840312156115ac576115ab611539565b5b60006115ba84828501611581565b91505092915050565b60008115159050919050565b6115d8816115c3565b82525050565b60006020820190506115f360008301846115cf565b92915050565b600073ffffffffffffffffffffffffffffffffffffffff82169050919050565b6000611624826115f9565b9050919050565b61163481611619565b82525050565b600060208201905061164f600083018461162b565b92915050565b6000819050919050565b61166881611655565b811461167357600080fd5b50565b6000813590506116858161165f565b92915050565b6000602082840312156116a1576116a0611539565b5b60006116af84828501611676565b91505092915050565b6000819050919050565b6116cb816116b8565b81146116d657600080fd5b50565b6000813590506116e8816116c2565b92915050565b60006020828403121561170457611703611539565b5b6000611712848285016116d9565b91505092915050565b611724816116b8565b82525050565b600060208201905061173f600083018461171b565b92915050565b61174e81611619565b811461175957600080fd5b50565b60008135905061176b81611745565b92915050565b6000806040838503121561178857611787611539565b5b6000611796858286016116d9565b92505060206117a78582860161175c565b9150509250929050565b600081519050919050565b600082825260208201905092915050565b60005b838110156117eb5780820151818401526020810190506117d0565b60008484015250505050565b6000601f19601f8301169050919050565b6000611813826117b1565b61181d81856117bc565b935061182d8185602086016117cd565b611836816117f7565b840191505092915050565b6000602082019050818103600083015261185b8184611808565b905092915050565b600081519050919050565b600082825260208201905092915050565b6000819050602082019050919050565b600061ffff82169050919050565b6118a68161188f565b82525050565b60006118b8838361189d565b60208301905092915050565b6000602082019050919050565b60006118dc82611863565b6118e6818561186e565b93506118f18361187f565b8060005b8381101561192257815161190988826118ac565b9750611914836118c4565b9250506001810190506118f5565b5085935050505092915050565b6000602082019050818103600083015261194981846118d1565b905092915050565b60006020828403121561196757611966611539565b5b60006119758482850161175c565b91505092915050565b6008811061198b57600080fd5b50565b60008135905061199d8161197e565b92915050565b6000602082840312156119b9576119b8611539565b5b60006119c78482850161198e565b91505092915050565b6119d981611655565b82525050565b60006020820190506119f460008301846119d0565b92915050565b7f416363657373436f6e74726f6c3a2063616e206f6e6c792072656e6f756e636560008201527f20726f6c657320666f722073656c660000000000000000000000000000000000602082015250565b6000611a56602f836117bc565b9150611a61826119fa565b604082019050919050565b60006020820190508181036000830152611a8581611a49565b9050919050565b7f4e487b7100000000000000000000000000000000000000000000000000000000600052602160045260246000fd5b60088110611acc57611acb611a8c565b5b50565b6000819050611add82611abb565b919050565b6000611aed82611acf565b9050919050565b611afd81611ae2565b82525050565b6000604082019050611b18600083018561162b565b611b256020830184611af4565b9392505050565b7f4e487b7100000000000000000000000000000000000000000000000000000000600052601160045260246000fd5b6000611b6682611655565b9150611b7183611655565b9250828203905081811115611b8957611b88611b2c565b5b92915050565b6000611b9a82611655565b9150611ba583611655565b9250828201905080821115611bbd57611bbc611b2c565b5b92915050565b600081905092915050565b7f416363657373436f6e74726f6c3a206163636f756e7420000000000000000000600082015250565b6000611c04601783611bc3565b9150611c0f82611bce565b601782019050919050565b6000611c25826117b1565b611c2f8185611bc3565b9350611c3f8185602086016117cd565b80840191505092915050565b7f206973206d697373696e6720726f6c6520000000000000000000000000000000600082015250565b6000611c81601183611bc3565b9150611c8c82611c4b565b601182019050919050565b6000611ca282611bf7565b9150611cae8285611c1a565b9150611cb982611c74565b9150611cc58284611c1a565b91508190509392505050565b6000611cdc82611655565b9150611ce783611655565b9250828202611cf581611655565b91508282048414831517611d0c57611d0b611b2c565b5b5092915050565b7f4e487b7100000000000000000000000000000000000000000000000000000000600052604160045260246000fd5b7f4e487b7100000000000000000000000000000000000000000000000000000000600052603260045260246000fd5b6000611d7c82611655565b915060008203611d8f57611d8e611b2c565b5b600182039050919050565b7f537472696e67733a20686578206c656e67746820696e73756666696369656e74600082015250565b6000611dd06020836117bc565b9150611ddb82611d9a565b602082019050919050565b60006020820190508181036000830152611dff81611dc3565b905091905056fea264697066735822122059d91bcbdfbff4f581001c8f52a017647cb7186f7d6f749fc7dc75264525694564736f6c63430008110033",
  "immutableReferences": {
    "1678": [
      {
        "length": 32,
        "start": 1014
      },
      {
        "length": 32,
        "start": 3168
      }
    ],
    "1680": [
      {
        "length": 32,
        "start": 2807
      },
      {
        "length": 32,
        "start": 3094
      },
      {
        "length": 32,
        "start": 3242
      },
      {
        "length": 32,
        "start": 3316
      },
      {
        "length": 32,
        "start": 3601
      }
    ]
  },
  "source": "// SPDX-License-Identifier: MIT\npragma solidity 0.8.17;\n\nimport \"@openzeppelin/contracts/access/AccessControl.sol\";\n\n\n// errors\nerror Ticket__inactive();\nerror Ticket__NoJudgeAssigned();\n\n\n/// @title Ticket\n/// @author Samin Yaser\n/// @notice You can use this contract to issue a traffic ticket\ncontract Ticket is AccessControl {\n\n    // Events\n    event StatusChanged(address ticket_address, Status status);\n\n    // Pending: Ticket is issued and driver can pay the fine\n    // Late: Driver has been late with the payment\n    // Paid: Driver has paid the fine and ticket is closed\n    // Cancelled: Ticket is cancelled by the police due to some reason\n    // disputing: Ticket is being disputed in the court by the request of the driver\n    // dismissed: Ticket is dismissed by the court in favor of the driver\n    // unresolvable: ???\n    // Convicted: Driver is convicted by the court and has to pay the fine\n    enum Status {\n        pending,\n        late,\n        paid,\n        cancelled,\n        disputing,\n        dismissed,\n        unresolvable,\n        convicted\n    }\n\n    // Roles\n    bytes32 private constant DRIVER_ROLE = keccak256(\"DRIVER_ROLE\");\n    bytes32 private constant OFFICER_ROLE = keccak256(\"OFFICER_ROLE\");\n    bytes32 private constant JUDGE_ROLE = keccak256(\"JUDGE_ROLE\");\n    bytes32 private constant CANCEL_TICKET_ROLE = keccak256(\"CANCEL_TICKET_ROLE\");\n\n    // Attributes\n    address private immutable driver;\n    address private immutable officer;\n    address private judge;\n    uint16[] private penalty_clasues;\n    uint256 private lastTimeStamp;\n    uint256 private interval = 30 days;\n    uint256 private strikes = 0;\n    Status private status;\n    bool private isActive = true; // ticket is active or not\n\n    modifier checkActive{\n        require(isActive);\n        _;\n    }\n\n    constructor(\n        address driver_,\n        uint16[] memory penalty_clasues_\n        )\n    {\n\n        driver = driver_;\n        officer = msg.sender;\n        judge = address(0);\n        penalty_clasues = penalty_clasues_;\n\n        lastTimeStamp = block.timestamp;\n\n        status = Status.pending;\n\n        _setupRole(DRIVER_ROLE, driver_);\n        _setupRole(OFFICER_ROLE, msg.sender);\n        _setupRole(CANCEL_TICKET_ROLE, msg.sender);\n    }\n\n    /// @notice Owner can request a hearing in court\n    /// @dev must provide wallet address of the judge\n    function requestHearing(address judge_) public checkActive onlyRole(DRIVER_ROLE) {\n        require(isPayable());\n\n        judge = judge_;\n        _grantRole(JUDGE_ROLE, judge_);\n\n        _revokeRole(CANCEL_TICKET_ROLE, officer); // officer can't cancel the ticket anymore\n        status = Status.disputing;\n\n        emit StatusChanged(address(this), status);\n    }\n\n    function checkStatus() external view returns(string memory) {\n\n        // return uint256(status);\n        // Ugly but gas efficient\n        if (status == Status.pending) return \"Pending\";\n        if (status == Status.late) return \"Late\";\n        if (status == Status.dismissed) return \"Dismissed\";\n        if (status == Status.disputing) return \"Disputing\";\n        if (status == Status.paid) return \"Paid\";\n        if (status == Status.cancelled) return \"Cancelled\";\n        if (status == Status.unresolvable) return \"Unresolvalble\";\n        if (status == Status.convicted) return \"Convicted\";\n        return \"Error\";\n    }\n\n    /// @notice Resolves the ticket for good.\n    function resolveTicket(Status status_) external checkActive {\n        status = status_;\n        isActive = false;\n\n        // Revoke all roles\n        _revokeRole(CANCEL_TICKET_ROLE, officer);\n        _revokeRole(DRIVER_ROLE, driver);\n        _revokeRole(OFFICER_ROLE, officer);\n        _revokeRole(CANCEL_TICKET_ROLE, officer);\n        if(judge != address(0)) {\n            _revokeRole(JUDGE_ROLE, judge);\n        }\n\n        emit StatusChanged(address(this), status);\n    }\n\n    /// @dev set interval in days\n    function setInterval(uint256 interval_) external checkActive onlyRole(OFFICER_ROLE) {\n        interval = interval_;\n    }\n\n    function isPayable() public view returns(bool) {\n        if (status == Status.pending || status == Status.late) {\n            return (block.timestamp - lastTimeStamp) < interval ? true : false;\n        }\n        return false;\n    }\n\n    function isTicketActive() external view returns(bool) {\n        return isActive;\n    }\n\n    function getDriverAddress() external view returns(address) {\n        return driver;\n    }\n\n    function getOfficerAddress() external view returns(address) {\n        return officer;\n    }\n\n    function getJudgeAddress() external view returns(address) {\n        if(judge == address(0)) {\n            revert Ticket__NoJudgeAssigned();\n        }\n        return judge;\n    }\n\n    function getCharges() external view returns(uint16[] memory) {\n        return penalty_clasues;\n    }\n\n\n    function getRemainingTime() external view returns(uint256) {\n        if(!isActive) {\n            revert Ticket__inactive();\n        }\n\n        return (lastTimeStamp + interval) - block.timestamp;\n    }\n}\n",
  "sourcePath": "C:\\Users\\samin\\Documents\\Projects\\AWT\\TraffiChain\\contracts\\Ticket.sol",
  "compiler": {
    "name": "solc",
    "version": "0.8.17+commit.8df45f5f.Emscripten.clang"
  },
  "schemaVersion": "3.4.10",
  "updatedAt": "2022-11-06T14:57:20.652Z",
  "devdoc": {
    "author": "Samin Yaser",
    "kind": "dev",
    "methods": {
      "getRoleAdmin(bytes32)": {
        "details": "Returns the admin role that controls `role`. See {grantRole} and {revokeRole}. To change a role's admin, use {_setRoleAdmin}."
      },
      "grantRole(bytes32,address)": {
        "details": "Grants `role` to `account`. If `account` had not been already granted `role`, emits a {RoleGranted} event. Requirements: - the caller must have ``role``'s admin role. May emit a {RoleGranted} event."
      },
      "hasRole(bytes32,address)": {
        "details": "Returns `true` if `account` has been granted `role`."
      },
      "renounceRole(bytes32,address)": {
        "details": "Revokes `role` from the calling account. Roles are often managed via {grantRole} and {revokeRole}: this function's purpose is to provide a mechanism for accounts to lose their privileges if they are compromised (such as when a trusted device is misplaced). If the calling account had been revoked `role`, emits a {RoleRevoked} event. Requirements: - the caller must be `account`. May emit a {RoleRevoked} event."
      },
      "requestHearing(address)": {
        "details": "must provide wallet address of the judge"
      },
      "revokeRole(bytes32,address)": {
        "details": "Revokes `role` from `account`. If `account` had been granted `role`, emits a {RoleRevoked} event. Requirements: - the caller must have ``role``'s admin role. May emit a {RoleRevoked} event."
      },
      "setInterval(uint256)": {
        "details": "set interval in days"
      },
      "supportsInterface(bytes4)": {
        "details": "See {IERC165-supportsInterface}."
      }
    },
    "title": "Ticket",
    "version": 1
  },
  "userdoc": {
    "kind": "user",
    "methods": {
      "requestHearing(address)": {
        "notice": "Owner can request a hearing in court"
      },
      "resolveTicket(uint8)": {
        "notice": "Resolves the ticket for good."
      }
    },
    "notice": "You can use this contract to issue a traffic ticket",
    "version": 1
  }
}