{
  "contractName": "TicketFactory",
  "abi": [
    {
      "inputs": [],
      "stateMutability": "nonpayable",
      "type": "constructor"
    },
    {
      "inputs": [
        {
          "internalType": "uint256",
          "name": "",
          "type": "uint256"
        }
      ],
      "name": "tickets",
      "outputs": [
        {
          "internalType": "contract Ticket",
          "name": "",
          "type": "address"
        }
      ],
      "stateMutability": "view",
      "type": "function"
    }
  ],
  "bytecode": "0x608060405234801561001057600080fd5b506101d7806100206000396000f3fe608060405234801561001057600080fd5b506004361061002b5760003560e01c806350b4471214610030575b600080fd5b61004a600480360381019061004591906100da565b610060565b6040516100579190610186565b60405180910390f35b6000818154811061007057600080fd5b906000526020600020016000915054906101000a900473ffffffffffffffffffffffffffffffffffffffff1681565b600080fd5b6000819050919050565b6100b7816100a4565b81146100c257600080fd5b50565b6000813590506100d4816100ae565b92915050565b6000602082840312156100f0576100ef61009f565b5b60006100fe848285016100c5565b91505092915050565b600073ffffffffffffffffffffffffffffffffffffffff82169050919050565b6000819050919050565b600061014c61014761014284610107565b610127565b610107565b9050919050565b600061015e82610131565b9050919050565b600061017082610153565b9050919050565b61018081610165565b82525050565b600060208201905061019b6000830184610177565b9291505056fea2646970667358221220b7f5e7022876a56af0088832aec7ef960d89853d76345f1c3767d3c78ed93cab64736f6c63430008110033",
  "immutableReferences": {},
  "source": "// SPDX-License-Identifier: MIT\npragma solidity 0.8.17;\n\nimport \"./Ticket.sol\";\n\ncontract TicketFactory {\n\n    Ticket[] public tickets;\n\n    constructor() {\n\n    }\n}\n",
  "sourcePath": "C:\\Users\\samin\\Documents\\Projects\\AWT\\TraffiChain\\contracts\\TicketFactory.sol",
  "compiler": {
    "name": "solc",
    "version": "0.8.17+commit.8df45f5f.Emscripten.clang"
  },
  "schemaVersion": "3.4.10",
  "updatedAt": "2022-11-02T05:56:43.506Z",
  "devdoc": {
    "kind": "dev",
    "methods": {},
    "version": 1
  },
  "userdoc": {
    "kind": "user",
    "methods": {},
    "version": 1
  }
}