{
  "contractName": "VehicleFactory",
  "abi": [
    {
      "inputs": [
        {
          "internalType": "string",
          "name": "name_",
          "type": "string"
        },
        {
          "internalType": "uint256",
          "name": "chassisNo_",
          "type": "uint256"
        },
        {
          "internalType": "enum VehicleFactory.Class",
          "name": "class_",
          "type": "uint8"
        },
        {
          "internalType": "enum VehicleFactory.Type",
          "name": "type_",
          "type": "uint8"
        },
        {
          "internalType": "uint256",
          "name": "licenseNo_",
          "type": "uint256"
        }
      ],
      "name": "createNewVehicle",
      "outputs": [],
      "stateMutability": "nonpayable",
      "type": "function"
    },
    {
      "inputs": [
        {
          "internalType": "uint256",
          "name": "licenseNo",
          "type": "uint256"
        },
        {
          "internalType": "enum VehicleFactory.Status",
          "name": "status",
          "type": "uint8"
        }
      ],
      "name": "changeStatus",
      "outputs": [],
      "stateMutability": "nonpayable",
      "type": "function"
    },
    {
      "inputs": [
        {
          "internalType": "uint256",
          "name": "licenseNo",
          "type": "uint256"
        }
      ],
      "name": "getVehicleByLicense",
      "outputs": [
        {
          "components": [
            {
              "internalType": "string",
              "name": "name",
              "type": "string"
            },
            {
              "internalType": "uint256",
              "name": "chassisNo",
              "type": "uint256"
            },
            {
              "internalType": "enum VehicleFactory.Status",
              "name": "vehicleStatus",
              "type": "uint8"
            },
            {
              "internalType": "enum VehicleFactory.Class",
              "name": "vehicleClass",
              "type": "uint8"
            },
            {
              "internalType": "enum VehicleFactory.Type",
              "name": "vehicleType",
              "type": "uint8"
            },
            {
              "internalType": "uint256",
              "name": "licenseNo",
              "type": "uint256"
            },
            {
              "internalType": "address",
              "name": "owner",
              "type": "address"
            }
          ],
          "internalType": "struct VehicleFactory.Vehicle",
          "name": "",
          "type": "tuple"
        }
      ],
      "stateMutability": "view",
      "type": "function",
      "constant": true
    }
  ],
  "bytecode": "0x608060405234801561001057600080fd5b50610f84806100206000396000f3fe608060405234801561001057600080fd5b50600436106100415760003560e01c80634538f4c814610046578063ad5a12ea14610062578063c5a8a2ab14610092575b600080fd5b610060600480360381019061005b91906108b3565b6100ae565b005b61007c6004803603810190610077919061094a565b610434565b6040516100899190610be9565b60405180910390f35b6100ac60048036038101906100a79190610c30565b61060e565b005b6000803373ffffffffffffffffffffffffffffffffffffffff1673ffffffffffffffffffffffffffffffffffffffff1681526020019081526020016000206040518060e0016040528087815260200186815260200160038081111561011657610115610a05565b5b815260200185600581111561012e5761012d610a05565b5b815260200184600281111561014657610145610a05565b5b81526020018381526020013373ffffffffffffffffffffffffffffffffffffffff16815250908060018154018082558091505060019003906000526020600020906005020160009091909190915060008201518160000190816101a99190610e7c565b506020820151816001015560408201518160020160006101000a81548160ff021916908360038111156101df576101de610a05565b5b021790555060608201518160020160016101000a81548160ff0219169083600581111561020f5761020e610a05565b5b021790555060808201518160020160026101000a81548160ff0219169083600281111561023f5761023e610a05565b5b021790555060a0820151816003015560c08201518160040160006101000a81548173ffffffffffffffffffffffffffffffffffffffff021916908373ffffffffffffffffffffffffffffffffffffffff16021790555050506040518060e001604052808681526020018581526020016003808111156102c1576102c0610a05565b5b81526020018460058111156102d9576102d8610a05565b5b81526020018360028111156102f1576102f0610a05565b5b81526020018281526020013373ffffffffffffffffffffffffffffffffffffffff1681525060016000838152602001908152602001600020600082015181600001908161033e9190610e7c565b506020820151816001015560408201518160020160006101000a81548160ff0219169083600381111561037457610373610a05565b5b021790555060608201518160020160016101000a81548160ff021916908360058111156103a4576103a3610a05565b5b021790555060808201518160020160026101000a81548160ff021916908360028111156103d4576103d3610a05565b5b021790555060a0820151816003015560c08201518160040160006101000a81548173ffffffffffffffffffffffffffffffffffffffff021916908373ffffffffffffffffffffffffffffffffffffffff1602179055509050505050505050565b61043c610650565b600160008381526020019081526020016000206040518060e001604052908160008201805461046a90610c9f565b80601f016020809104026020016040519081016040528092919081815260200182805461049690610c9f565b80156104e35780601f106104b8576101008083540402835291602001916104e3565b820191906000526020600020905b8154815290600101906020018083116104c657829003601f168201915b50505050508152602001600182015481526020016002820160009054906101000a900460ff16600381111561051b5761051a610a05565b5b600381111561052d5761052c610a05565b5b81526020016002820160019054906101000a900460ff16600581111561055657610555610a05565b5b600581111561056857610567610a05565b5b81526020016002820160029054906101000a900460ff16600281111561059157610590610a05565b5b60028111156105a3576105a2610a05565b5b8152602001600382015481526020016004820160009054906101000a900473ffffffffffffffffffffffffffffffffffffffff1673ffffffffffffffffffffffffffffffffffffffff1673ffffffffffffffffffffffffffffffffffffffff16815250509050919050565b806001600084815260200190815260200160002060020160006101000a81548160ff0219169083600381111561064757610646610a05565b5b02179055505050565b6040518060e0016040528060608152602001600081526020016000600381111561067d5761067c610a05565b5b81526020016000600581111561069657610695610a05565b5b8152602001600060028111156106af576106ae610a05565b5b815260200160008152602001600073ffffffffffffffffffffffffffffffffffffffff1681525090565b6000604051905090565b600080fd5b600080fd5b600080fd5b600080fd5b6000601f19601f8301169050919050565b7f4e487b7100000000000000000000000000000000000000000000000000000000600052604160045260246000fd5b610740826106f7565b810181811067ffffffffffffffff8211171561075f5761075e610708565b5b80604052505050565b60006107726106d9565b905061077e8282610737565b919050565b600067ffffffffffffffff82111561079e5761079d610708565b5b6107a7826106f7565b9050602081019050919050565b82818337600083830152505050565b60006107d66107d184610783565b610768565b9050828152602081018484840111156107f2576107f16106f2565b5b6107fd8482856107b4565b509392505050565b600082601f83011261081a576108196106ed565b5b813561082a8482602086016107c3565b91505092915050565b6000819050919050565b61084681610833565b811461085157600080fd5b50565b6000813590506108638161083d565b92915050565b6006811061087657600080fd5b50565b60008135905061088881610869565b92915050565b6003811061089b57600080fd5b50565b6000813590506108ad8161088e565b92915050565b600080600080600060a086880312156108cf576108ce6106e3565b5b600086013567ffffffffffffffff8111156108ed576108ec6106e8565b5b6108f988828901610805565b955050602061090a88828901610854565b945050604061091b88828901610879565b935050606061092c8882890161089e565b925050608061093d88828901610854565b9150509295509295909350565b6000602082840312156109605761095f6106e3565b5b600061096e84828501610854565b91505092915050565b600081519050919050565b600082825260208201905092915050565b60005b838110156109b1578082015181840152602081019050610996565b60008484015250505050565b60006109c882610977565b6109d28185610982565b93506109e2818560208601610993565b6109eb816106f7565b840191505092915050565b6109ff81610833565b82525050565b7f4e487b7100000000000000000000000000000000000000000000000000000000600052602160045260246000fd5b60048110610a4557610a44610a05565b5b50565b6000819050610a5682610a34565b919050565b6000610a6682610a48565b9050919050565b610a7681610a5b565b82525050565b60068110610a8d57610a8c610a05565b5b50565b6000819050610a9e82610a7c565b919050565b6000610aae82610a90565b9050919050565b610abe81610aa3565b82525050565b60038110610ad557610ad4610a05565b5b50565b6000819050610ae682610ac4565b919050565b6000610af682610ad8565b9050919050565b610b0681610aeb565b82525050565b600073ffffffffffffffffffffffffffffffffffffffff82169050919050565b6000610b3782610b0c565b9050919050565b610b4781610b2c565b82525050565b600060e0830160008301518482036000860152610b6a82826109bd565b9150506020830151610b7f60208601826109f6565b506040830151610b926040860182610a6d565b506060830151610ba56060860182610ab5565b506080830151610bb86080860182610afd565b5060a0830151610bcb60a08601826109f6565b5060c0830151610bde60c0860182610b3e565b508091505092915050565b60006020820190508181036000830152610c038184610b4d565b905092915050565b60048110610c1857600080fd5b50565b600081359050610c2a81610c0b565b92915050565b60008060408385031215610c4757610c466106e3565b5b6000610c5585828601610854565b9250506020610c6685828601610c1b565b9150509250929050565b7f4e487b7100000000000000000000000000000000000000000000000000000000600052602260045260246000fd5b60006002820490506001821680610cb757607f821691505b602082108103610cca57610cc9610c70565b5b50919050565b60008190508160005260206000209050919050565b60006020601f8301049050919050565b600082821b905092915050565b600060088302610d327fffffffffffffffffffffffffffffffffffffffffffffffffffffffffffffffff82610cf5565b610d3c8683610cf5565b95508019841693508086168417925050509392505050565b6000819050919050565b6000610d79610d74610d6f84610833565b610d54565b610833565b9050919050565b6000819050919050565b610d9383610d5e565b610da7610d9f82610d80565b848454610d02565b825550505050565b600090565b610dbc610daf565b610dc7818484610d8a565b505050565b5b81811015610deb57610de0600082610db4565b600181019050610dcd565b5050565b601f821115610e3057610e0181610cd0565b610e0a84610ce5565b81016020851015610e19578190505b610e2d610e2585610ce5565b830182610dcc565b50505b505050565b600082821c905092915050565b6000610e5360001984600802610e35565b1980831691505092915050565b6000610e6c8383610e42565b9150826002028217905092915050565b610e8582610977565b67ffffffffffffffff811115610e9e57610e9d610708565b5b610ea88254610c9f565b610eb3828285610def565b600060209050601f831160018114610ee65760008415610ed4578287015190505b610ede8582610e60565b865550610f46565b601f198416610ef486610cd0565b60005b82811015610f1c57848901518255600182019150602085019450602081019050610ef7565b86831015610f395784890151610f35601f891682610e42565b8355505b6001600288020188555050505b50505050505056fea26469706673582212200c600414dce01a6e0967ca2fc731ba57638a9994f4d32c81e994f57b6844b0de64736f6c63430008110033",
  "immutableReferences": {},
  "source": "// SPDX-License-Identifier: MIT\npragma solidity 0.8.17;\n\ncontract VehicleFactory {\n\n    enum Status {\n        normal,\n        impounded,\n        decommissioned,\n        registration_pending\n    }\n\n    enum Class {\n        sedan,\n        suv,\n        bus,\n        truck,\n        motorbike,\n        cng\n    }\n\n    enum Type {\n        government,\n        civilian,\n        special\n    }\n\n    struct Vehicle {\n        string name;\n        uint256 chassisNo;\n        Status vehicleStatus;\n        Class vehicleClass;\n        Type vehicleType;\n        uint256 licenseNo;\n        address owner;\n    }\n\n    mapping(address => Vehicle[]) private ownerToVehicles;\n    mapping(uint256 => Vehicle) private licenseToVehicle;\n\n    function createNewVehicle(\n        string memory name_,\n        uint256 chassisNo_,\n        Class class_,\n        Type type_,\n        uint256 licenseNo_\n    ) external\n    {\n        ownerToVehicles[msg.sender].push(Vehicle({\n            name: name_,\n            chassisNo: chassisNo_,\n            vehicleStatus: Status.registration_pending,\n            vehicleClass: class_,\n            vehicleType: type_,\n            licenseNo: licenseNo_,\n            owner: msg.sender\n        }));\n\n        licenseToVehicle[licenseNo_] = Vehicle({\n            name: name_,\n            chassisNo: chassisNo_,\n            vehicleStatus: Status.registration_pending,\n            vehicleClass: class_,\n            vehicleType: type_,\n            licenseNo: licenseNo_,\n            owner: msg.sender\n        });\n\n    }\n\n    function changeStatus(\n        uint256 licenseNo,\n        Status status\n    ) external\n    {\n        licenseToVehicle[licenseNo].vehicleStatus = status;\n    }\n\n    function getVehicleByLicense(\n        uint256 licenseNo\n    ) external view returns(Vehicle memory) {\n        return licenseToVehicle[licenseNo];\n    }\n}\n",
  "sourcePath": "C:\\Users\\samin\\Documents\\Projects\\AWT\\TraffiChain\\contracts\\VehicleFactory.sol",
  "compiler": {
    "name": "solc",
    "version": "0.8.17+commit.8df45f5f.Emscripten.clang"
  },
  "schemaVersion": "3.4.10",
  "updatedAt": "2022-11-28T05:49:51.413Z",
  "networkType": "ethereum",
  "devdoc": {
    "kind": "dev",
    "methods": {},
    "version": 1
  },
  "userdoc": {
    "kind": "user",
    "methods": {},
    "version": 1
  }
}