{
  "contractName": "VehicleFactory",
  "abi": [
    {
      "inputs": [
        {
          "internalType": "string",
          "name": "_name",
          "type": "string"
        },
        {
          "internalType": "string",
          "name": "_chassisNo",
          "type": "string"
        },
        {
          "internalType": "uint16",
          "name": "_vehicleStatus",
          "type": "uint16"
        },
        {
          "internalType": "uint16",
          "name": "_vehicleClass",
          "type": "uint16"
        },
        {
          "internalType": "uint16",
          "name": "_vehicleType",
          "type": "uint16"
        }
      ],
      "name": "registerVehicle",
      "outputs": [],
      "stateMutability": "nonpayable",
      "type": "function"
    },
    {
      "inputs": [
        {
          "internalType": "address",
          "name": "owner",
          "type": "address"
        },
        {
          "internalType": "uint256",
          "name": "VehicleID",
          "type": "uint256"
        }
      ],
      "name": "assignOwner",
      "outputs": [],
      "stateMutability": "nonpayable",
      "type": "function"
    },
    {
      "inputs": [
        {
          "internalType": "address",
          "name": "owner",
          "type": "address"
        }
      ],
      "name": "getOwnedVehicles",
      "outputs": [],
      "stateMutability": "nonpayable",
      "type": "function"
    }
  ],
  "bytecode": "0x608060405234801561001057600080fd5b50610a2f806100206000396000f3fe608060405234801561001057600080fd5b50600436106100415760003560e01c80630567d3c3146100465780639b2bd30814610062578063b7afa6091461007e575b600080fd5b610060600480360381019061005b91906103b6565b61009a565b005b61007c60048036038101906100779190610419565b61009d565b005b610098600480360381019061009391906104f8565b6101c2565b005b50565b600081815481106100b1576100b06105b4565b5b9060005260206000209060030201600160008473ffffffffffffffffffffffffffffffffffffffff1673ffffffffffffffffffffffffffffffffffffffff168152602001908152602001600020600082018160000190816101129190610834565b50600182018160010190816101279190610834565b506002820160009054906101000a900461ffff168160020160006101000a81548161ffff021916908361ffff1602179055506002820160029054906101000a900461ffff168160020160026101000a81548161ffff021916908361ffff1602179055506002820160049054906101000a900461ffff168160020160046101000a81548161ffff021916908361ffff1602179055509050505050565b60006040518060a0016040528089898080601f016020809104026020016040519081016040528093929190818152602001838380828437600081840152601f19601f82011690508083019250505050505050815260200187878080601f016020809104026020016040519081016040528093929190818152602001838380828437600081840152601f19601f8201169050808301925050505050505081526020018561ffff1681526020018461ffff1681526020018361ffff168152509050600081908060018154018082558091505060019003906000526020600020906003020160009091909190915060008201518160000190816102c29190610927565b5060208201518160010190816102d89190610927565b5060408201518160020160006101000a81548161ffff021916908361ffff16021790555060608201518160020160026101000a81548161ffff021916908361ffff16021790555060808201518160020160046101000a81548161ffff021916908361ffff16021790555050505050505050505050565b600080fd5b600080fd5b600073ffffffffffffffffffffffffffffffffffffffff82169050919050565b600061038382610358565b9050919050565b61039381610378565b811461039e57600080fd5b50565b6000813590506103b08161038a565b92915050565b6000602082840312156103cc576103cb61034e565b5b60006103da848285016103a1565b91505092915050565b6000819050919050565b6103f6816103e3565b811461040157600080fd5b50565b600081359050610413816103ed565b92915050565b600080604083850312156104305761042f61034e565b5b600061043e858286016103a1565b925050602061044f85828601610404565b9150509250929050565b600080fd5b600080fd5b600080fd5b60008083601f84011261047e5761047d610459565b5b8235905067ffffffffffffffff81111561049b5761049a61045e565b5b6020830191508360018202830111156104b7576104b6610463565b5b9250929050565b600061ffff82169050919050565b6104d5816104be565b81146104e057600080fd5b50565b6000813590506104f2816104cc565b92915050565b600080600080600080600060a0888a0312156105175761051661034e565b5b600088013567ffffffffffffffff81111561053557610534610353565b5b6105418a828b01610468565b9750975050602088013567ffffffffffffffff81111561056457610563610353565b5b6105708a828b01610468565b955095505060406105838a828b016104e3565b93505060606105948a828b016104e3565b92505060806105a58a828b016104e3565b91505092959891949750929550565b7f4e487b7100000000000000000000000000000000000000000000000000000000600052603260045260246000fd5b7f4e487b7100000000000000000000000000000000000000000000000000000000600052602260045260246000fd5b6000600282049050600182168061062a57607f821691505b60208210810361063d5761063c6105e3565b5b50919050565b60008154905061065281610612565b9050919050565b7f4e487b7100000000000000000000000000000000000000000000000000000000600052604160045260246000fd5b60008190508160005260206000209050919050565b60006020601f8301049050919050565b600082821b905092915050565b6000600883026106ea7fffffffffffffffffffffffffffffffffffffffffffffffffffffffffffffffff826106ad565b6106f486836106ad565b95508019841693508086168417925050509392505050565b6000819050919050565b600061073161072c610727846103e3565b61070c565b6103e3565b9050919050565b6000819050919050565b61074b83610716565b61075f61075782610738565b8484546106ba565b825550505050565b600090565b610774610767565b61077f818484610742565b505050565b5b818110156107a35761079860008261076c565b600181019050610785565b5050565b601f8211156107e8576107b981610688565b6107c28461069d565b810160208510156107d1578190505b6107e56107dd8561069d565b830182610784565b50505b505050565b600082821c905092915050565b600061080b600019846008026107ed565b1980831691505092915050565b600061082483836107fa565b9150826002028217905092915050565b81810361084257505061091a565b61084b82610643565b67ffffffffffffffff81111561086457610863610659565b5b61086e8254610612565b6108798282856107a7565b6000601f8311600181146108a85760008415610896578287015490505b6108a08582610818565b865550610913565b601f1984166108b687610688565b96506108c186610688565b60005b828110156108e9578489015482556001820191506001850194506020810190506108c4565b868310156109065784890154610902601f8916826107fa565b8355505b6001600288020188555050505b5050505050505b565b600081519050919050565b6109308261091c565b67ffffffffffffffff81111561094957610948610659565b5b6109538254610612565b61095e8282856107a7565b600060209050601f831160018114610991576000841561097f578287015190505b6109898582610818565b8655506109f1565b601f19841661099f86610688565b60005b828110156109c7578489015182556001820191506020850194506020810190506109a2565b868310156109e457848901516109e0601f8916826107fa565b8355505b6001600288020188555050505b50505050505056fea2646970667358221220c7ad0bd3208419b4fcb0c854dffa221e8f8df7003d3d9a98d309d48e13152f9064736f6c63430008110033",
  "immutableReferences": {},
  "source": "// SPDX-License-Identifier: MIT\npragma solidity 0.8.17;\n\ncontract VehicleFactory {\n\n    enum VehicleStatus {\n        normal,\n        impounded,\n        decommissioned\n    }\n\n    enum VehicleClass {\n        sedan,\n        suv,\n        microbus,\n        minibus,\n        bus\n    }\n\n    enum VehicleType {\n        civilian,\n        government,\n        special\n    }\n\n    struct Vehicle {\n        string name;\n        string chassisNo;\n        uint16 vehicleStatus;\n        uint16 vehicleClass;\n        uint16 vehicleType;\n    }\n\n    Vehicle[] private vehicles;\n\n    mapping(address => Vehicle) private ownerToVehicle;\n\n\n    function registerVehicle\n    (\n        string calldata _name,\n        string calldata _chassisNo,\n        uint16 _vehicleStatus,\n        uint16 _vehicleClass,\n        uint16 _vehicleType\n    ) external\n    {\n        Vehicle memory vehicle = Vehicle(\n            _name,\n            _chassisNo,\n            _vehicleStatus,\n            _vehicleClass,\n            _vehicleType\n        );\n\n        vehicles.push(vehicle);\n    }\n\n    function assignOwner(address owner, uint256 VehicleID) external {\n        ownerToVehicle[owner] = vehicles[VehicleID];\n    }\n\n    function getOwnedVehicles(address owner) external {\n\n    }\n}\n",
  "sourcePath": "C:\\Users\\samin\\Documents\\Projects\\AWT\\TraffiChain\\contracts\\VehicleFactory.sol",
  "compiler": {
    "name": "solc",
    "version": "0.8.17+commit.8df45f5f.Emscripten.clang"
  },
  "schemaVersion": "3.4.10",
  "updatedAt": "2022-11-04T13:23:17.297Z",
  "devdoc": {
    "kind": "dev",
    "methods": {},
    "version": 1
  },
  "userdoc": {
    "kind": "user",
    "methods": {},
    "version": 1
  }
}